:020000040800F2
:1000000048080020890100089101000893010008B8
:100010009501000897010008990100080000000000
:100020000000000000000000000000009B0100082C
:100030009D010008000000009F010008A1010008C8
:10004000A3010008A3010008A3010008A301000800
:10005000A3010008A3010008A3010008A3010008F0
:10006000A3010008A3010008A3010008A3010008E0
:10007000A3010008A3010008A3010008A3010008D0
:10008000A3010008A3010008A3010008A3010008C0
:10009000A3010008A3010008A301000879110008CA
:1000A000A3010008D3160008A3010008A30100085B
:1000B000391C0008A3010008A3010008A3010008DF
:1000C000A3010008A3010008A3010008A301000880
:1000D000A3010008F50500086F060008A301000849
:1000E000A3010008A3010008A301000800F002F822
:1000F00000F03AF80AA090E8000C82448344AAF188
:100100000107DA4501D100F02FF8AFF2090EBAE885
:100110000F0013F0010F18BFFB1A43F0010318473B
:10012000EC5B00000C5C0000103A24BF78C878C17A
:10013000FAD8520724BF30C830C144BF04680C60ED
:10014000704700000023002400250026103A28BF35
:1001500078C1FBD8520728BF30C148BF0B60704739
:100160001FB51FBD10B510BD03F014FF1146FFF7FA
:10017000F7FF00F0DDFA03F032FF03B4FFF7F2FF00
:1001800003BC00F081F90000094880470948004796
:10019000FEE7FEE7FEE7FEE7FEE7FEE7FEE7FEE737
:1001A000FEE7FEE704480549054A064B7047000094
:1001B000A7020008ED0000084802002048080020BF
:1001C00048040020480400200CB500200190009055
:1001D0006C48006840F480306A49086000BF694894
:1001E000006800F4003000900198401C01900098D5
:1001F00018B90198B0F5A06FF1D16248006800F419
:10020000003010B10120009001E000200090009823
:10021000012843D15C48006840F010005A4908604A
:100220000846006820F0030008600846006840F0B7
:1002300002000860534840685249486008464068D8
:1002400048600846406840F480604860084640685E
:1002500020F47C1048600846406840F4E81048608C
:100260000846006840F08070086000BF454800689C
:1002700000F000700028F9D04248406820F00300E8
:10028000404948600846406840F00200486000BFAE
:100290003C48406800F00C000828F9D10CBD10B5AE
:1002A000FFF792FF10BD10B53648006840F001001E
:1002B000344908600846406834490840314948607C
:1002C00008460068324908402E4908600846006820
:1002D00020F4802008600846406820F4FE00486052
:1002E0004FF41F008860FFF7DAFF4FF000602949E4
:1002F000086010BD10B5002100200022214B5B6872
:1003000003F00C0121B1042906D0082928D107E007
:10031000214B224C236027E01F4B204C236023E01D
:10032000184B5B6803F47010164B5B6803F4803263
:10033000022303EB904022B9194B4343174C23602F
:100340000DE0104B5B6803F4003323B1144B4343BF
:10035000124C236003E0104B4343104C236003E036
:100360000D4B0E4C236000BF00BF064B5B68C3F310
:1003700003130C4CE15C094B1B68CB40074C23601A
:1003800010BD000000100240002002400000FFF8F5
:10039000FFFFF6FE08ED00E000127A0000000020EA
:1003A00000093D000400002010B56FF0040001F0CA
:1003B0005AFE2E4800682E49B0FBF1F02D49087016
:1003C0000846007800EB4001C1EBC0104FF6FF710A
:1003D00001EAC0002849088010BD0146254A12786C
:1003E0004A434FF0E0235A6100229A611A4612698B
:1003F00042F001021A6100BF4FF0E022106900F0E4
:1004000001021AB100F48032002AF5D04FF0E02248
:10041000126922F001024FF0E0231A6100229A6172
:1004200070470146144A12884A434FF0E0235A614C
:1004300000229A611A46126942F001021A6100BF55
:100440004FF0E022106900F001021AB100F480328E
:10045000002AF5D04FF0E022126922F001024FF09D
:10046000E0231A6100229A6170470000000000201A
:1004700000127A00140000201600002010B54FF47E
:10048000A06001F0A1FD10BD014600BF704700BF94
:100490009D4A128802F04002002AF9D0C2B29A4B5B
:1004A0001B1D1A80704710B586B00446012144F226
:1004B000040002F0C9FB4FF40070ADF814000320F3
:1004C0008DF8160018208DF8170005A98F4802F046
:1004D000FFF84FF48060ADF8140004208DF8170089
:1004E00005A98A4802F0F4F825208DF800000320C1
:1004F0008DF801008DF8020001208DF80300684698
:1005000001F067FD01940020ADF80800ADF80A0085
:10051000ADF80C00ADF810000C20ADF80E0001A9EC
:10052000794803F046FB012240F22551764803F05A
:10053000D8FB0121744803F0C8FB06B010BD10B50C
:1005400086B004460121042002F07EFB012148040C
:1005500002F087FB0420ADF8140003208DF816008C
:1005600018208DF8170005A9684802F0B1F8082096
:10057000ADF8140004208DF8170005A9634802F0B7
:10058000A7F826208DF8000003208DF801008DF8D3
:10059000020001208DF80300684601F01AFD019465
:1005A0000020ADF80800ADF80A00ADF80C00ADF879
:1005B00010000C20ADF80E0001A9554803F0F9FA1F
:1005C000012240F22551524803F08BFB0121504893
:1005D00003F07BFB06B010BD10B5044621464A4827
:1005E00003F0E0FB00BF8021474803F049FC0028EE
:1005F000F9D010BD10B540F22551434803F056FC28
:1006000010B3414803F0D2FBC4B24248008800F462
:100610000040C8B93F48008800F4804060B10A2C0F
:1006200003D000203B49088020E03A48008840F48D
:1006300000403849088019E00D2C06D13548008863
:1006400040F480403349088010E032480088C0F30D
:100650000D0031490C542F480088401C2D4908805A
:1006600008460088C72801DD0020088010BD10B5AD
:1006700000240821264803F003FC30B10821244857
:1006800003F00BFC224803F091FB2021204803F0EB
:10069000F7FB002836D040F225511D4803F030FC0E
:1006A0001B48001D0088C4B2242C05D101201B4921
:1006B000087000201A49086018480078012803D102
:1006C00018481749096844541448007801280AD189
:1006D000232C08D1144908700020104908701048D4
:1006E0000068124908600E480068401C0C49086008
:1006F00008460068502805DB00200860074908709C
:100700000949087010BD0000003801400008014090
:10071000004400402000002010010020280000209C
:1007200024000020C0000020180000202C00002021
:1007300000F094FE0AE001F04DF900F045FC0020C5
:100740000349086000F070FD00F026FEF3E70000AA
:100750003C000020074908600121074A11607047EA
:10076000044908600021044A1160704700200149D3
:1007700008607047300000203400002070B5044647
:100780000825A901F84802F050F84021F74802F086
:100790004EF815E004F0800020B18021F34802F00B
:1007A00044F803E08021F14802F041F84021EF488D
:1007B00002F03BF84021ED4802F039F86006040EE3
:1007C0002800A5F10101CDB2E4D170BD70B5044699
:1007D0000825A901E44802F02AF84021E34802F084
:1007E00026F815E004F0800020B18021DF4802F0F7
:1007F0001CF803E08021DD4802F019F84021DB48B5
:1008000002F013F84021D94802F011F86006040EF6
:100810002800A5F10101CDB2E4D170BD70B5044648
:100820000D46B02101EBE501C8B2FFF7CFFF102163
:1008300041EA1410FFF7CAFF04F00F0141F0010074
:10084000FFF7C4FF70BD70B504460D4605F1B00159
:10085000C8B2FFF7BBFF102141EA1410FFF7B6FF43
:1008600004F00F00FFF7B2FF70BD70B5064600241C
:1008700015E004F1B001C8B2FFF7A8FF0120FFF7AF
:10088000A5FF1020FFF7A2FF002504E03046FFF788
:1008900075FF681CC5B2802DF8DB601CC4B2082C43
:1008A000E7DB70BD70B5002415E004F1B001C8B2FB
:1008B000FFF78CFF0120FFF789FF1020FFF786FF6D
:1008C000002504E00020FFF759FF681CC5B2802D09
:1008D000F8DB601CC4B2082CE7DB70BD70B50446C1
:1008E000B02101EBE401C8B2FFF770FF0120FFF770
:1008F0006DFF1020FFF76AFF002504E00020FFF7DE
:100900003DFF681CC5B2802DF8DB70BD2DE9F041BC
:1009100004460D461646B02101EBE501C8B2FFF7CB
:1009200055FF0120FFF752FF1020FFF74FFF27462A
:1009300004E00020FFF722FF781CC7B2B742F8DBC3
:10094000BDE8F08109E040F2375100BF0A00A1F193
:10095000010399B2FAD1421E90B20028F3D1704738
:1009600010B54021814801F060FF4FF480717E484E
:1009700001F05DFF3220FFF7E5FF4FF480717A4808
:1009800001F053FFAE20FFF721FF0020FFF71EFF0D
:100990001020FFF71BFF4020FFF718FF8120FFF713
:1009A00015FFCF20FFF712FFA120FFF70FFFC82090
:1009B000FFF70CFFA620FFF709FFA820FFF706FFAF
:1009C0003F20FFF703FFD320FFF700FF0020FFF7D2
:1009D000FDFED520FFF7FAFE8020FFF7F7FED920B5
:1009E000FFF7F4FEF120FFF7F1FEDA20FFF7EEFE4D
:1009F0001220FFF7EBFEDB20FFF7E8FE4020FFF7B9
:100A0000E5FE2020FFF7E2FE0220FFF7DFFE8D204B
:100A1000FFF7DCFE1420FFF7D9FEA420FFF7D6FE77
:100A2000A620FFF7D3FEAF20FFF7D0FE0020FFF790
:100A30001CFF00210846FFF7F1FE10BD70B505460A
:100A40000C462046E11704EB5171C910A4EBC1021A
:100A500001219140CEB2B02101EBE401C8B2FFF711
:100A6000B5FE102141EA1510FFF7B0FE05F00F00AA
:100A7000FFF7ACFE3046FFF781FE70BD70B504464F
:100A80000D461646B02101EBE501C8B2FFF79EFE08
:100A9000102141EA1410FFF799FE04F00F00FFF750
:100AA00095FE3046FFF76AFE70BD2DE9F047074618
:100AB0000C4690461D46DDF820A0E1103846FFF7B1
:100AC000ADFE3E4613E0A146E11704EB5171C9109B
:100AD000A4EBC10201219140C8B2FFF74FFEBAF169
:100AE000010F02D13220FFF72DFF701CC6B2464520
:100AF000E9DDE9103846FFF791FE3E4613E0A946CE
:100B0000E91705EB5171C910A5EBC1020121914014
:100B1000C8B2FFF733FEBAF1010F02D10520FFF78B
:100B200011FF701CC6B24645E9DDBDE8F0872DE92E
:100B3000F04704468846154699464FF0000A0026BD
:100B4000002724E0E85D203800F0FF0A7E2C04DD59
:100B5000002408F1010000F0FF0841462046FFF79D
:100B60005DFE00260DE0000000100140000C014079
:100B70000AEB4A0109EB4101885DFFF7FFFD701C9C
:100B8000C6B2062EF4DBA01DC4B2781CC7B2E85D65
:100B90000028D7D1BDE8F0872DE9F04706460F467B
:100BA0009046994600250024A24630E018F80A0035
:100BB0002038C5B2782E02DD0026781CC7B239462F
:100BC0003046FFF72BFE002406E009EB0511085D17
:100BD000FFF7D4FD601CC4B2082CF6DB07F1080057
:100BE000C1B23046FFF71AFE002407E009EB0511F9
:100BF0002144087AFFF7C2FD601CC4B2082CF5DB63
:100C000006F10800C6B20AF1010000F0FF0A18F868
:100C10000A000028CAD1BDE8F0872DE9F05F8246BE
:100C20000F4690469946DDF828B00024002601259D
:100C30006DE00024012513E019F8040018F80610EF
:100C400088420BD109EB04004178701C18F80000B1
:100C5000814203D1C4EBC400450005E0A01CC4B22E
:100C600019F804007F28E7DC00BFBAF1760F03DD36
:100C70004FF0000A781CC7B239465046FFF7CEFD48
:100C8000012D21D039465046FFF7C8FD002407E06A
:100C90001BF80500FFF772FD681C85B2601CC4B22A
:100CA0000E2CF5DB781CC1B25046FFF7B7FD0024CF
:100CB00007E01BF80500FFF761FD681C85B2601CAA
:100CC000C4B20E2CF5DB1CE0701CC6B2394650468F
:100CD000FFF7A4FD002404E00020FFF74FFD601C97
:100CE000C4B2102CF8DB781CC1B25046FFF796FD59
:100CF000002404E00020FFF741FD601CC4B2102C6A
:100D0000F8DB0AF10E0000F0FF0AB01CC6B218F8BA
:100D1000060000288DD1BDE8F09F2DE9F05F8246E6
:100D20000F4690469946DDF828B00024002501269C
:100D30006CE00024012611E019F8040018F80510F1
:100D4000884209D109EB0400407808EB0501497895
:100D5000884201D1260105E0A01CC4B219F80400A4
:100D60007F28E9DC00BFBAF1760F03DD4FF0000AFF
:100D7000781CC7B239465046FFF750FD012E22D0ED
:100D800039465046FFF74AFD002407E01BF80600ED
:100D9000FFF7F4FC701C86B2601CC4B2102CF5DBAB
:100DA00007F10800C1B25046FFF738FD002407E004
:100DB0001BF80600FFF7E2FC701C86B2601CC4B290
:100DC000102CF5DB1CE0681CC5B239465046FFF715
:100DD00025FD002404E00020FFF7D0FC601CC4B215
:100DE000102CF8DB781CC1B25046FFF717FD002429
:100DF00004E00020FFF7C2FC601CC4B2102CF8DB3A
:100E00000AF1100000F0FF0AA81CC5B218F805008E
:100E100000288ED1BDE8F09F2DE9FC4706468846A4
:100E2000154699460A9F002438E0285D7F2817DD83
:100E3000285D8DF80400281940788DF80500002001
:100E40008DF806005C485D4B01AA41460090304693
:100E5000FFF763FF06F11000C6B2A01CC4B21DE08C
:100E6000285D8DF8040000208DF80500012F09D1C0
:100E7000534B01AA41463046FFF78EFE06F10800AB
:100E8000C6B209E0032F07D14E4B01AA41463046B6
:100E9000FFF74DFEB01DC6B2601CC4B2285D00282D
:100EA000C3D1BDE8FC872DE9F04180460F461646C8
:100EB0000024002539464046FFF7B0FC00BF06E09D
:100EC000705DFFF75BFC681CC5B2601CC4B2102CDF
:100ED000F6DB07F10800C1B24046FFF79FFC002493
:100EE00006E0705DFFF74AFC681CC5B2601CC4B226
:100EF000102CF6DBBDE8F0812DE9FC5F82460C4644
:100F00009146E01001902046E11704EB5171C910A1
:100F1000A4EBC10189B20091002624E0F1B20020C7
:100F2000FFF791FC4FEAC60B002718E00025A84602
:100F30000DE06D100BEB080000FB09A0C05D01285F
:100F400001D145F0800508F101001FFA80F8B8F1E1
:100F5000080FEEDB2846FFF711FC781C87B24F45DF
:100F6000E4DB701C86B201988642D7DBF1B2002028
:100F7000FFF769FC4FEAC60B002719E00025A846D9
:100F80000DE06D100BEB080000FB09A0C05D01280F
:100F900001D145F0800508F101001FFA80F80098A2
:100FA0008045EEDB0098C0F108000541781C87B24F
:100FB0004F45E3DBBDE8FC9FBB4E0008364E000802
:100FC000FB5600080E4C00087FB5002400F044FEDC
:100FD000054603F003FC0446B4F5FA7F00DD002467
:100FE000642094FBF0F03030C0B20190642094FB98
:100FF000F0F100FB11400A2190FBF1F03030C0B25B
:1010000003900A2094FBF0F100FB11403030C0B295
:1010100002900120022301AA242100900820FFF75A
:10102000FBFE0120022303AA242100901020FFF7D9
:10103000F3FE0120022302AA242100901820FFF7CA
:10104000EBFE012002234AA2242100902820FFF772
:10105000E3FE7FBD70B5002400F0FEFD054603F001
:10106000BDFB0446192C0EDA8220424908604FF479
:101070009670FFF76FFB4FF47A70FFF7D2F95A20A2
:101080003C49086003E04FF49670FFF763FB70BDC6
:101090002DE9F041002400250026322C37DCB42055
:1010A000344908604FF4FA70FFF7BBF900F0D4FD43
:1010B000074603F093FB0446254600202D490860AF
:1010C0004FF4FA70FFF7ADF900F0C6FD074603F0E4
:1010D00085FB044626465A20264908604FF4FA70DC
:1010E000FFF79FF91E2D06DA1E2E04DA4FF4FA7070
:1010F000FFF797F90CE0B54204DB4FF4FA70FFF705
:1011000090F905E04FF4FA70FFF78BF900E000BFAB
:10111000BDE8F08170B5002400F003FE054603F041
:1011200079FB84B2282C21DC37201249086041F277
:101130007070FFF776F941F27070FFF772F941F2C3
:101140007070FFF76EF978200A49086041F27070FC
:10115000FFF767F941F27070FFF763F941F27070C1
:10116000FFF75FF95A200349086000E000BF70BD37
:10117000434D00004C00002010B54FF4807001F08A
:101180002DFA012821D12548007802281DDA2348AC
:10119000007858B901202249086000202149C1F88F
:1011A000800101201E492839086009E000201C49FF
:1011B00008601C49C1F880010120194928390860DC
:1011C00016480078401C154908704FF4807001F0F3
:1011D00016FA10BD0EB50821002001F08FFB4FF468
:1011E0008070019000208DF8080008208DF809001B
:1011F00001208DF80A0001A801F08AF917208DF866
:10120000000000208DF801008DF8020001208DF80B
:101210000300684600F0DDFE0EBD0000480000201F
:10122000A88121420080214270B5002600240025BB
:10123000012080F3108800BF00F076FE06460020F3
:1012400080F3108800BF112E49D2DFE806F048096C
:101250000A0E1213171B1F23313D3E3F4048440026
:1012600041E000207A4908603DE0002078490860AC
:1012700039E038E001207649086034E00420744900
:10128000086030E00220724908602CE003207049B9
:10129000086028E06F48006864306E4908600846BE
:1012A0000068B0F57A7F02DD4FF47A7008601AE0CA
:1012B0006848006864386749086008460068642820
:1012C00001DA642008600EE00DE00CE00BE009207C
:1012D0005F49086007E00A205D49086003E00020DC
:1012E0005B49086000BF00BF0B2E01D00C2E52D10D
:1012F000072000F050FE0446082000F04CFE054692
:10130000052D07DA502C05DDB42C03DA01205049F5
:10131000086040E0E62D07DD502C05DDB42C03DA33
:1013200002204B49086036E0052C07DA502D05DD18
:10133000B42D03DA0320464908602CE0502D07DD68
:10134000B42D05DAE62C03DD04204149086022E0D3
:10135000502D05DC502C03DC05203D4908601AE0C7
:10136000502D05DCB42C03DB06203949086012E05F
:10137000502C05DCB42D03DB0720354908600AE05A
:10138000B42D05DBB42C03DB08203149086002E0F2
:1013900000202F49086070BD10B55A202E49086002
:1013A0002B4800680B284BD2DFE800F0060C241411
:1013B0001C384139422C3200FFF7D8F96420264905
:1013C000086043E064202449086022480068FFF771
:1013D000C1F93BE04120204908601E480068FFF742
:1013E000B9F933E087201C4908601A480068FFF704
:1013F000B1F92BE064201849086016480068FFF72F
:10140000AFF923E001221146104600F0D7FC1DE0A1
:1014100000221146104600F0D1FC17E016E04120F2
:101420000D4908600B480068FFF79AF90EE00DE0DF
:1014300087200949086007480068FFF791F905E02F
:10144000FFF794F964200449086000BF00BF10BD95
:10145000BC000020B80000204C00002010B500F0B7
:10146000ACF800F029F800F06BF84821092000F0F2
:10147000FFF84FF4E130FFF716F85A200D490860E5
:10148000FEF792FFFEF7FAFF00F0EFF9FFF768FAB8
:1014900000F0F8F900F006FA00F06CF800F095FBA7
:1014A0004FF41650FFF74BF800F0BDFC00F0BAF80F
:1014B00010BD00004C00002008B50121382001F0CB
:1014C000C3FB4FF40060ADF8000010208DF803005E
:1014D00003208DF802006946604801F0F9F84FF4E6
:1014E00000615E4801F0A1F94FF48050ADF80000B2
:1014F00069465A4801F0ECF84FF48051574801F022
:1015000094F90420ADF800006946554801F0E0F870
:101510000421534801F089F90121092001F094FBCD
:101520000121504801F0A5F90820ADF800006946F6
:101530004D4801F0CDF808214B4801F076F908BD7F
:1015400008B50121082001F07FFB0121084601F0C8
:101550007BFB0121434801F08CF91020ADF800001D
:101560008DF8030003208DF8020069463E4801F023
:10157000AFF808BD08B50121042001F065FB10207B
:10158000ADF800008DF8030003208DF802006946D5
:10159000364801F09DF80121042001F055FB202080
:1015A000ADF8000004208DF8030003208DF8020040
:1015B00069462E4801F08CF808BD08B501210420C9
:1015C00001F042FB0220ADF8000010208DF803006E
:1015D00003208DF802006946244801F079F80121C2
:1015E000042001F031FB4020ADF8000010208DF800
:1015F000030003208DF8020069461C4801F068F8DA
:101600000121042001F020FB8020ADF80000102013
:101610008DF8030003208DF802006946134801F09D
:1016200057F808BD08B50121102001F00DFB4FF45B
:101630000050ADF8000048208DF8030003208DF81D
:1016400002006946054801F043F800BF4FF400511D
:10165000024801F0D0F80028F8D108BD0010014080
:101660000014014000023000000C0140000801405D
:101670007FB504460D460121C80201F0E5FAADF838
:101680000840681E80B2ADF804000020ADF80A00E2
:10169000ADF806008DF80C0001A9504801F00CFCD3
:1016A000012211464D4801F07EFF19208DF80000FF
:1016B00000208DF8010003208DF8020001208DF834
:1016C0000300684600F085FC0121444801F050FF0A
:1016D0007FBD10B5424800684000424908600121C2
:1016E0003E4802F00EFA002877D001213B4802F074
:1016F00019FA3D480068401C3B4908603B480068B7
:10170000401C3A4908603A48006800EB400101EB90
:10171000C00000F5FA700A2190FBF1F03249096827
:10172000884204DB1021334801F07FF803E01021E8
:10173000304801F07CF830480068012821D12A485F
:1017400000682849096888420FDC00202B4908609E
:1017500001202B49C1F888012A4908600020091F8F
:1017600008600120284908600BE000202349086038
:101770002349C1F8880123490860091F08602249EC
:1017800008601D48006800BB1748006815490968D3
:1017900088420EDC01201949086000201849C1F870
:1017A0008801184908600120091F0860174908606E
:1017B0000BE00020114908601149C1F88801114966
:1017C0000860091F08601149086007480068B0F503
:1017D000FA6F02D100200449086010BD002C0140BE
:1017E000300000206C000020640000206800002011
:1017F0004C000020000C0140340000208C8121426C
:1018000000802242B001224240000020440000201B
:1018100008B50121192001F017FA0121154801F03E
:1018200028F80121144801F024F8C020ADF8000088
:1018300010208DF8030003208DF8020069460F4840
:1018400000F046FF40F20130ADF8000010208DF8A6
:10185000030003208DF802006946094800F038FFB4
:101860000121074800F0E3FF08BD10B5FFF7D0FFE6
:1018700010BD00000004300000023000000C0140E8
:101880000010014008B50121102001F0DDF9102001
:10189000ADF8000000208DF803006946914800F083
:1018A00017FF08BD00B585B001214FF4047001F0A9
:1018B000CBF94FF4004001F02BF9FFF7E3FF8A4822
:1018C00000F0F0FB002000908DF804008DF805007A
:1018D0004FF4602002900020039001208DF810004A
:1018E0006946814800F005FC01217F4800F02DFC8D
:1018F0007D4800F04CFC00BF7B4800F04DFC002808
:10190000FAD1794800F052FC00BF774800F053FC50
:101910000028FAD105B000BD10B504460723012206
:101920002146714800F07DFC01216F4800F04DFC1C
:1019300000BF02216C4800F0B9FD0028F9D06A48C8
:1019400000F0D6FC10BD2DE9F04107460C460025FD
:10195000002608E03846FFF7DFFF05440520FEF7C4
:1019600060FD701CC6B2A642F4DBB5FBF4F080B299
:10197000BDE8F0812DE9F0470A210E20FFF7E3FFD3
:101980008146484602F07EFF824602F0CBFD0746C4
:101990004FF06632554B02F0C7FC054602F026FBBD
:1019A00004462046BDE8F0872DE9F041FFF76AFFC5
:1019B000FFF7E0FF0446204602F0B4FD0546002292
:1019C0004B4B02F0B1FC074602F010FB04462046E8
:1019D000BDE8F0812DE9F04186B0FFF7E5FF07464D
:1019E000384602F0FBFE0A2190FBF1F03030C0B225
:1019F0000590384602F0F2FE0A2190FBF1F201FB5D
:101A000012003030C0B20490384602F0E7FE804643
:101A100002F020FF0646394603F079F805463549BD
:101A200002F078FF044602F0D9FE0A2190FBF1F2A1
:101A300001FB12003030C0B20390384602F0CEFEF7
:101A4000804602F007FF0646394603F060F8054677
:101A5000294902F05FFF044602F0C0FE0A2190FB14
:101A6000F1F201FB12003030C0B2029001200223DB
:101A700022A2002100900846FFF7CEF901200223A0
:101A800005AA102100900820FFF7C6F901200223C3
:101A900004AA102100900846FFF7BEF90120022396
:101AA00019A2102100901820FFF7B6F90120022397
:101AB00003AA102100902020FFF7AEF90120022395
:101AC00002AA102100902820FFF7A6F90120022386
:101AD0000EA2102100903020FFF79EF906B0BDE85D
:101AE000F0810000001001400024014066664A3F7A
:101AF00000001040000020410000C842D1C7B2A938
:101B0000D6C7C4DC000000002E000000B7FCCCD813
:101B1000000000002DE9F05F0024A146A34649E043
:101B20001021A24800F081FE1420FEF756FC10217F
:101B30009E4800F07CFE00BF20219C4800F05BFE28
:101B40000028F9D00121880701F012FD0BF1010BEB
:101B500000BF2021954800F04EFE0128F9D0002159
:101B60004FF0804001F004FD4FF0804001F0B7FFDE
:101B700082468F49096801EB4102C2EBC1110AEBB1
:101B8000C10002F0BDFB074600228A4B02F060FA5A
:101B9000054602F02BFA04464946204602F0EEFCC8
:101BA000814600204FF080418884814908600120EF
:101BB000FEF737FCBBF1050FB2D17F49484602F072
:101BC0004BFD04462046BDE8F09F1FB501210846A5
:101BD00001F047F84FF0804001F09AF840F2E7300A
:101BE000ADF808004720ADF804000020ADF80A0069
:101BF000ADF8060001A94FF0804001F05DF9012227
:101C00001146900701F0CFFC4FF4A06000F0DCF922
:101C100000208DF801008DF802001C208DF80000D6
:101C200001208DF80300684600F0D3F900214FF041
:101C3000804001F09DFC1FBD10B50121880701F017
:101C400060FF40B10121880701F06CFF584800682F
:101C5000401C5749086010BD2DE9F04700BF102116
:101C6000524800F0E2FD1420FEF7B7FB10214F4868
:101C700000F0DDFD00BF20214C4800F0BCFD002835
:101C8000F9D00121880701F073FC00BF20214748EB
:101C900000F0B1FD0128F9D000214FF0804001F0A3
:101CA00067FC4FF0804001F01AFF04464049096884
:101CB00001EB4102C2EBC11104EBC10002F020FBB9
:101CC000074600223B4B02F0C3F9054602F08EF9AD
:101CD000814600204FF0804188843549086001200A
:101CE000FEF79FFB4846BDE8F08770B50B46002124
:101CF00013E04A1C0EE050F8215050F82260B54223
:101D000007D950F8214050F8225040F8215040F8AF
:101D10002240521C9A42EEDB491C5D1E8D42E8DCDB
:101D200070BD70B586B0142101A802F004F900243A
:101D300026E0FFF791FF054602E0FFF78DFF05461D
:101D4000284602F04BFDB0F5FA7FF6DA284602F09D
:101D500045FD0028F1D00021284602F0A7FE05D35A
:101D6000284602F03BFDB0F5FA7F09DA284602F07A
:101D700051FD01A941F82400641C0A20FEF751FB23
:101D8000052CD6DB0024052101A8FFF7AEFFDDE915
:101D900002010844049908440321B0FBF1F63046DF
:101DA00002F070FD0546284606B070BD00080140EF
:101DB0007000002000004D400000A04070B50646B5
:101DC0000C461546012E04D102210F4800F02DFDCE
:101DD00003E002210C4800F02AFD012C04D140212F
:101DE000094800F022FD03E04021074800F01FFDF4
:101DF000012D04D18021044800F017FD03E080216B
:101E0000014800F014FD70BD00080140014605E0E6
:101E1000002001E0421CD0B20A28FBDB0A00A1F13D
:101E20000101F5D1704708B501211C2000F00CFF1D
:101E30000120ADF8000010208DF8030003208DF87C
:101E400002006946564800F043FC0420ADF800004B
:101E500010208DF8030003208DF8020069465148D8
:101E600000F036FC0820ADF8000010208DF80300CB
:101E700003208DF8020069464A4800F029FC022040
:101E8000ADF8000048208DF8030003208DF8020013
:101E90006946444800F01CFC01204349086043495E
:101EA000C1F880014049091D086008BDF0B504462D
:101EB00001250026002723E004F0010018B10120CD
:101EC0003949086002E000203749086064100A20A0
:101ED000FFF79CFF0020364908600A20FFF796FFB5
:101EE0003448D0F8040108B17019C6B26806050E6E
:101EF00001202F4908600A20FFF788FF781CC7B22D
:101F0000072FD9DD0120284908603220FFF77EFF26
:101F10003046F0BD002004E00021274A1154411C46
:101F2000C8B20928F8DB704730B500240025FFF758
:101F3000F1FF00201C49091D086000BF07E01F4990
:101F4000485DFFF7B3FF1C494855681CC5B2092D11
:101F5000F5DB01201449091D08601748C0781649AF
:101F6000097940EA01201649088000240FE015484D
:101F700010F81400401E012101FA00F010490988F0
:101F8000084010B9601CC0B230BD601CC4B2102C37
:101F9000EDDB0020F8E701460748405C7047000091
:101FA0000008014000100140880122420000214247
:101FB0008001214200002242D80100207800002048
:101FC000740000208200002031490143314A116031
:101FD000704770B5002100230F22C47804B32D4C44
:101FE000246804F4E064C4F5E064210AC1F1040348
:101FF000CA40447804FA03F184781440214309016B
:10200000254C0678A155047804F01F050124AC4046
:1020100005786D11AD0005F1E025C5F8004109E036
:10202000047804F01F050124AC401C4D067876119D
:1020300045F8264070BD1A4A0A400243154B1B1F43
:102040001A60704739B1134A121D12680243114BCE
:102050001B1D1A6006E00F4A121D126882430D4BC9
:102060001B1D1A607047042808D14FF0E021096950
:1020700041F004014FF0E022116107E04FF0E02150
:10208000096921F004014FF0E0221161704700005E
:102090000000FA050CED00E000E400E080E100E063
:1020A00080FFFF1F10B50446FA48844208D1012181
:1020B000401500F0E3FD0021601500F0DFFD17E0A2
:1020C000F548844208D10121001500F0D7FD002118
:1020D000201500F0D3FD0BE0F048844208D1012127
:1020E000C80300F0CBFD00214FF4004000F0C6FD16
:1020F00010BD30B50246002000235068E84C204057
:102100000D790C6844EA0524204350609068E54C42
:102110002040D1E902542C434D7944EA4504204340
:102120009060D06A20F470000C7C641EE4B22343FB
:1021300040EA0350D06230BD00210160017141715D
:102140008160C16001210174704721B1826842F051
:102150000102826003E0826822F00102826070471F
:1021600021B1826842F48072826003E0826822F4C6
:1021700080728260704710B50023CBB21AB14468F8
:102180001C43446002E044689C43446010BD816885
:1021900041F0080181607047014600208A6802F022
:1021A00008020AB1012000E000207047816841F078
:1021B000040181607047014600208A6802F0040231
:1021C0000AB1012000E00020704721B1826842F48A
:1021D000A002826003E0826822F4A002826070475D
:1021E000014600208A6802F480020AB1012000E062
:1021F0000020704710B50A4600210023416821F4F1
:102200006041531E41EA4331416010BD21B1426833
:1022100042F40062426003E0426822F400624260DD
:102220007047F0B504460D4600200021092D11DD50
:10223000E068A5F10A0606EB4607072606FA07F14D
:102240008843A5F10A0606EB460603FA06F10843A1
:10225000E0600CE0206905EB4507072606FA07F168
:10226000884305EB450603FA06F108432061072A77
:102270000FDA606B561E06EB86071F2606FA07F17B
:102280008843561E06EB860605FA06F1084360638E
:1022900022E00D2A0FDA206BD61F06EB86071F26D9
:1022A00006FA07F18843D61F06EB860605FA06F103
:1022B0000843206310E0E06AA2F10D0606EB8607F2
:1022C0001F2606FA07F18843A2F10D0606EB8606E3
:1022D00005FA06F10843E062F0BD21B1826842F4DC
:1022E0008012826003E0826822F48012826070476C
:1022F0000146C86C80B2704766484C300068704731
:1023000021B1426842F48062426003E0426822F4F4
:1023100080624260704721B1426842F4805242605C
:1023200003E0426822F48052426070470A4600216E
:10233000816821F4E04111438160704721B18268D6
:1023400042F40042826003E0826822F4004282602C
:10235000704721B1826842F40212826003E0826811
:1023600022F4021282607047014600208A6802F45B
:1023700000120AB1012000E000207047F0B50446C9
:102380001546002000220026092911DDE068A1F190
:102390000A0707EB470C072707FA0CF29043A1F155
:1023A0000A0707EB470703FA07F21043E0600CE067
:1023B000206901EB410C072707FA0CF2904301EB6F
:1023C000410703FA07F210432061A06BC0F30156E6
:1023D000EF1C06F1010CA7EB0C0707EB870C1F277E
:1023E00007FA0CF29043EF1C06F1010CA7EB0C0767
:1023F00007EB870701FA07F21043A063F0BD10B5A1
:102400000A4600210023816B21F44011531E41EA4A
:102410000351816310BD08B5002300930090009B19
:102420000B440093009B1A6008BD08B502460020CB
:102430000090009201F12800009B18440090009841
:10244000006880B208BD0A4600214168164B194059
:102450001143416070474162826270470A46002121
:10246000416821F01F0111434160704740B10949A3
:102470000831096841F40001064A0832116007E09A
:1024800004490831096821F40001024A0832116048
:10249000704700000024014000280140003C01403A
:1024A000FFFEF0FFFDF7F1FFFFFD3FFF02460020BA
:1024B00013680B400BB1012000E000207047CA43B5
:1024C0000260704770B502460020002300240B1202
:1024D0005568CEB205EA060415681D4015B10CB169
:1024E000012000E0002070BD00220A12D3430360E7
:1024F00070470000002044490860091D0860091D5C
:102500000860091D086041483F4914310860704760
:1025100000213D498279002A3AD00A4612680368B0
:102520009A430B461A600A1D126803689A430B1DF2
:102530001A60027911440A6803681A430A60324A31
:102540000832126803689A432F4B08331A601A1D29
:10255000126803689A432C4B0C331A604279102A94
:102560000ED11A1F126803681A43274B08331A60EA
:102570001A1D126803681A43234B0C331A600DE0CE
:102580002149427911440A6803681A430A6005E048
:10259000027911440A6803689A430A60704700216F
:1025A000016001710C214171002181717047164950
:1025B000103109680143144A103211607047014616
:1025C0000020114A143212680A400AB1012000E0CA
:1025D000002070470C491431086070470146002004
:1025E0000022094B1B6803EA0102074B14331B68E6
:1025F0000B4013B10AB1012000E0002070470249EE
:10260000143108607047000000040140FFFF0F0014
:1026100010B50446CC48844208D10121042000F0C2
:102620002DFB0021042000F029FB46E0C74884422E
:1026300008D10121082000F021FB0021082000F032
:102640001DFB3AE0C248844208D10121102000F06D
:1026500015FB0021102000F011FB2EE0BD48844244
:1026600008D10121202000F009FB0021202000F0EA
:1026700005FB22E0B848844208D10121402000F047
:10268000FDFA0021402000F0F9FA16E0B348844238
:1026900008D10121802000F0F1FA0021802000F013
:1026A000EDFA0AE0AE48844207D10121801500F01E
:1026B000E5FA0021A01500F0E1FA10BD10B50121E6
:1026C000084600F0DBFA0021012000F0D7FA10BD27
:1026D0002DE9F041024600250026002000230024B9
:1026E000002791F803C00CF00F0591F803C00CF01F
:1026F000100CBCF1000F03D091F802C04CEA0505A4
:1027000091F800C0BCF1000F31D0146800202BE01C
:102710004FF0010C0CFA00F3B1F800C00CEA03060C
:102720009E4220D183004FF00F0C0CFA03F7BC43FC
:1027300005FA03FC4CEA040491F803C0BCF1280F2D
:1027400006D14FF0010C0CFA00FCC2F814C00AE0EC
:1027500091F803C0BCF1480F05D14FF0010C0CFA01
:1027600000FCC2F810C0401C0828D1D31460B1F896
:1027700000C0BCF1FF0F34DD546800202EE000F1F2
:10278000080C4FF0010808FA0CF3B1F800C00CEA8D
:1027900003069E4221D183004FF00F0C0CFA03F781
:1027A000BC4305FA03FC4CEA040491F803C0BCF1F5
:1027B000280F05D100F1080C08FA0CF8C2F81480B3
:1027C00091F803C0BCF1480F07D100F1080C4FF09D
:1027D000010808FA0CF8C2F81080401C0828CED373
:1027E0005460BDE8F0814FF6FF71018002218170D5
:1027F0000421C17070470246002093680B400BB162
:10280000012000E0002070470146886880B27047D0
:1028100002460020D3680B400BB1012000E00020ED
:1028200070470146C86880B27047016170474161D6
:1028300070470AB1016100E041617047C1607047B3
:102840004FF480320A4382618161826182698269C8
:10285000704702460020434B18684FF680731840BB
:1028600040EA021008433F4B186070473E49C86178
:102870007047F0B50A46002300240021002500F02F
:102880000046B6F1004F02D1364EF16901E0354EF7
:102890007168C0F3034583B200F44016B6F5401FDB
:1028A00008D121F070612F4E766826F070662D4FAA
:1028B0007E6012E000F48016B6F5801F06D1032674
:1028C00006FA05F4A14341F0706106E0460D3601B9
:1028D00003FA06F6B14341F0706122B1460D3601AC
:1028E00003FA06F6314300F00046B6F1004F02D17C
:1028F0001C4EF16101E01B4E7160F0BD30B500224D
:102900008B071C0F0F2303FA04F2164B08338C10AD
:1029100053F824309343134C08348D1044F8253079
:1029200023468C1053F824308C07240F00FA04F44B
:1029300023430C4C08348D1044F8253030BD0A492F
:10294000DC3108607047000000080140000C0140C5
:10295000001001400014014000180140001C01401B
:10296000002001400000014000002042DF480068D4
:1029700040F00100DD49086008464068DC49084035
:10298000DA49486008460068DA490840D7490860D3
:102990000846006820F4802008600846406820F45B
:1029A000FE0048604FF41F0088607047CF490968F7
:1029B00021F48031CD4A11601146096821F480214B
:1029C0001160B0F5803F03D0B0F5802F0ED106E046
:1029D000C649096841F48031C44A116007E0C3491F
:1029E000096841F4A021C14A116000E000BF00BFA6
:1029F000704710B501460022002300204A11012A29
:102A000002D1BA4C236806E0022A02D1B74C236AED
:102A100001E0B64C636A01F01F02012494401C409F
:102A20000CB1012000E0002010BD38B5002000905E
:102A30000024002500BF3120FFF7DBFF054600988A
:102A4000401C00900098B0F5A06F01D0002DF2D08E
:102A50003120FFF7CEFF08B1012400E0002420461A
:102A600038BD01460020A14A106820F0F80040EA75
:102A7000C10010607047A0490860704702460020FE
:102A80009A4B586820F47C1042EA01031843974B94
:102A90005860704798490866704701460020934A7D
:102AA000506820F003000843506070478F4840682A
:102AB00000F00C007047014600208C4A506820F05E
:102AC000F00008435060704701460020874A506874
:102AD00020F4E06008435060704701460020834ABC
:102AE000506820F4605040EAC1005060704729B13E
:102AF0007E4A527A02437D4B5A7204E07B4A527AF4
:102B000082437A4B5A7270477B49D83108607047CC
:102B100001460020754A506820F440400843506048
:102B200070470021714A20321170704A82F82010DB
:102B3000012802D004280AD104E001216B4A203286
:102B4000117005E00521694A2032117000E000BFD4
:102B500000BF70476949086070476449096A0143CA
:102B6000624A11627047654944390860704730B560
:102B700000210022002400235C4D6D6805F00C014B
:102B800021B1042905D0082923D105E05C4D056059
:102B900022E05B4D05601FE0544D6D6805F4701236
:102BA000524D6D6805F48034022505EB92421CB944
:102BB000544D554305600BE04C4D6D6805F40035F0
:102BC0001DB1504D5543056002E04D4D5543056024
:102BD00002E04B4D056000BF00BF444D6D6805F03D
:102BE000F0010909484D6B5C0568DD4045603F4DCB
:102BF0006D6805F4E061090A434D6B5C4568DD4092
:102C000085603A4D6D6805F46051C90A3E4D6B5CB4
:102C10004568DD40C560354D6D6805F44041890B60
:102C20003A4D6B5CC568B5FBF3F5056130BD29B164
:102C30002E4A526902432D4B5A6104E02B4A5269D5
:102C400082432A4B5A61704729B1284A926902434C
:102C5000264B9A6104E0254A92698243234B9A618C
:102C6000704729B1214AD2690243204BDA6104E05E
:102C70001E4AD26982431D4BDA61704729B11B4A53
:102C8000D2680243194BDA6004E0184AD2688243E2
:102C9000164BDA60704729B1144A12690243134B8C
:102CA0001A6104E0114A12698243104B1A6170479D
:102CB00012494039086070470F49C86470470B4992
:102CC000C87170470948406A40F0807007494862FF
:102CD000704701460020054A92680A400AB1012067
:102CE00000E00020704701498872704700100240E0
:102CF0000000FFF8FFFFF6FE00004242800442425F
:102D000000127A0000093D00A2000020B20000205D
:102D100010B50446FE48844208D10121C014FFF7D3
:102D2000ADFF0021E014FFF7A9FFC4E0B4F1804F2C
:102D300008D101210846FFF7AEFF00210120FFF76F
:102D4000AAFFB8E0F348844208D101210220FFF72E
:102D5000A2FF00210220FFF79EFFACE0EE48844274
:102D600008D101210420FFF796FF00210420FFF77E
:102D700092FFA0E0E948844208D101210820FFF732
:102D80008AFF00210820FFF786FF94E0E448844290
:102D900008D101211020FFF77EFF00211020FFF74E
:102DA0007AFF88E0DF48844208D101212020FFF724
:102DB00072FF00212020FFF76EFF7CE0DA4884429A
:102DC00008D101214014FFF759FF00216014FFF7DB
:102DD00055FF70E0D548844209D10121C804FFF7AE
:102DE0004DFF00214FF40020FFF748FF63E0D0487B
:102DF000844209D101210805FFF740FF00214FF46B
:102E00008010FFF73BFF56E0CA48844209D10121F8
:102E10004805FFF733FF00214FF40010FFF72EFFA6
:102E200049E0C548844208D101214020FFF733FF23
:102E300000214020FFF72FFF3DE0C048844208D129
:102E400001218020FFF727FF00218020FFF723FFCB
:102E500031E0BB48844208D101218015FFF71BFFF8
:102E60000021A015FFF717FF25E0B648844209D1DD
:102E700001210804FFF702FF00214FF48030FFF723
:102E8000FDFE18E0B048844209D101214804FFF753
:102E9000F5FE00214FF40030FFF7F0FE0BE0AB48E9
:102EA000844208D101218804FFF7E8FE00214FF495
:102EB0008020FFF7E3FE10BD00220288944B984269
:102EC0000ED0994B98420BD0B0F1804F08D0914B67
:102ED000984205D0904B984202D0904B984204D132
:102EE0004FF68F731A404B881A438D4B984207D088
:102EF0008C4B984204D04FF6FF431A40CB881A43BC
:102F000002808B8883850B880385814B98420BD088
:102F1000854B984208D08B4B984205D08A4B9842FB
:102F200002D08A4B984201D10B7A03860123838217
:102F3000704770B5002400220023058C4FF6FE7602
:102F400035400584028C8388048B4FF68F752C40A6
:102F5000B51E2C400D882C43751E2A400D892A432E
:102F60004D882A436A4DA8420BD06F4DA84208D025
:102F7000744DA84205D0744DA84202D0734DA842AA
:102F800013D14FF6F7752A404D892A434FF6FB754A
:102F90002A408D882A434FF6FF652B404FF6FF5598
:102FA0002B408D892B43CD892B4383800483CD888F
:102FB0008586028470BD70B5002400220023058C34
:102FC0004FF6EF7635400584028C8388048B48F6F3
:102FD000FF752C404FF6FF452C400D884FF6FF76CD
:102FE00006EA05252C434FF6DF752A400D8906EACF
:102FF00005152A434D8806EA05152A43444DA84283
:1030000002D0494DA8421DD14FF67F752A404D8907
:103010004FF6FF7606EA05152A434FF6BF752A409C
:103020008D8806EA05152A434FF6FF352B404FF2EF
:10303000FF752B408D8906EA85052B43CD8906EA6D
:1030400085052B4383800483CD880587028470BD6A
:1030500070B5002400220023058C4FF6FF66354032
:103060000584028C8388848B4FF68F752C404FF635
:10307000FC752C400D882C434FF6FF552A400D89D6
:103080004FF6FF7606EA05252A434D8806EA052510
:103090002A431F4DA84202D0234DA8421DD14FF212
:1030A000FF752A404D894FF6FF7606EA05252A432B
:1030B0004FF6FF352A408D8806EA05252A434EF64D
:1030C000FF752B404DF6FF752B408D8906EA0515DF
:1030D0002B43CD8906EA05152B4383808483CD8855
:1030E0008587028470BD70B5002200230024058C02
:1030F0004EF6FF7635400584038C8488828B48F633
:10310000FF752A404FF6FF452A400D8820E0000059
:10311000002C01400004004000080040000C00406A
:10312000001000400014004000340140004C0140F9
:10313000005001400054014000180040001C0040B5
:103140000020004000400140004401400048014090
:103150004FF6FF7606EA05252A434DF6FF752B400C
:103160000D8906EA05352B434D8806EA05352B43C4
:10317000FA4DA84202D0FA4DA84208D14BF6FF758D
:103180002C408D894FF6FF7606EA85152C43848006
:103190008283CD88A0F84050038470BD828B4FF2AB
:1031A000FF331A408283828B4FF6FF7303EA0123B9
:1031B0001A4382837047F0B50C4615460022002161
:1031C0000026078C4EF6FF7C07EA0C070784828BEB
:1031D000018C4FF6FF7707EA043640F6FF473A4086
:1031E0004FF6FF7707EA05273A434FF6FF7707EADE
:1031F00003373A43D94FB8420ED0D94FB8420BD01B
:10320000B0F1804F08D0D74FB84205D0D64FB84262
:1032100002D0D64FB84206D14DF6FF77394046F47A
:103220008057394305E047F6FF57394044F480574B
:10323000394382830184F0BD828B4FF6F3731A40C9
:103240008283828B0A4382837047F0B50C46154611
:10325000002200210026078C4FF6FF6C07EA0C07BE
:103260000784828B018C4FF6FF7707EA04264FF61E
:103270000C773A404FF6FF7707EA03172F433A439C
:10328000B64FB8420ED0B64FB8420BD0B0F1804F17
:1032900008D0B44FB84205D0B34FB84202D0B34FB4
:1032A000B84206D14FF6FF57394046F4807739438C
:1032B00005E04FF2FF57394044F480773943828369
:1032C0000184F0BD028B4FF2FF331A400283028B60
:1032D0004FF6FF7303EA01231A4302837047F0B5E8
:1032E0000C461546002200210026078C4FF6EF7C85
:1032F00007EA0C070784028B018C4FF6FF7707EA79
:10330000041640F6FF473A404FF6FF7707EA0337C7
:103310003A434FF6FF7707EA05273A438F4FB84203
:103320000ED08F4FB8420BD0B0F1804F08D08D4FE8
:10333000B84205D08C4FB84202D08C4FB84206D16B
:103340004FF6DF77394046F01007394305E04FF676
:103350005F77394044F01007394302830184F0BDA0
:10336000028B4FF6F3731A400283028B0A430283E7
:103370007047F0B50C46154600220021068C4FF62A
:10338000FE773E400684028B018C4FF60C7632406D
:103390007E1C06EA03162E433243704EB0420ED016
:1033A0006F4EB0420BD0B0F1804F08D06D4EB0429E
:1033B00005D06D4EB04202D06C4EB04206D14FF6F1
:1033C000FD76314044F00106314305E04FF6F576D5
:1033D000314044F00106314302830184F0BD70B5F1
:1033E00005460C465D4885420ED05D4885420BD0AF
:1033F000B5F1804F08D05B48854205D05A488542D8
:1034000002D05A48854200D100E000BF208850B960
:103410002389A28861882846FFF7ABFFE188284608
:10342000FFF79EFF25E0208804280AD12389A2887F
:1034300061882846FFF753FFE1882846FFF742FFDF
:1034400017E0208808280AD12389A28861882846A5
:10345000FFF7FBFEE1882846FFF7EEFE09E023892F
:10346000A28861882846FFF7A6FEE1882846FFF774
:1034700095FE70BD2DE9F04105460C46002601275A
:10348000608808B9022600E00026A088012801D142
:10349000022700E001272088A0B92389A28861883B
:1034A0002846FFF766FFE1882846FFF759FF238982
:1034B0003A4631462846FFF712FFE1882846FFF7D3
:1034C00001FF13E02389A28861882846FFF707FFE0
:1034D000E1882846FFF7F6FE23893A46314628461A
:1034E000FFF747FFE1882846FFF73AFFBDE8F08184
:1034F0000A884B881A438B881A43CB881A430B8956
:103500001A434B891A438B891A43A0F84420704709
:103510004FF6FF71818000210180C18041800172DE
:1035200070470021018041808180C18001814181FB
:103530008181C1817047002101804180012181800A
:103540000021C1800181704700210180418081807C
:10355000C18001814181818170470000002C0140C0
:10356000003401400004004000080040000C00400E
:1035700021B1028842F00102028004E002884FF685
:10358000FE731A400280704731B1B0F8442042F413
:103590000042A0F8442005E0B0F84420C2F30E0237
:1035A000A0F8442070471AB183890B43838102E05D
:1035B00083898B43838170478182704741EA02038C
:1035C000A0F8483070471AB183890B43838102E029
:1035D00083898B438381704701894FF6F8721140CC
:1035E000018170470A46002101894FF68F73194007
:1035F00011430181704730B504460D4629462046E7
:10360000FFF7F0FF208940F00700208130BD2DE951
:10361000F04104460D4616461F46602D06D13B4636
:10362000012231462046FFF75AFE05E03B460122C3
:1036300031462046FFF79DFE29462046FFF7D2FF80
:10364000208940F007002081BDE8F08130B50C46AC
:1036500000210189C9B24FF6FF7505EA032515431C
:1036600025432943018130BD2DE9F04105460E4631
:1036700017469846002443463A4631462846FFF707
:10368000E5FF2C894FF6F870044044F007044FF62C
:103690008F70044044F070042C81BDE8F081F0B5D7
:1036A00004460D4616461F463B46324629462046EE
:1036B000FFF7CCFF208940F480402081F0BD0185D8
:1036C000828270470A46002101884FF68F731940A5
:1036D000114301807047F0B50C4615461E46002187
:1036E000002200230189028B038C4FF6F8773940C2
:1036F00021434FF6FC473A4040F201173A434FF658
:10370000DD773B404FF6FF7707EA06172F433B4331
:10371000018102830384F0BD0A460021018B4FF62C
:103720008F7319401143018370470A460021018BB2
:1037300048F6FF7319404FF6FF7303EA022319435B
:10374000018370470A460021818B4FF68F73194021
:103750001143818370470A460021818B48F6FF732D
:1037600019404FF6FF7303EA022319438183704720
:1037700021B1028842F08002028004E002884FF604
:103780007F731A400280704721B1828842F00402A0
:10379000828004E082884FF6FB731A408280704773
:1037A00021B1828842F00802828004E082884FF6CC
:1037B000F7731A408280704721B1828842F001027B
:1037C000828004E082884FF6FE731A408280704740
:1037D0000A460021018B4FF6F7731940114301830C
:1037E00070470A460021018B4FF2FF7319404FF6D4
:1037F000FF7303EA02231943018370470A4600213D
:10380000818B4FF6F77319401143818370470A4645
:103810000021818B4FF2FF7319404FF6FF7303EACB
:1038200002231943818370470A460021018B4FF61A
:10383000FB7319401143018370470A460021018B35
:103840004FF6FF3319404FF6FF7303EA0223194383
:10385000018370470A460021818B4FF6FB731940A4
:103860001143818370470A460021818B4FF6FF3355
:1038700019404FF6FF7303EA02231943818370470F
:103880000A460021018B4FF67F73194011430183D3
:1038900070470A460021018BC1F30E014FF6FF73FA
:1038A00003EA02231943018370470A460021818BF2
:1038B0004FF67F7319401143818370470A460021F8
:1038C000818BC1F30E014FF6FF7303EA0223194304
:1038D000818370470A460021018C4FF6FD73194021
:1038E0001143018470470A460021018C4FF6F7739B
:1038F00019401143018470470A460021018C4FF69C
:10390000DF7319404FF6FF7303EA02131943018472
:1039100070470A460021018C4FF67F7319404FF61D
:10392000FF7303EA02131943018470470A4600211A
:10393000018C4FF6FF5319404FF6FF7303EA022341
:103940001943018470470A460021018C4FF2FF732E
:1039500019404FF6FF7303EA0223194301847047AD
:103960000A460021018C4DF6FF7319404FF6FF7394
:1039700003EA023319430184704730B50023012460
:103980008C40A3B2048C9C430484048C02FA01F59D
:10399000ADB22C43048430BD30B5002304248C40E8
:1039A000A3B2048C9C430484048C02FA01F5ADB2EA
:1039B0002C43048430BD70B5034600200024184613
:1039C000183001258D40ACB21D8CA5431D8409B172
:1039D000082909D100EB6100056825F07005056034
:1039E0000568154305600EE00D1FC5F34E0528441C
:1039F000056825F4E045056005684FF6FF7606EAA0
:103A000002263543056070BD21B1028842F00202F2
:103A1000028004E002884FF6FD731A40028070476E
:103A200021B1028842F00402028004E002884FF6CD
:103A3000FB731A400280704721B1828842F08002F5
:103A4000828004E082884FF67F731A40828070473C
:103A500002884FF6F7731A40028002880A430280F8
:103A6000704782884FF68F731A40828082880A439B
:103A70008280704702894FF6F8731A4002810289EA
:103A80000A430281704702894FF67F731A40028110
:103A900002890A430281704781847047818570479B
:103AA000818670470187704781877047A0F8401072
:103AB000704702884FF6FF431A40028002880A438B
:103AC000028070470146888E70470146088F704714
:103AD0000146888F70470146B1F8400070470146A3
:103AE000888C70470146088D704702460020138A73
:103AF0000B400BB1012000E000207047CA43028256
:103B0000704730B50246002000230024158A05EADC
:103B10000103958905EA010413B10CB1012000E00D
:103B2000002030BDCA4302827047000010B5044631
:103B3000FB48844209D101218803FFF79FF8002147
:103B40004FF48040FFF79AF832E0F648844209D1FA
:103B500001214804FFF79FF800214FF40030FFF7E0
:103B60009AF825E0F048844209D101218804FFF742
:103B700092F800214FF48020FFF78DF818E0EB4811
:103B8000844209D10121C804FFF785F800214FF4D0
:103B90000020FFF780F80BE0E548844208D10121BE
:103BA0000805FFF778F800214FF48010FFF773F84D
:103BB00010BD2DE9F04786B005460E460024A2460A
:103BC00000BFA1460027B08900B100BF2F462C8A54
:103BD0004CF6FF700440F08804432C82AC894EF60A
:103BE000F3100440B08831890843718908430443C5
:103BF000AC81AC8A4FF6FF400440B0890443AC82EC
:103C000001A8FEF7B4FFC648874202D1DDF810A034
:103C100001E0DDF80CA0A88900F4004040B10AEBF7
:103C2000CA0000EB0A1031684900B0FBF1F807E068
:103C30000AEBCA0000EB0A1031688900B0FBF1F80A
:103C40006420B8FBF0F004012009642101FB108915
:103C5000A88900F4004040B1322000EBC900B0FB5D
:103C6000F1F000F00700044308E0322000EB0910F7
:103C70006421B0FBF1F000F00F0004432C8106B08A
:103C8000BDE8F0874FF41651016000218180C180AA
:103C900001810C21418100218181704710B50246CC
:103CA0000020108A4FF2FF0318400B884C882343F2
:103CB0008C882343CC8823431843108210BD0021F5
:103CC000018041808180C180704721B1828942F4A6
:103CD0000052828104E082894DF6FF731A4082818E
:103CE0007047F0B50346002400260025002040F66A
:103CF0006A17B94200D100BF1846C1F3421401F05F
:103D00001F06012707FA06F5012C01D10C3004E04B
:103D1000022C01D1103000E014301AB107682F4393
:103D2000076002E00768AF430760F0BD1AB1838AFD
:103D30000B43838202E0838A8B4383827047028A2B
:103D40004FF6F0731A400282028A0A4302827047D9
:103D500082894FF2FF731A40828182890A438281ED
:103D6000704721B1828942F00202828104E0828997
:103D70004FF6FD731A4082817047028A4FF6DF7357
:103D80001A400282028A0A430282704721B1028AE3
:103D900042F48042028204E0028A4BF6FF731A402A
:103DA00002827047C1F3080282807047014688880A
:103DB000C0F308007047818941F00101818170479B
:103DC000028BD2B20283028B42EA01220283704745
:103DD000028B02F47F420283028B0A430283704704
:103DE00021B1828A42F02002828204E0828A4FF668
:103DF000DF731A408282704721B1828A42F010023A
:103E0000828204E0828A4FF6EF731A408282704702
:103E100021B1828A42F00802828204E0828A4FF64F
:103E2000F7731A408282704721B1828942F40042BE
:103E3000828103E08289C2F30E028281704721B140
:103E4000828A42F40062828204E0828A4FF2FF7327
:103E50001A4082827047828A4FF6FB731A40828230
:103E6000828A0A438282704721B1828A42F002022A
:103E7000828204E0828A4FF6FD731A408282704784
:103E800002460020B1F5007F00D100BF13880B402F
:103E90000BB1012000E00020704701F40072B2F580
:103EA000007F00D100BFCA430280704770B5024650
:103EB000002400230025002040F66A16B14200D1FC
:103EC00000BFC1F3421501F01F03012606FA03F3F8
:103ED000012D02D19689334006E0022D02D1168AC7
:103EE000334001E0968A33400C12012606FA04F4AE
:103EF0001688344013B10CB1012000E0002070BDE1
:103F000010B50022002340F66A14A14200D100BF80
:103F10000A1201249440A3B2DC43048010BD0000C7
:103F2000003801400044004000480040004C004080
:103F30000050004070474FF0000200B51346944611
:103F40009646203922BFA0E80C50A0E80C50B1F1F1
:103F50002001BFF4F7AF090728BFA0E80C5048BF05
:103F60000CC05DF804EB890028BF40F8042B08BFA3
:103F7000704748BF20F8022B11F0804F18BF00F89F
:103F8000012B704770477047704770470048704773
:103F9000E40100207546FFF7F9FFAE4605006946CB
:103FA000534620F00700854618B020B5FCF7FAF814
:103FB000BDE820404FF000064FF000074FF000082A
:103FC0004FF0000B21F00701AC46ACE8C009ACE8AB
:103FD000C009ACE8C009ACE8C0098D46704704468A
:103FE000AFF300802046FCF7C8F8000021F0004243
:103FF000A2F16052B2F5801F01F0004328BFD2F158
:104000007F6C0BD95FEA001C43EAC20242EB50709E
:1040100018BF704728BF20F001007047B2F5801F1D
:10402000BCBF184670474FEA410C1CF5001F02D276
:10403000084600F036BD70B500F020FA0000008997
:10404000FFF7F6BF4FF00040A0F58000704700007A
:104050002DE9C04130B4DFF8A0C23CEA111418BF0A
:104060003CEA131400F0EC8081EA03051CEA111409
:1040700044EAD57418BF1CEA131500F0C780A4EBFE
:1040800005044FF0004545EAC12145EAC32341EA52
:10409000505143EA525304F17F74994204F50034BD
:1040A0004FEAC0204FEAC22208BF904200F09C8035
:1040B0004FEA13650FF24016765D4FEA134506FB93
:1040C00005F7C7F1807706FB07F74FEAD737A7FB5D
:1040D00003687642C8F58038A7FB06CE38BFA8F142
:1040E000010807FB08E64FF0000EA6FB028CE6FB7A
:1040F00003CEDCF1000CCEF1004E38BFAEF1010E64
:10410000A6FB0C584FF000074FF00005E6FB0E87AA
:10411000A1FB08C6A0FB07CE16EB0E0645F1000575
:10412000E1FB076515F1E04E7EBFA4F580345FEA40
:1041300046066D4116F1800745F100054FEA172745
:104140004FEA066647EA0567A6F1DE46B6F1805FEC
:104150004FEA15251FD9384624F0010C05EBC47130
:10416000BCF1FE6F01EB0C1102D8F0BCBDE8008180
:1041700024425CBF01F5801E9EEAC47F02D4F0BCDD
:10418000BDE80081244238D4F0BCA1F1C041BDE8B3
:10419000004100F0C1B94FEAD22242EA43524FEA4D
:1041A000D323A7FB02864FEAD02040EA415007FB09
:1041B00003661EEA0E0F4FEAD12105FB026658BFC7
:1041C000A6EB0056B6EB00564FEA520E4EEAC37EFF
:1041D00018EB0E0E56EB530EBDD518EB02085E41E0
:1041E0007F1C55F10005B6E74FF480154FF000072E
:1041F0004FF000064FF00008ADE7F0BC4FF00000B4
:1042000001F1C04101F00041BDE8008111EA0C1F3D
:104210000CEA131500D00CE013EA0C1F00F0258007
:104220004FF00000F0BC81EA030101F00041BDE85D
:104230000081F0BCBDE8004181EA030100F06CB9E7
:10424000F0BCBDE8004170B500F018F9097EFC3EF5
:1042500000F007B881EA03014FF0000001F00041CF
:10426000704781EA030100F057B9F0BCBDE8004196
:104270004FF0000021497047FFFDFBF9F7F5F4F21C
:10428000F0EEEDEBE9E8E6E4E3E1E0DEDDDBDAD8F1
:10429000D7D5D4D3D1D0CFCDCCCBCAC8C7C6C5C44F
:1042A000C2C1C0BFBEBDBCBBBAB9B8B7B6B5B4B366
:1042B000B2B1B0AFAEADACABAAA9A8A8A7A6A5A451
:1042C000A3A3A2A1A09F9F9E9D9C9C9B9A99999815
:1042D0009797969595949393929191908F8F8E8EB8
:1042E0008D8C8C8B8B8A8989888887878685858445
:1042F00084838382828181800000FF070000F87F31
:10430000B0FA80F310FA03F10AD0C3F11D0303F5EC
:1043100080634FEA41504FEA035202EBD1217047CC
:104320004FF0000070470000DFF848C170B51CEA8C
:10433000111E1EBF1CEA13159EEA0C0F95EA0C0F06
:1043400000F06F8081EA030423EA4C134EEAD47E26
:1043500021EA4C1141F4801143F48013AE44A1FBD7
:10436000024CA0FB0365AEF17F7E361955EB0C05C0
:10437000A1FB034C4CF10003A0FB021C16EB0C0646
:10438000654153F10003094218BF46F0010613F4DA
:10439000007F0BD14FEA03314FEA0530340341EA85
:1043A000155140EA16506FF003020AE04FEAC321AC
:1043B0004FEAC520F40241EA555140EA56506FF0E9
:1043C000020202EB2E4201EB025585EACE710AD0C1
:1043D0005FEA440C18BF24F0004450F1000041F1A2
:1043E000000120EAD47040F2FE7C624500D270BD2C
:1043F000A84214BF4FF080444FF04044002E08BF45
:104400000024BEF1806FA8BFA1F1C041BDE870409B
:1044100080F282804FF0000001F1C04101F00041C4
:1044200070479EEA0C0F0CEA131518BF95EA0C0FA3
:1044300006D04FF0000081EA030E0EF0004170BD7F
:1044400000F01CF88900013E00F007B800F009B840
:104450004FEA430C5FEA5C5C08D081EA030100F09C
:104460005BB84FEA410C5FEA5C5CF6D14FF00000AC
:10447000014970470000FF070000F87F0EF1020EAF
:104480002EF0030E5EF8046B364205D4012A43EB8E
:10449000030515F5001F12D8012841EB010C1CF58E
:1044A000001F0CD80ED14FEAD17C15F5001F0CEB84
:1044B0004C0C0CF1020C08BF4CEBD37C04E04FF029
:1044C000080C01E04FEAD37C0CEB4C0526FA05F60C
:1044D00006F00706B6F1040C06D20EEB860CBDE81A
:1044E00070404CF0010C6047DFE80CF0090B020251
:1044F0004FF000414FF00000A1F5002170BD1946BA
:104500001046012851EB010418BFD4F5001484BFF4
:10451000002001F0004170BD0808A0F500114FEA2D
:104520003101704743004FEAD30C4FEA3C0C434043
:104530001FBF40070CF1605113F0FE4F70471CF095
:10454000006F03D100200CF0004170470CF00043D5
:1045500043EA507010B540EACC0000F05CFA00BFAE
:10456000000000924FEA0001FFF7D6BF4FF0004174
:104570004FF00000A1F500217047000090EA010F04
:1045800048BF81F0004100F1D482421A3CBF801A3A
:1045900089184FEAD0524FF07F4C1CEA410FA2EB32
:1045A000D15318BF9CEA026F00F03B804FF0004CE3
:1045B0004CEA00204CEA012121FA03FC10EB0C0C20
:1045C0001ED202F1FF325FEA1C2040EBC25038BF1E
:1045D00070471CF07F0F4FEA400C18BFBCF17F4FB3
:1045E00038BF7047C3F12003994008BF20F0010095
:1045F000BCF17F4F38BF7047A0F1C04000F051BA06
:104600004FEA3C00000A40EBC25028BF1CF0FF0FED
:104610004FEA400CE6D018BFBCF17F4F38BF70475F
:10462000EAE79CEA026F05D010EA5C0F08BF00F0D1
:104630000040704710B500F0EEF900BF64FBBE3ECD
:10464000401058BFC0F14040491058BFC1F140412F
:104650008142EFF3008070474FF47F0C1CEAD012C8
:104660001EBF1CEAD11392EA0C0F93EA0C0F00F064
:10467000858090EA010F48BF42F4807240F4000C3C
:1046800041F400002CF07F4120F07F4000B58142D2
:10469000A2EB03020FF2081CACEB504EC0F100007D
:1046A0009EF800E04FEA4E0E00FB0EFC38BF4900BA
:1046B0004FEA2C1C02F5FA020CFB0EF34FEACE1E59
:1046C0004FEA112C4FEAC1210EEB635E42EB22420E
:1046D0000EFB0CFC4FEA1C5300FB03114FEA112C9C
:1046E0004FEA01310EFB0CFC4FEADC4C00FB0C11D5
:1046F000C14228BF09184CEB03335DF804EB10EB03
:10470000410143EBC250B2F57C0F38BF704729D549
:1047100012F0F00F1CBF00F1C04000F000407047E5
:10472000008182838485868788898B8C8D8E8F918A
:104730009293959697999A9C9D9FA0A2A3A5A7A8AE
:10474000AAACAEB0B2B3B5B7B9BCBEC0C2C5C7C9DA
:10475000CCCED1D4D7D9DCDFE2E6E9ECF0F3F7FA3E
:10476000FE0000004FEA400C0CF1807CBCF17E4F53
:1047700028BF7047B0F1C04000F093B990EA010F34
:104780000CEAD11348BF42F48072624538BF6345DA
:1047900007D213F47F0F16D080EA010000F000402A
:1047A000704710B500F037F9097EFC3E00F005B8FF
:1047B00080EA010000F00040704780EA010000F04C
:1047C000004000F06EB912F47F0F04BF024870473A
:1047D00080EA010000F065B90000C07F41000B0EC7
:1047E000D3F19E0208D950F400034FEA032323FAC1
:1047F00002F048BF4042704710B500F00CF900BF0E
:1048000049922480002070476FF0004282EA200025
:1048100070470000C10DD1F19E0206DB4FEA002374
:1048200043F0004323FA02F07047004207D54FEAF5
:104830004001B1F1FE4F02D24FF00000704710B5B9
:1048400000F0E9F849922480002070476FEA2000C8
:104850007047000010F0004148BF4042B0FA80F3BA
:1048600010FA03F2C3F19D030BD051EAC35101EBDF
:104870001220530638BF704700F1010008BF20F036
:1048800001007047B0FA80F310FA03F2C3F19D0300
:104890000AD0D90501EB1220530638BF704700F14A
:1048A000010008BF20F001007047000050EA010C31
:1048B00000F113801CF5000F58BFBCF5000F01D4A8
:1048C0008842704707D710F5000F58BF11F5000F49
:1048D00015D488427047894270471CF5000F04D5F3
:1048E000BCF5000FF7D5814270474FF0807C1CEB80
:1048F000400F38BF1CEB410F01D28142704710B509
:1049000000F089F8922449004FF000504FF0805198
:10491000FFF796BE4FF47F0C1CEAD0121EBF1CEAB4
:10492000D11392EA0C0F93EA0C0F00F0478090EA43
:10493000010F48BF42F480724FF0004C4CEA002057
:104940004CEA012102EB0302A0FB0113A2F50002D5
:10495000002918BF43F001035B0028BF4FEA33036F
:1049600042EB22425FEA132C4CEBC2502EBFBCEB51
:10497000436FB2F57C0F70474FEA036CBCF1004FF8
:1049800008BF20F00100B2F57C0F38BF70470BD58F
:1049900082F0FF0212F5803FC8BF704700F1C040AF
:1049A000D8BF00F00040704700F5000C5FEA4C0CE7
:1049B00048BF7047B0F1C04000F073B890EA010FF3
:1049C0000CEAD11348BF42F48072624538BF634598
:1049D00004D280EA010000F00040704710B500F0FA
:1049E0001AF800BF8900013E00F007B800F009B8CE
:1049F0005FEA410C5FEA1C6C08D080EA010000F01D
:104A000050B85FEA400C5FEA1C6CF6D14FF00040F2
:104A1000A0F5800070470EF1020E2EF0030E5EF836
:104A2000044B244204D44FEA4102B2F17F4F11D823
:104A30004FEA4003B3F17F4F0CD80ED14FEAD07C40
:104A4000B2F17F4F0CEB4C0C0CF1020C08BF4CEB9D
:104A5000D17C04E04FF0080C01E04FEAD17C0CEB74
:104A60004C0324FA03F404F00704B4F1040C06D256
:104A70000EEB840CBDE810404CF0010C6047DFE801
:104A80000CF0070802024FF00040A0F5800010BDB6
:104A90000846420018BFD2F1807288BF00F0004083
:104AA00010BDFF2141EAD050C005704751EA000C0B
:104AB00000F113801CF5000F58BFBCF5000F01D4A6
:104AC0008142704707D711F5000F58BF10F5000F4E
:104AD00015D481427047894270471CF5000F04D5F8
:104AE000BCF5000FF7D5884270474FF0807C1CEB77
:104AF000410F38BF1CEB400F01D28842704780EA5B
:104B0000010081EA000180EA0100FFF7F8BE80F0B1
:104B1000004090EA010F7FF538AD81F0004100F0D0
:104B200008B8000090EA010F48BF81F000413FF54E
:104B30002CAD421A04D882F00042A0EB02001144CE
:104B40004FEAD0524FF07F4C1CEA410FA2EBD153F9
:104B500018BF9CEA026F4AD04FF0004C4CEA00208C
:104B60004CEA012121FA03FCB0EB0C0C0FD412F03B
:104B7000FE0F36D05FEA4C001DD5001240EBC2504C
:104B800038BF70471CF03F0F18BF70470BE0A2F111
:104B900001025FEA1C2040EBC25038BF70471CF096
:104BA0007F0F18BF7047C3F12003994014BF401E08
:104BB00020F00100704780084FEA122308BF7047B9
:104BC000B0FA80FCA2EB0C02CCF1280C60FA0CF0DD
:104BD00093EA122F04BF00EBC25070474FEAC37034
:104BE0007047130A5FEADC1008BF7047F6E79CEADB
:104BF000026F04D010EA5C0F08BF0020704710B5A8
:104C0000FFF709FF40DFF63E81F0004070470000EB
:104C1000000000000000002F000000000700070057
:104C200000147F147F1400242A7F2A120062640873
:104C300013230036495522500000050300000000F0
:104C40001C224100000041221C000014083E0814F0
:104C50000008083E0808000000A0600000080808DE
:104C60000808000060600000002010080402003EF8
:104C70005149453E0000427F400000426151494693
:104C8000002141454B31001814127F100027454583
:104C90004539003C4A494930000171090503003695
:104CA0004949493600064949291E000036360000A8
:104CB00000005636000000081422410000141414AD
:104CC00014140000412214080002015109060032A8
:104CD0004959513E007C1211127C007F49494936E6
:104CE000003E41414122007F4141221C007F494951
:104CF0004941007F09090901003E4149497A007F85
:104D00000808087F0000417F4100002040413F012A
:104D1000007F08142241007F40404040007F020C89
:104D2000027F007F0408107F003E4141413E007F2A
:104D300009090906003E4151215E007F09192946F3
:104D40000046494949310001017F0101003F4040CF
:104D5000403F001F2040201F003F4038403F00637D
:104D6000140814630007087008070061514945439F
:104D700000007F41410000552A552A55000041415D
:104D80007F00000402010204004040404040000057
:104D900001020400002054545478007F48444438F1
:104DA00000384444442000384444487F0038545478
:104DB000541800087E0901020018A4A4A47C007FF6
:104DC000080404780000447D4000004080847D0099
:104DD000007F102844000000417F4000007C041840
:104DE0000478007C0804047800384444443800FC0B
:104DF000242424180018242418FC007C0804040827
:104E000000485454542000043F444020003C40409B
:104E1000207C001C2040201C003C4030403C0044D2
:104E200028102844001CA0A0A07C004464544C44DA
:104E3000141414141414B2E2BEE0C0EBD6DCB3A414
:104E4000C3E6BBFDB6C8B8DFC6C2C4B6D2C7CBD1B5
:104E5000CBF7CEC0D0C7B4F3D0A1B2E9BCC7C2BCB7
:104E6000C9BEB3FDCFB5CDB3D6B5C9E8B5A5BCDBDA
:104E7000B9ABC7EAD4AAD1AFC3BFB5E7B3D8D1B9EC
:104E8000BEADCEB3A1E3A94FD0CDBAC5B0E6B1BE99
:104E9000CAA3D3E0BFD5BCE4B7B5BBD8CDCBB3F67E
:104EA000B1B1D1C7B2A9D6C7C4DCBFC6BCBCB4B40B
:104EB000BFCDBDCCD3FDB7FCCCD8001060028C00B8
:104EC000FE02F202FE00F800FF000004047E0180F2
:104ED00047300F10270047807F0000003E22E2226B
:104EE0003E00FE2222222222E20200203F201F1149
:104EF00011007F4444444444474000040404F484C3
:104F0000D4A5A6A4D484F40404040000FE02021272
:104F10003A1613121A3242827E00000000FE82927C
:104F20009292FE92929282FE00000080601F00002A
:104F30001E1212121E40807F00000080808080FFC1
:104F40008080A0908884828080800000000000FF24
:104F500040211204081020204040000202E22222D8
:104F6000F22E2222E22222E20202000000FF404052
:104F70007F4949497F4040FF000000202424A4FECF
:104F8000232220FC04040404FC000010080601FF96
:104F9000010680631901010933C0000000FC2424CC
:104FA00024FC252624FC242424040040308F808403
:104FB0004C55252525554C8080800004040404F4BC
:104FC0009495969494F4040404040000FE02027A7A
:104FD0004A4A4A4A4A7A0282FE00002020FF2020E4
:104FE00000F8888888FF8888A8180010301F088873
:104FF000601F80432C1028468180000808C848485C
:105000004849CE48484848C80808000000FF4444C2
:1050100044447F44444444FF000000008060F8079B
:10502000001CE0010600E01E000000010000FF007F
:10503000804020130C132040808000101010FF10BF
:105040009000FE9180FF8092FE00000444827F0168
:10505000008082462A132A4682800080602424240D
:10506000A4643F2424A42424A060000080482909CB
:105070004D8D7B0B09284C980000000002020202B3
:1050800002FE0202020202FE0000004040404040D8
:10509000407F404040414241404000000000BE2A65
:1050A0002A2AEA2A2A2A3E000000000044424949EE
:1050B00049497F494949494140000020202020209A
:1050C0002020FF2020202020202000808040201051
:1050D0000C0300030C102040808000000000E00062
:1050E0000000FF00000020408000000804030000D2
:1050F00040807F0000000000010E00404424A49482
:105100008C84FF848C94A4244440004040405F4A37
:105110004A4A4A4A4A4A5F40404000404042CC0026
:1051200000008484848484FC0000000000007F2050
:1051300010003F4040404041407000808082929289
:10514000929292929292FE8080800040402224109F
:1051500048807F040818242240400080FE8282FE9E
:1051600080FE8282FE8000F800FF00403F0020BFEA
:10517000403F40807F00004F807F0000FE225A8623
:1051800020102824E324281020200000FF040827F2
:10519000110D41817F010509310000000022322AF2
:1051A000A6A2622111098101000000004222130B16
:1051B00042827E02020A12234600002030AC633095
:1051C0000088C8A8998E88A8C88800226722121271
:1051D0008040300F00003F40407100008060F807C1
:1051E00004E4A4A4BFA4A4E4040000010000FF4060
:1051F000407F4A4A4A4A4A7F404000404042CC00F1
:1052000040A09E8282829EA02020000000003F904D
:105210008840432C102846418080000000F8494A0D
:105220004C48F8484C4A49F800000010101312127C
:105230001212FF1212121213101000008060F807F1
:105240004020900C030C9020404000010000FF0023
:1052500080601F000000FF00000000008040201858
:105260000680000718204080000000010020702800
:1052700026212020243860000101000000FE2020AB
:105280002000F2121AD61212F2020000001F0804C7
:1052900002804F20180710204F8000202022222259
:1052A000E2222222E2222222202000804020100C32
:1052B000030000003F404040407800404042CC00A6
:1052C00020D04C4B48C80808F800000000007F20A0
:1052D000101F1212125F80403F000020100CF312CA
:1052E000125292121212F20202000001011F111159
:1052F0001115195191513F111101000000F88888D2
:105300008888FF88888888F800000000001F080847
:1053100008087F888888889F80F000106002CC8011
:1053200080FC4020FF1008F800000004047E01000B
:10533000003F40404F4044474078000000FE02825A
:10534000828282FA8282828282020080601F4040D2
:105350004040407F404044584040002030AC6320F3
:105360001880824222121A264280002267221212DC
:1053700012404242427E42424240002030AC632012
:105380001800084848FF48484808002267221212BF
:105390001200020202FF0212221E000000000000A2
:1053A0000C12120C000000000000000000000000C1
:1053B00000000000000000000000000008F00808E5
:1053C000F00808F000223129260000000007000044
:1053D00007000007000000000000002022A27E223B
:1053E00022FE2222007C0000FF000044424948487F
:1053F00048497E484848494A414000808080BEA2D2
:10540000A2A2A2A2A2A2BE80808000000000060587
:105410000404044484443C0000000000FE20203FBB
:105420002000FC24E4242223E20000807F0101FF0D
:1054300080601F8041261826418000001010101047
:10544000D030FF30D01010101000001008040209F6
:105450000808FF0808090204081000484AFA0AFE72
:1054600009F949A80000F00000FF0022110B04FF19
:105470000409122300000F40807F008080402050EC
:105480004844C344485020408080000040221A0213
:1054900042827F0202020A12600000100C442414AF
:1054A0000405060404142444140C00004040414147
:1054B00041417F414141414040000000F801060068
:1054C000F0121212F2020202FE000000FF000000C1
:1054D0001F1111111F0040807F0000404042CC008E
:1054E00000FC24A4242222A36200000040201F20EC
:1054F00058475048454245485040000000FE0202CF
:10550000F2121212F20202FE00000000007F2020C0
:10551000272424242720207F000000404042CC0084
:1055200000FF4949C949497F8000000040201F20F1
:10553000405F48444041424558400000007C4040A4
:105540004040FF40404040FC000000007C404040A4
:1055500040407F4040404040FC0000002020202090
:10556000FF000000FF402010080000206020101005
:10557000FF0000003F4040404078000042820202AD
:10558000FE020202FE020202C2000040404146400A
:105590007F4040407F4044434040002020FF202483
:1055A000F4545454FF545556F404000000FF00080E
:1055B0000B1969090B49897D0B0800109453321EA1
:1055C000325210007E4242427E0000000000FF493D
:1055D000494949494949FF0000000008CC4A494867
:1055E0004ACC18007F88888482E00000FF121252A3
:1055F000927F00007E88888482E0002424A4FEA399
:10560000220022CC0000FF00000000080601FF007D
:10561000010404040404FF02020200101010FF1031
:105620009008888888FF88888808000444827F0161
:10563000808040432C1028468180004020D04C437D
:1056400044C8102000F80000FF000000003F404464
:1056500048474070000F40807F0000100C8444B425
:10566000A4252624A4642404140C00040404FA4A87
:105670004A4949494A4AFA0404040020A4A4A4FF60
:10568000A4B42884708F0808F80800040A49887EAA
:105690000504844020130C33408000040424B4AC7F
:1056A000A4A5A6A4A4A4B464040400000000FF0AF6
:1056B0000A0A0A0A4A8A7F00000000008060F80790
:1056C00020202020FF20222C202000010000FF802D
:1056D0004020180700071820408000403C10FF10B1
:1056E00010404848487F48C8484000020602FF0171
:1056F0000100020A1242827F020200000000000044
:105700000000000000000000000000000000F800A1
:10571000000000000000333000000000100C0610F4
:105720000C0600000000000000000040C07840C0EF
:10573000784000043F04043F040400007088FC0823
:10574000300000001820FF211E0000F008F000E0EB
:1057500018000000211C031E211E0000F0088870A4
:105760000000001E2123241927211010160E00000E
:105770000000000000000000000000000000E01831
:10578000040200000000071820400000020418E096
:105790000000000040201807000000404080F0801A
:1057A0004040000202010F01020200000000F00070
:1057B0000000000101011F010101000000000000C4
:1057C00000000080B0700000000000000000000039
:1057D00000000000010101010101010000000000C2
:1057E00000000000303000000000000000000080D9
:1057F000601804006018060100000000E0100808AE
:1058000010E000000F102020100F00001010F80012
:105810000000000020203F20200000007008080841
:105820008870000030282422213000003008888849
:105830004830000018202020110E000000C0201069
:10584000F8000000070424243F240000F80888889A
:105850000808000019212020110E0000E01088889F
:10586000180000000F112020110E0000380808C891
:105870003808000000003F000000000070880808A1
:10588000887000001C222121221C0000E010080862
:1058900010E0000000312222110F00000000C0C003
:1058A0000000000000003030000000000000800018
:1058B0000000000000806000000000000080402028
:1058C0001008000001020408102000404040404041
:1058D00040400004040404040404000008102040B4
:1058E0008000000020100804020100007048080831
:1058F00008F0000000003036010000C030C828E881
:1059000010E0000718272423140B000000C038E023
:10591000000000203C23020227382008F8888888ED
:10592000700000203F202020110E00C03008080821
:10593000083800071820202010080008F808080878
:1059400010E000203F202020100F0008F88888E891
:10595000081000203F20202320180008F88888E83D
:10596000081000203F200003000000C03008080895
:1059700038000007182020221E020008F808000046
:1059800008F808203F210101213F20000808F808FD
:105990000800000020203F2020000000000808F838
:1059A000080800C08080807F00000008F888C028B8
:1059B000180800203F20012638200008F8080000C1
:1059C000000000203F20202020300008F8F800F8D8
:1059D000F80800203F003F003F200008F830C000DA
:1059E00008F808203F200007183F00E010080808CA
:1059F00010E0000F10202020100F0008F808080801
:105A000008F000203F210101010000E01008080813
:105A100010E0000F18242438504F0008F8888888B8
:105A2000887000203F2000030C3020007088080898
:105A30000838000038202121221C00180808F80826
:105A40000818000000203F2000000008F8080000AF
:105A500008F808001F202020201F00087888000078
:105A6000C83808000007380E010000F80800F800E8
:105A700008F800033C0700073C0300081868808012
:105A800068180820302C03032C30200838C800C8C0
:105A90003808000000203F2000000010080808C857
:105AA0003808002038262120201800000000FE02BF
:105AB0000202000000007F40404000000C30C000A7
:105AC000000000000000010638C00000020202FED3
:105AD000000000004040407F00000000000402027F
