:020000040800F2
:10000000D807002089010008910100089301000829
:100010009501000897010008990100080000000000
:100020000000000000000000000000009B0100082C
:100030009D010008000000009F010008A1010008C8
:10004000A3010008A3010008A3010008A301000800
:10005000A3010008A3010008A3010008A3010008F0
:10006000A3010008A3010008A3010008A3010008E0
:10007000A3010008A3010008A3010008A3010008D0
:10008000A3010008A3010008A3010008A3010008C0
:10009000A3010008A3010008A3010008A3010008B0
:1000A000A30100089F110008A3010008A301000894
:1000B000A3010008A3010008A3010008A301000890
:1000C000A3010008A3010008A3010008A301000880
:1000D000A3010008F50500086F060008A301000849
:1000E000A3010008A3010008A301000800F002F822
:1000F00000F03AF80AA090E8000C82448344AAF188
:100100000107DA4501D100F02FF8AFF2090EBAE885
:100110000F0013F0010F18BFFB1A43F0010318473B
:10012000483D0000683D0000103A24BF78C878C1FF
:10013000FAD8520724BF30C830C144BF04680C60ED
:10014000704700000023002400250026103A28BF35
:1001500078C1FBD8520728BF30C148BF0B60704739
:100160001FB51FBD10B510BD02F0F1FD1146FFF720
:10017000F7FF00F0DDFA02F00FFE03B4FFF7F2FF25
:1001800003BC00F081F90000094880470948004796
:10019000FEE7FEE7FEE7FEE7FEE7FEE7FEE7FEE737
:1001A000FEE7FEE704480549054A064B7047000094
:1001B000A7020008ED000008D8010020D8070020A1
:1001C000D8030020D80300200CB500200190009037
:1001D0006C48006840F480306A49086000BF694894
:1001E000006800F4003000900198401C01900098D5
:1001F00018B90198B0F5A06FF1D16248006800F419
:10020000003010B10120009001E000200090009823
:10021000012843D15C48006840F010005A4908604A
:100220000846006820F0030008600846006840F0B7
:1002300002000860534840685249486008464068D8
:1002400048600846406840F480604860084640685E
:1002500020F47C1048600846406840F4E81048608C
:100260000846006840F08070086000BF454800689C
:1002700000F000700028F9D04248406820F00300E8
:10028000404948600846406840F00200486000BFAE
:100290003C48406800F00C000828F9D10CBD10B5AE
:1002A000FFF792FF10BD10B53648006840F001001E
:1002B000344908600846406834490840314948607C
:1002C00008460068324908402E4908600846006820
:1002D00020F4802008600846406820F4FE00486052
:1002E0004FF41F008860FFF7DAFF4FF000602949E4
:1002F000086010BD10B5002100200022214B5B6872
:1003000003F00C0121B1042906D0082928D107E007
:10031000214B224C236027E01F4B204C236023E01D
:10032000184B5B6803F47010164B5B6803F4803263
:10033000022303EB904022B9194B4343174C23602F
:100340000DE0104B5B6803F4003323B1144B4343BF
:10035000124C236003E0104B4343104C236003E036
:100360000D4B0E4C236000BF00BF064B5B68C3F310
:1003700003130C4CE15C094B1B68CB40074C23601A
:1003800010BD000000100240002002400000FFF8F5
:10039000FFFFF6FE08ED00E000127A0000000020EA
:1003A00000093D000400002010B56FF0040001F0CA
:1003B00018F82E4800682E49B0FBF1F02D4908705E
:1003C0000846007800EB4001C1EBC0104FF6FF710A
:1003D00001EAC0002849088010BD0146254A12786C
:1003E0004A434FF0E0235A6100229A611A4612698B
:1003F00042F001021A6100BF4FF0E022106900F0E4
:1004000001021AB100F48032002AF5D04FF0E02248
:10041000126922F001024FF0E0231A6100229A6172
:1004200070470146144A12884A434FF0E0235A614C
:1004300000229A611A46126942F001021A6100BF55
:100440004FF0E022106900F001021AB100F480328E
:10045000002AF5D04FF0E022126922F001024FF09D
:10046000E0231A6100229A6170470000000000201A
:1004700000127A00140000201600002010B54FF47E
:10048000A06000F05FFF10BD014600BF704700BFD5
:100490009D4A128802F04002002AF9D0C2B29A4B5B
:1004A0001B1D1A80704710B586B00446012144F226
:1004B000040001F0D1FA4FF40070ADF814000320ED
:1004C0008DF8160018208DF8170005A98F4801F047
:1004D00007F84FF48060ADF8140004208DF8170081
:1004E00005A98A4800F0FCFF25208DF800000320B4
:1004F0008DF801008DF8020001208DF80300684698
:1005000000F025FF01940020ADF80800ADF80A00C6
:10051000ADF80C00ADF810000C20ADF80E0001A9EC
:10052000794802F04EFA012240F22551764802F055
:10053000E0FA0121744802F0D0FA06B010BD10B5FF
:1005400086B004460121042001F086FA0121480406
:1005500001F08FFA0420ADF8140003208DF8160086
:1005600018208DF8170005A9684800F0B9FF082089
:10057000ADF8140004208DF8170005A9634800F0B9
:10058000AFFF26208DF8000003208DF801008DF8C4
:10059000020001208DF80300684600F0D8FE0194A7
:1005A0000020ADF80800ADF80A00ADF80C00ADF879
:1005B00010000C20ADF80E0001A9554802F001FA18
:1005C000012240F22551524802F093FA012150488D
:1005D00002F083FA06B010BD10B5044621464A4821
:1005E00002F0E8FA00BF8021474802F051FB0028E2
:1005F000F9D010BD10B540F22551434802F05EFB22
:1006000010B3414802F0DAFAC4B24248008800F45C
:100610000040C8B93F48008800F4804060B10A2C0F
:1006200003D000203B49088020E03A48008840F48D
:1006300000403849088019E00D2C06D13548008863
:1006400040F480403349088010E032480088C0F30D
:100650000D0031490C542F480088401C2D4908805A
:1006600008460088C72801DD0020088010BD10B5AD
:1006700000240821264802F00BFB30B10821244851
:1006800002F013FB224802F099FA2021204802F0E0
:10069000FFFA002836D040F225511D4802F038FB01
:1006A0001B48001D0088C4B2242C05D101201B4921
:1006B000087000201A49086018480078012803D102
:1006C00018481749096844541448007801280AD189
:1006D000232C08D1144908700020104908701048D4
:1006E0000068124908600E480068401C0C49086008
:1006F00008460068502805DB00200860074908709C
:100700000949087010BD0000003801400008014090
:100710000044004020000020AC0000202800002001
:10072000240000205C000020180000202C00002085
:1007300008B500F063FC26E00120022312A200218C
:100740000090084600F082FB0120022311A2102134
:100750000090002000F07AFB0320022310A2202149
:100760000090002000F072FB104A3021202000F0A1
:10077000B4FB0E4A3021084600F0AFFB0B4A302193
:10078000402000F0AAFBD7E7D1C7B2A9D6C7C4DC86
:1007900031323300B4B4BFCDBDCCD3FD31323300E0
:1007A000B4B4BFCD6162633132000000453E000841
:1007B00070B504460825A901F84800F03EFF402125
:1007C000F74800F03CFF15E004F0800020B18021E4
:1007D000F34800F032FF03E08021F14800F02FFFE2
:1007E0004021EF4800F029FF4021ED4800F027FFAD
:1007F0006006040E2800A5F10101CDB2E4D170BD60
:1008000070B504460825A901E44800F018FF40210E
:10081000E34800F014FF15E004F0800020B18021CF
:10082000DF4800F00AFF03E08021DD4800F007FF09
:100830004021DB4800F001FF4021D94800F0FFFED5
:100840006006040E2800A5F10101CDB2E4D170BD0F
:1008500070B504460D46B02101EBE501C8B2FFF7C3
:10086000CFFF102141EA1410FFF7CAFF04F00F0177
:1008700041F00100FFF7C4FF70BD70B504460D469E
:1008800005F1B001C8B2FFF7BBFF102141EA141017
:10089000FFF7B6FF04F00F00FFF7B2FF70BD70B5B1
:1008A0000646002415E004F1B001C8B2FFF7A8FF26
:1008B0000120FFF7A5FF1020FFF7A2FF002504E0AD
:1008C0003046FFF775FF681CC5B2802DF8DB601C51
:1008D000C4B2082CE7DB70BD70B5002415E004F14C
:1008E000B001C8B2FFF78CFF0120FFF789FF10208D
:1008F000FFF786FF002504E00020FFF759FF681C82
:10090000C5B2802DF8DB601CC4B2082CE7DB70BDDB
:1009100070B50446B02101EBE401C8B2FFF770FFE7
:100920000120FFF76DFF1020FFF76AFF002504E0AC
:100930000020FFF73DFF681CC5B2802DF8DB70BDBD
:100940002DE9F04104460D461646B02101EBE501C4
:10095000C8B2FFF755FF0120FFF752FF1020FFF745
:100960004FFF274604E00020FFF722FF781CC7B2A4
:10097000B742F8DBBDE8F08109E040F2375100BF33
:100980000A00A1F1010399B2FAD1421E90B20028E7
:10099000F3D1704710B54021814800F04EFE4FF46E
:1009A00080717E4800F04BFE3220FFF7E5FF4FF4E8
:1009B00080717A4800F041FEAE20FFF721FF002051
:1009C000FFF71EFF1020FFF71BFF4020FFF718FF67
:1009D0008120FFF715FFCF20FFF712FFA120FFF7BF
:1009E0000FFFC820FFF70CFFA620FFF709FFA82084
:1009F000FFF706FF3F20FFF703FFD320FFF700FFBD
:100A00000020FFF7FDFED520FFF7FAFE8020FFF75C
:100A1000F7FED920FFF7F4FEF120FFF7F1FEDA2010
:100A2000FFF7EEFE1220FFF7EBFEDB20FFF7E8FEFC
:100A30004020FFF7E5FE2020FFF7E2FE0220FFF74F
:100A4000DFFE8D20FFF7DCFE1420FFF7D9FEA42087
:100A5000FFF7D6FEA620FFF7D3FEAF20FFF7D0FEAC
:100A60000020FFF71CFF00210846FFF7F1FE10BD34
:100A700070B505460C462046E11704EB5171C910CC
:100A8000A4EBC10201219140CEB2B02101EBE401FF
:100A9000C8B2FFF7B5FE102141EA1510FFF7B0FE0E
:100AA00005F00F00FFF7ACFE3046FFF781FE70BD8A
:100AB00070B504460D461646B02101EBE501C8B2FB
:100AC000FFF79EFE102141EA1410FFF799FE04F093
:100AD0000F00FFF795FE3046FFF76AFE70BD2DE967
:100AE000F04707460C4690461D46DDF820A0E11071
:100AF0003846FFF7ADFE3E4613E0A146E11704EB92
:100B00005171C910A4EBC10201219140C8B2FFF795
:100B10004FFEBAF1010F02D13220FFF72DFF701CFA
:100B2000C6B24645E9DDE9103846FFF791FE3E467C
:100B300013E0A946E91705EB5171C910A5EBC102F5
:100B400001219140C8B2FFF733FEBAF1010F02D183
:100B50000520FFF711FF701CC6B24645E9DDBDE870
:100B6000F0872DE9F04704468846154699464FF030
:100B7000000A0026002724E0E85D203800F0FF0A84
:100B80007E2C04DD002408F1010000F0FF0841463E
:100B90002046FFF75DFE00260DE00000001001403A
:100BA000000C01400AEB4A0109EB4101885DFFF7A7
:100BB000FFFD701CC6B2062EF4DBA01DC4B2781C6B
:100BC000C7B2E85D0028D7D1BDE8F0872DE9F0472E
:100BD00006460F469046994600250024A24630E07E
:100BE00018F80A002038C5B2782E02DD0026781CDD
:100BF000C7B239463046FFF72BFE002406E009EB6A
:100C00000511085DFFF7D4FD601CC4B2082CF6DBAB
:100C100007F10800C1B23046FFF71AFE002407E0D2
:100C200009EB05112144087AFFF7C2FD601CC4B22C
:100C3000082CF5DB06F10800C6B20AF1010000F04D
:100C4000FF0A18F80A000028CAD1BDE8F0872DE98C
:100C5000F05F82460F4690469946DDF828B00024A2
:100C6000002601256DE00024012513E019F8040099
:100C700018F8061088420BD109EB04004178701C6B
:100C800018F80000814203D1C4EBC400450005E020
:100C9000A01CC4B219F804007F28E7DC00BFBAF139
:100CA000760F03DD4FF0000A781CC7B23946504674
:100CB000FFF7CEFD012D21D039465046FFF7C8FD84
:100CC000002407E01BF80500FFF772FD681C85B2E1
:100CD000601CC4B20E2CF5DB781CC1B25046FFF785
:100CE000B7FD002407E01BF80500FFF761FD681C55
:100CF00085B2601CC4B20E2CF5DB1CE0701CC6B2C1
:100D000039465046FFF7A4FD002404E00020FFF719
:100D10004FFD601CC4B2102CF8DB781CC1B25046E9
:100D2000FFF796FD002404E00020FFF741FD601C62
:100D3000C4B2102CF8DB0AF10E0000F0FF0AB01C60
:100D4000C6B218F8060000288DD1BDE8F09F2DE945
:100D5000F05F82460F4690469946DDF828B00024A1
:100D6000002501266CE00024012611E019F804009A
:100D700018F80510884209D109EB0400407808EB07
:100D800005014978884201D1260105E0A01CC4B2C2
:100D900019F804007F28E9DC00BFBAF1760F03DD03
:100DA0004FF0000A781CC7B239465046FFF750FD95
:100DB000012E22D039465046FFF74AFD002407E0B5
:100DC0001BF80600FFF7F4FC701C86B2601CC4B26E
:100DD000102CF5DB07F10800C1B25046FFF738FDD3
:100DE000002407E01BF80600FFF7E2FC701C86B247
:100DF000601CC4B2102CF5DB1CE0681CC5B239467F
:100E00005046FFF725FD002404E00020FFF7D0FC4A
:100E1000601CC4B2102CF8DB781CC1B25046FFF73E
:100E200017FD002404E00020FFF7C2FC601CC4B2E0
:100E3000102CF8DB0AF1100000F0FF0AA81CC5B264
:100E400018F8050000288ED1BDE8F09F2DE9FC4779
:100E500006468846154699460A9F002438E0285DD4
:100E60007F2817DD285D8DF80400281940788DF85B
:100E7000050000208DF806005C485D4B01AA414644
:100E800000903046FFF763FF06F11000C6B2A01CC9
:100E9000C4B21DE0285D8DF8040000208DF8050027
:100EA000012F09D1534B01AA41463046FFF78EFE70
:100EB00006F10800C6B209E0032F07D14E4B01AA84
:100EC00041463046FFF74DFEB01DC6B2601CC4B2AD
:100ED000285D0028C3D1BDE8FC872DE9F04180469C
:100EE0000F4616460024002539464046FFF7B0FC61
:100EF00000BF06E0705DFFF75BFC681CC5B2601CBC
:100F0000C4B2102CF6DB07F10800C1B24046FFF76F
:100F10009FFC002406E0705DFFF74AFC681CC5B228
:100F2000601CC4B2102CF6DBBDE8F0812DE9FC5F3B
:100F300082460C469146E01001902046E11704EBF2
:100F40005171C910A4EBC10189B20091002624E0BF
:100F5000F1B20020FFF791FC4FEAC60B002718E022
:100F60000025A8460DE06D100BEB080000FB09A062
:100F7000C05D012801D145F0800508F101001FFA8C
:100F800080F8B8F1080FEEDB2846FFF711FC781C5B
:100F900087B24F45E4DB701C86B201988642D7DBEE
:100FA000F1B20020FFF769FC4FEAC60B002719E0F9
:100FB0000025A8460DE06D100BEB080000FB09A012
:100FC000C05D012801D145F0800508F101001FFA3C
:100FD00080F800988045EEDB0098C0F108000541DC
:100FE000781C87B24F45E3DBBDE8FC9F5530000815
:100FF000D42F000855380008AC2D000810B500F0BB
:101000001BF800F05DF84821092000F097F84FF434
:10101000E130FFF748FA5A2006490860FFF7C4F9A3
:10102000FFF72CFA00F081F9FFF7B4FC00F062F84A
:1010300010BD00003800002008B50121382000F064
:101040000BFD4FF40060ADF8000010208DF8030098
:1010500003208DF802006946344800F041FA4FF44D
:101060000061324800F0E9FA4FF48050ADF800001A
:1010700069462E4800F034FA4FF480512B4800F0B6
:10108000DCFA0420ADF800006946294800F028FA8F
:101090000421274800F0D1FA0121092000F0DCFCEE
:1010A0000121244800F0EDFA0820ADF8000069465F
:1010B000214800F015FA08211F4800F0BEFA08BDCB
:1010C00008B50121082000F0C7FC0121084600F006
:1010D000C3FC0121174800F0D4FA1020ADF800003D
:1010E0008DF8030003208DF802006946124800F0D5
:1010F000F7F908BD08B50121102000F0ADFC4FF450
:101100000050ADF8000048208DF8030003208DF852
:1011100002006946054800F0E3F900BF4FF40051B2
:10112000024800F070FA0028F8D108BD0010014014
:101130000014014000023000000C01407FB504465D
:101140000D460121C80200F087FCADF80840681E7A
:1011500080B2ADF804000020ADF80A00ADF806003A
:101160008DF80C0001A94E4800F0AEFD0122114699
:101170004B4801F020F919208DF8000000208DF86F
:10118000010003208DF8020001208DF8030068465D
:1011900000F0DDF80121424801F0F2F87FBD10B502
:1011A0004048006840004049086001213C4801F087
:1011B000B0FB002872D00121394801F0BBFB3B484D
:1011C0000068401C3949086039480068401C3849AB
:1011D00008603848006800EB400101EBC00000F5F2
:1011E000FA700A2190FBF1F030490968884204DB6B
:1011F0001021314800F021FA03E010212E4800F0C0
:101200001EFA2E48006801281ED128480068264989
:10121000096888420DDC002029490860012029491D
:10122000C1F888012849086000202849C1F8AC01AC
:101230000AE00020224908602249C1F888012249B9
:1012400008602249C1F8AC011C480068F0B9174891
:1012500000681549096888420DDC012018490860BA
:1012600000201849C1F88801174908600120174972
:10127000C1F8AC010AE00020114908601149C1F829
:101280008801114908601149C1F8AC01074800689C
:10129000B0F5FA6F02D100200449086010BD0000CB
:1012A000002C014030000020440000203C000020C1
:1012B0004000002038000020000C014034000020D5
:1012C0008C81214200802242B00122420000224251
:1012D00008B50121192000F0BFFB0121154800F0DD
:1012E000D0F90121144800F0CCF9C020ADF800007D
:1012F00010208DF8030003208DF8020069460F4886
:1013000000F0EEF840F20130ADF8000010208DF84A
:10131000030003208DF802006946094800F0E0F858
:101320000121074800F08BF908BD10B5FFF7D0FF89
:1013300010BD00000004300000023000000C01402D
:101340000010014031490143314A1160704770B5C6
:10135000002100230F22C47804B32D4C246804F428
:10136000E064C4F5E064210AC1F10403CA40447892
:1013700004FA03F18478144021430901254C0678CE
:10138000A155047804F01F050124AC4005786D11C7
:10139000AD0005F1E025C5F8004109E0047804F04E
:1013A0001F050124AC401C4D0678761145F82640F7
:1013B00070BD1A4A0A400243154B1B1F1A60704742
:1013C00039B1134A121D12680243114B1B1D1A60DA
:1013D00006E00F4A121D126882430D4B1B1D1A6056
:1013E0007047042808D14FF0E021096941F0040159
:1013F0004FF0E022116107E04FF0E021096921F090
:1014000004014FF0E0221161704700000000FA056E
:101410000CED00E000E400E080E100E080FFFF1F51
:1014200010B50446CC48844208D10121042000F0C4
:101430002DFB0021042000F029FB46E0C748844230
:1014400008D10121082000F021FB0021082000F034
:101450001DFB3AE0C248844208D10121102000F06F
:1014600015FB0021102000F011FB2EE0BD48844246
:1014700008D10121202000F009FB0021202000F0EC
:1014800005FB22E0B848844208D10121402000F049
:10149000FDFA0021402000F0F9FA16E0B34884423A
:1014A00008D10121802000F0F1FA0021802000F015
:1014B000EDFA0AE0AE48844207D10121801500F020
:1014C000E5FA0021A01500F0E1FA10BD10B50121E8
:1014D000084600F0DBFA0021012000F0D7FA10BD29
:1014E0002DE9F041024600250026002000230024BB
:1014F000002791F803C00CF00F0591F803C00CF021
:10150000100CBCF1000F03D091F802C04CEA0505A5
:1015100091F800C0BCF1000F31D0146800202BE01E
:101520004FF0010C0CFA00F3B1F800C00CEA03060E
:101530009E4220D183004FF00F0C0CFA03F7BC43FE
:1015400005FA03FC4CEA040491F803C0BCF1280F2F
:1015500006D14FF0010C0CFA00FCC2F814C00AE0EE
:1015600091F803C0BCF1480F05D14FF0010C0CFA03
:1015700000FCC2F810C0401C0828D1D31460B1F898
:1015800000C0BCF1FF0F34DD546800202EE000F1F4
:10159000080C4FF0010808FA0CF3B1F800C00CEA8F
:1015A00003069E4221D183004FF00F0C0CFA03F783
:1015B000BC4305FA03FC4CEA040491F803C0BCF1F7
:1015C000280F05D100F1080C08FA0CF8C2F81480B5
:1015D00091F803C0BCF1480F07D100F1080C4FF09F
:1015E000010808FA0CF8C2F81080401C0828CED375
:1015F0005460BDE8F0814FF6FF71018002218170D7
:101600000421C17070470246002093680B400BB163
:10161000012000E0002070470146886880B27047D2
:1016200002460020D3680B400BB1012000E00020EF
:1016300070470146C86880B27047016170474161D8
:1016400070470AB1016100E041617047C1607047B5
:101650004FF480320A4382618161826182698269CA
:10166000704702460020434B18684FF680731840BD
:1016700040EA021008433F4B186070473E49C8617A
:101680007047F0B50A46002300240021002500F031
:101690000046B6F1004F02D1364EF16901E0354EF9
:1016A0007168C0F3034583B200F44016B6F5401FDD
:1016B00008D121F070612F4E766826F070662D4FAC
:1016C0007E6012E000F48016B6F5801F06D1032676
:1016D00006FA05F4A14341F0706106E0460D3601BB
:1016E00003FA06F6B14341F0706122B1460D3601AE
:1016F00003FA06F6314300F00046B6F1004F02D17E
:101700001C4EF16101E01B4E7160F0BD30B500224E
:101710008B071C0F0F2303FA04F2164B08338C10AF
:1017200053F824309343134C08348D1044F825307B
:1017300023468C1053F824308C07240F00FA04F44D
:1017400023430C4C08348D1044F8253030BD0A4931
:10175000DC3108607047000000080140000C0140C7
:10176000001001400014014000180140001C01401D
:10177000002001400000014000002042DF480068D6
:1017800040F00100DD49086008464068DC49084037
:10179000DA49486008460068DA490840D7490860D5
:1017A0000846006820F4802008600846406820F45D
:1017B000FE0048604FF41F0088607047CF490968F9
:1017C00021F48031CD4A11601146096821F480214D
:1017D0001160B0F5803F03D0B0F5802F0ED106E048
:1017E000C649096841F48031C44A116007E0C34921
:1017F000096841F4A021C14A116000E000BF00BFA8
:10180000704710B501460022002300204A11012A2A
:1018100002D1BA4C236806E0022A02D1B74C236AEF
:1018200001E0B64C636A01F01F02012494401C40A1
:101830000CB1012000E0002010BD38B50020009060
:101840000024002500BF3120FFF7DBFF054600988C
:10185000401C00900098B0F5A06F01D0002DF2D090
:101860003120FFF7CEFF08B1012400E0002420461C
:1018700038BD01460020A14A106820F0F80040EA77
:10188000C10010607047A049086070470246002000
:101890009A4B586820F47C1042EA01031843974B96
:1018A0005860704798490866704701460020934A7F
:1018B000506820F003000843506070478F4840682C
:1018C00000F00C007047014600208C4A506820F060
:1018D000F00008435060704701460020874A506876
:1018E00020F4E06008435060704701460020834ABE
:1018F000506820F4605040EAC1005060704729B140
:101900007E4A527A02437D4B5A7204E07B4A527AF5
:1019100082437A4B5A7270477B49D83108607047CE
:1019200001460020754A506820F44040084350604A
:1019300070470021714A20321170704A82F82010DD
:10194000012802D004280AD104E001216B4A203288
:10195000117005E00521694A2032117000E000BFD6
:1019600000BF70476949086070476449096A0143CC
:10197000624A11627047654944390860704730B562
:1019800000210022002400235C4D6D6805F00C014D
:1019900021B1042905D0082923D105E05C4D05605B
:1019A00022E05B4D05601FE0544D6D6805F4701238
:1019B000524D6D6805F48034022505EB92421CB946
:1019C000544D554305600BE04C4D6D6805F40035F2
:1019D0001DB1504D5543056002E04D4D5543056026
:1019E00002E04B4D056000BF00BF444D6D6805F03F
:1019F000F0010909484D6B5C0568DD4045603F4DCD
:101A00006D6805F4E061090A434D6B5C4568DD4093
:101A100085603A4D6D6805F46051C90A3E4D6B5CB6
:101A20004568DD40C560354D6D6805F44041890B62
:101A30003A4D6B5CC568B5FBF3F5056130BD29B166
:101A40002E4A526902432D4B5A6104E02B4A5269D7
:101A500082432A4B5A61704729B1284A926902434E
:101A6000264B9A6104E0254A92698243234B9A618E
:101A7000704729B1214AD2690243204BDA6104E060
:101A80001E4AD26982431D4BDA61704729B11B4A55
:101A9000D2680243194BDA6004E0184AD2688243E4
:101AA000164BDA60704729B1144A12690243134B8E
:101AB0001A6104E0114A12698243104B1A6170479F
:101AC00012494039086070470F49C86470470B4994
:101AD000C87170470948406A40F080700749486201
:101AE000704701460020054A92680A400AB1012069
:101AF00000E00020704701498872704700100240E2
:101B00000000FFF8FFFFF6FE000042428004424260
:101B100000127A0000093D00480000205800002013
:101B200010B50446FE48844208D10121C014FFF7D5
:101B3000ADFF0021E014FFF7A9FFC4E0B4F1804F2E
:101B400008D101210846FFF7AEFF00210120FFF771
:101B5000AAFFB8E0F348844208D101210220FFF730
:101B6000A2FF00210220FFF79EFFACE0EE48844276
:101B700008D101210420FFF796FF00210420FFF780
:101B800092FFA0E0E948844208D101210820FFF734
:101B90008AFF00210820FFF786FF94E0E448844292
:101BA00008D101211020FFF77EFF00211020FFF750
:101BB0007AFF88E0DF48844208D101212020FFF726
:101BC00072FF00212020FFF76EFF7CE0DA4884429C
:101BD00008D101214014FFF759FF00216014FFF7DD
:101BE00055FF70E0D548844209D10121C804FFF7B0
:101BF0004DFF00214FF40020FFF748FF63E0D0487D
:101C0000844209D101210805FFF740FF00214FF46C
:101C10008010FFF73BFF56E0CA48844209D10121FA
:101C20004805FFF733FF00214FF40010FFF72EFFA8
:101C300049E0C548844208D101214020FFF733FF25
:101C400000214020FFF72FFF3DE0C048844208D12B
:101C500001218020FFF727FF00218020FFF723FFCD
:101C600031E0BB48844208D101218015FFF71BFFFA
:101C70000021A015FFF717FF25E0B648844209D1DF
:101C800001210804FFF702FF00214FF48030FFF725
:101C9000FDFE18E0B048844209D101214804FFF755
:101CA000F5FE00214FF40030FFF7F0FE0BE0AB48EB
:101CB000844208D101218804FFF7E8FE00214FF497
:101CC0008020FFF7E3FE10BD00220288944B98426B
:101CD0000ED0994B98420BD0B0F1804F08D0914B69
:101CE000984205D0904B984202D0904B984204D134
:101CF0004FF68F731A404B881A438D4B984207D08A
:101D00008C4B984204D04FF6FF431A40CB881A43BD
:101D100002808B8883850B880385814B98420BD08A
:101D2000854B984208D08B4B984205D08A4B9842FD
:101D300002D08A4B984201D10B7A03860123838219
:101D4000704770B5002400220023058C4FF6FE7604
:101D500035400584028C8388048B4FF68F752C40A8
:101D6000B51E2C400D882C43751E2A400D892A4330
:101D70004D882A436A4DA8420BD06F4DA84208D027
:101D8000744DA84205D0744DA84202D0734DA842AC
:101D900013D14FF6F7752A404D892A434FF6FB754C
:101DA0002A408D882A434FF6FF652B404FF6FF559A
:101DB0002B408D892B43CD892B4383800483CD8891
:101DC0008586028470BD70B5002400220023058C36
:101DD0004FF6EF7635400584028C8388048B48F6F5
:101DE000FF752C404FF6FF452C400D884FF6FF76CF
:101DF00006EA05252C434FF6DF752A400D8906EAD1
:101E000005152A434D8806EA05152A43444DA84284
:101E100002D0494DA8421DD14FF67F752A404D8909
:101E20004FF6FF7606EA05152A434FF6BF752A409E
:101E30008D8806EA05152A434FF6FF352B404FF2F1
:101E4000FF752B408D8906EA85052B43CD8906EA6F
:101E500085052B4383800483CD880587028470BD6C
:101E600070B5002400220023058C4FF6FF66354034
:101E70000584028C8388848B4FF68F752C404FF637
:101E8000FC752C400D882C434FF6FF552A400D89D8
:101E90004FF6FF7606EA05252A434D8806EA052512
:101EA0002A431F4DA84202D0234DA8421DD14FF214
:101EB000FF752A404D894FF6FF7606EA05252A432D
:101EC0004FF6FF352A408D8806EA05252A434EF64F
:101ED000FF752B404DF6FF752B408D8906EA0515E1
:101EE0002B43CD8906EA05152B4383808483CD8857
:101EF0008587028470BD70B5002200230024058C04
:101F00004EF6FF7635400584038C8488828B48F634
:101F1000FF752A404FF6FF452A400D8820E000005B
:101F2000002C01400004004000080040000C00406C
:101F3000001000400014004000340140004C0140FB
:101F4000005001400054014000180040001C0040B7
:101F50000020004000400140004401400048014092
:101F60004FF6FF7606EA05252A434DF6FF752B400E
:101F70000D8906EA05352B434D8806EA05352B43C6
:101F8000FA4DA84202D0FA4DA84208D14BF6FF758F
:101F90002C408D894FF6FF7606EA85152C43848008
:101FA0008283CD88A0F84050038470BD828B4FF2AD
:101FB000FF331A408283828B4FF6FF7303EA0123BB
:101FC0001A4382837047F0B50C4615460022002163
:101FD0000026078C4EF6FF7C07EA0C070784828BED
:101FE000018C4FF6FF7707EA043640F6FF473A4088
:101FF0004FF6FF7707EA05273A434FF6FF7707EAE0
:1020000003373A43D94FB8420ED0D94FB8420BD01C
:10201000B0F1804F08D0D74FB84205D0D64FB84264
:1020200002D0D64FB84206D14DF6FF77394046F47C
:102030008057394305E047F6FF57394044F480574D
:10204000394382830184F0BD828B4FF6F3731A40CB
:102050008283828B0A4382837047F0B50C46154613
:10206000002200210026078C4FF6FF6C07EA0C07C0
:102070000784828B018C4FF6FF7707EA04264FF620
:102080000C773A404FF6FF7707EA03172F433A439E
:10209000B64FB8420ED0B64FB8420BD0B0F1804F19
:1020A00008D0B44FB84205D0B34FB84202D0B34FB6
:1020B000B84206D14FF6FF57394046F4807739438E
:1020C00005E04FF2FF57394044F48077394382836B
:1020D0000184F0BD028B4FF2FF331A400283028B62
:1020E0004FF6FF7303EA01231A4302837047F0B5EA
:1020F0000C461546002200210026078C4FF6EF7C87
:1021000007EA0C070784028B018C4FF6FF7707EA7A
:10211000041640F6FF473A404FF6FF7707EA0337C9
:102120003A434FF6FF7707EA05273A438F4FB84205
:102130000ED08F4FB8420BD0B0F1804F08D08D4FEA
:10214000B84205D08C4FB84202D08C4FB84206D16D
:102150004FF6DF77394046F01007394305E04FF678
:102160005F77394044F01007394302830184F0BDA2
:10217000028B4FF6F3731A400283028B0A430283E9
:102180007047F0B50C46154600220021068C4FF62C
:10219000FE773E400684028B018C4FF60C7632406F
:1021A0007E1C06EA03162E433243704EB0420ED018
:1021B0006F4EB0420BD0B0F1804F08D06D4EB042A0
:1021C00005D06D4EB04202D06C4EB04206D14FF6F3
:1021D000FD76314044F00106314305E04FF6F576D7
:1021E000314044F00106314302830184F0BD70B5F3
:1021F00005460C465D4885420ED05D4885420BD0B1
:10220000B5F1804F08D05B48854205D05A488542D9
:1022100002D05A48854200D100E000BF208850B962
:102220002389A28861882846FFF7ABFFE18828460A
:10223000FFF79EFF25E0208804280AD12389A28881
:1022400061882846FFF753FFE1882846FFF742FFE1
:1022500017E0208808280AD12389A28861882846A7
:10226000FFF7FBFEE1882846FFF7EEFE09E0238931
:10227000A28861882846FFF7A6FEE1882846FFF776
:1022800095FE70BD2DE9F04105460C46002601275C
:10229000608808B9022600E00026A088012801D144
:1022A000022700E001272088A0B92389A28861883D
:1022B0002846FFF766FFE1882846FFF759FF238984
:1022C0003A4631462846FFF712FFE1882846FFF7D5
:1022D00001FF13E02389A28861882846FFF707FFE2
:1022E000E1882846FFF7F6FE23893A46314628461C
:1022F000FFF747FFE1882846FFF73AFFBDE8F08186
:102300000A884B881A438B881A43CB881A430B8957
:102310001A434B891A438B891A43A0F8442070470B
:102320004FF6FF71818000210180C18041800172E0
:1023300070470021018041808180C18001814181FD
:102340008181C1817047002101804180012181800C
:102350000021C1800181704700210180418081807E
:10236000C18001814181818170470000002C0140C2
:10237000003401400004004000080040000C004010
:1023800021B1028842F00102028004E002884FF687
:10239000FE731A400280704731B1B0F8442042F415
:1023A0000042A0F8442005E0B0F84420C2F30E0239
:1023B000A0F8442070471AB183890B43838102E05F
:1023C00083898B43838170478182704741EA02038E
:1023D000A0F8483070471AB183890B43838102E02B
:1023E00083898B438381704701894FF6F8721140CE
:1023F000018170470A46002101894FF68F73194009
:1024000011430181704730B504460D4629462046E8
:10241000FFF7F0FF208940F00700208130BD2DE953
:10242000F04104460D4616461F46602D06D13B4638
:10243000012231462046FFF75AFE05E03B460122C5
:1024400031462046FFF79DFE29462046FFF7D2FF82
:10245000208940F007002081BDE8F08130B50C46AE
:1024600000210189C9B24FF6FF7505EA032515431E
:1024700025432943018130BD2DE9F04105460E4633
:1024800017469846002443463A4631462846FFF709
:10249000E5FF2C894FF6F870044044F007044FF62E
:1024A0008F70044044F070042C81BDE8F081F0B5D9
:1024B00004460D4616461F463B46324629462046F0
:1024C000FFF7CCFF208940F480402081F0BD0185DA
:1024D000828270470A46002101884FF68F731940A7
:1024E000114301807047F0B50C4615461E46002189
:1024F000002200230189028B038C4FF6F8773940C4
:1025000021434FF6FC473A4040F201173A434FF659
:10251000DD773B404FF6FF7707EA06172F433B4333
:10252000018102830384F0BD0A460021018B4FF62E
:102530008F7319401143018370470A460021018BB4
:1025400048F6FF7319404FF6FF7303EA022319435D
:10255000018370470A460021818B4FF68F73194023
:102560001143818370470A460021818B48F6FF732F
:1025700019404FF6FF7303EA022319438183704722
:1025800021B1028842F08002028004E002884FF606
:102590007F731A400280704721B1828842F00402A2
:1025A000828004E082884FF6FB731A408280704775
:1025B00021B1828842F00802828004E082884FF6CE
:1025C000F7731A408280704721B1828842F001027D
:1025D000828004E082884FF6FE731A408280704742
:1025E0000A460021018B4FF6F7731940114301830E
:1025F00070470A460021018B4FF2FF7319404FF6D6
:10260000FF7303EA02231943018370470A4600213E
:10261000818B4FF6F77319401143818370470A4647
:102620000021818B4FF2FF7319404FF6FF7303EACD
:1026300002231943818370470A460021018B4FF61C
:10264000FB7319401143018370470A460021018B37
:102650004FF6FF3319404FF6FF7303EA0223194385
:10266000018370470A460021818B4FF6FB731940A6
:102670001143818370470A460021818B4FF6FF3357
:1026800019404FF6FF7303EA022319438183704711
:102690000A460021018B4FF67F73194011430183D5
:1026A00070470A460021018BC1F30E014FF6FF73FC
:1026B00003EA02231943018370470A460021818BF4
:1026C0004FF67F7319401143818370470A460021FA
:1026D000818BC1F30E014FF6FF7303EA0223194306
:1026E000818370470A460021018C4FF6FD73194023
:1026F0001143018470470A460021018C4FF6F7739D
:1027000019401143018470470A460021018C4FF69D
:10271000DF7319404FF6FF7303EA02131943018474
:1027200070470A460021018C4FF67F7319404FF61F
:10273000FF7303EA02131943018470470A4600211C
:10274000018C4FF6FF5319404FF6FF7303EA022343
:102750001943018470470A460021018C4FF2FF7330
:1027600019404FF6FF7303EA0223194301847047AF
:102770000A460021018C4DF6FF7319404FF6FF7396
:1027800003EA023319430184704730B50023012462
:102790008C40A3B2048C9C430484048C02FA01F59F
:1027A000ADB22C43048430BD30B5002304248C40EA
:1027B000A3B2048C9C430484048C02FA01F5ADB2EC
:1027C0002C43048430BD70B5034600200024184615
:1027D000183001258D40ACB21D8CA5431D8409B174
:1027E000082909D100EB6100056825F07005056036
:1027F0000568154305600EE00D1FC5F34E0528441E
:10280000056825F4E045056005684FF6FF7606EAA1
:1028100002263543056070BD21B1028842F00202F4
:10282000028004E002884FF6FD731A400280704770
:1028300021B1028842F00402028004E002884FF6CF
:10284000FB731A400280704721B1828842F08002F7
:10285000828004E082884FF67F731A40828070473E
:1028600002884FF6F7731A40028002880A430280FA
:10287000704782884FF68F731A40828082880A439D
:102880008280704702894FF6F8731A4002810289EC
:102890000A430281704702894FF67F731A40028112
:1028A00002890A430281704781847047818570479D
:1028B000818670470187704781877047A0F8401074
:1028C000704702884FF6FF431A40028002880A438D
:1028D000028070470146888E70470146088F704716
:1028E0000146888F70470146B1F8400070470146A5
:1028F000888C70470146088D704702460020138A75
:102900000B400BB1012000E000207047CA43028257
:10291000704730B50246002000230024158A05EADE
:102920000103958905EA010413B10CB1012000E00F
:10293000002030BDCA4302827047000010B5044633
:10294000FB48844209D101218803FFF79FF8002149
:102950004FF48040FFF79AF832E0F648844209D1FC
:1029600001214804FFF79FF800214FF40030FFF7E2
:102970009AF825E0F048844209D101218804FFF744
:1029800092F800214FF48020FFF78DF818E0EB4813
:10299000844209D10121C804FFF785F800214FF4D2
:1029A0000020FFF780F80BE0E548844208D10121C0
:1029B0000805FFF778F800214FF48010FFF773F84F
:1029C00010BD2DE9F04786B005460E460024A2460C
:1029D00000BFA1460027B08900B100BF2F462C8A56
:1029E0004CF6FF700440F08804432C82AC894EF60C
:1029F000F3100440B08831890843718908430443C7
:102A0000AC81AC8A4FF6FF400440B0890443AC82ED
:102A100001A8FEF7B4FFC648874202D1DDF810A036
:102A200001E0DDF80CA0A88900F4004040B10AEBF9
:102A3000CA0000EB0A1031684900B0FBF1F807E06A
:102A40000AEBCA0000EB0A1031688900B0FBF1F80C
:102A50006420B8FBF0F004012009642101FB108917
:102A6000A88900F4004040B1322000EBC900B0FB5F
:102A7000F1F000F00700044308E0322000EB0910F9
:102A80006421B0FBF1F000F00F0004432C8106B08C
:102A9000BDE8F0874FF41651016000218180C180AC
:102AA00001810C21418100218181704710B50246CE
:102AB0000020108A4FF2FF0318400B884C882343F4
:102AC0008C882343CC8823431843108210BD0021F7
:102AD000018041808180C180704721B1828942F4A8
:102AE0000052828104E082894DF6FF731A40828190
:102AF0007047F0B50346002400260025002040F66C
:102B00006A17B94200D100BF1846C1F3421401F060
:102B10001F06012707FA06F5012C01D10C3004E04D
:102B2000022C01D1103000E014301AB107682F4395
:102B3000076002E00768AF430760F0BD1AB1838AFF
:102B40000B43838202E0838A8B4383827047028A2D
:102B50004FF6F0731A400282028A0A4302827047DB
:102B600082894FF2FF731A40828182890A438281EF
:102B7000704721B1828942F00202828104E0828999
:102B80004FF6FD731A4082817047028A4FF6DF7359
:102B90001A400282028A0A430282704721B1028AE5
:102BA00042F48042028204E0028A4BF6FF731A402C
:102BB00002827047C1F3080282807047014688880C
:102BC000C0F308007047818941F00101818170479D
:102BD000028BD2B20283028B42EA01220283704747
:102BE000028B02F47F420283028B0A430283704706
:102BF00021B1828A42F02002828204E0828A4FF66A
:102C0000DF731A408282704721B1828A42F010023B
:102C1000828204E0828A4FF6EF731A408282704704
:102C200021B1828A42F00802828204E0828A4FF651
:102C3000F7731A408282704721B1828942F40042C0
:102C4000828103E08289C2F30E028281704721B142
:102C5000828A42F40062828204E0828A4FF2FF7329
:102C60001A4082827047828A4FF6FB731A40828232
:102C7000828A0A438282704721B1828A42F002022C
:102C8000828204E0828A4FF6FD731A408282704786
:102C900002460020B1F5007F00D100BF13880B4031
:102CA0000BB1012000E00020704701F40072B2F582
:102CB000007F00D100BFCA430280704770B5024652
:102CC000002400230025002040F66A16B14200D1FE
:102CD00000BFC1F3421501F01F03012606FA03F3FA
:102CE000012D02D19689334006E0022D02D1168AC9
:102CF000334001E0968A33400C12012606FA04F4B0
:102D00001688344013B10CB1012000E0002070BDE2
:102D100010B50022002340F66A14A14200D100BF82
:102D20000A1201249440A3B2DC43048010BD0000C9
:102D3000003801400044004000480040004C004082
:102D400000500040704770477047704770477546A5
:102D500000F028F8AE4605006946534620F007000B
:102D6000854618B020B5FDF71DFABDE820404FF0AC
:102D700000064FF000074FF000084FF0000B21F065
:102D80000701AC46ACE8C009ACE8C009ACE8C00932
:102D9000ACE8C0098D4670470446AFF3008020467A
:102DA000FDF7EBF9004870477401002000000000B7
:102DB00000000000002F00000000070007000014C2
:102DC0007F147F1400242A7F2A12006264081323D0
:102DD00000364955225000000503000000001C2267
:102DE0004100000041221C000014083E08140008A5
:102DF000083E0808000000A0600000080808080855
:102E0000000060600000002010080402003E5149EC
:102E1000453E0000427F400000426151494600218A
:102E200041454B31001814127F10002745454539A4
:102E3000003C4A49493000017109050300364949FF
:102E4000493600064949291E0000363600000000B8
:102E50005636000000081422410000141414141403
:102E600000004122140800020151090600324959AC
:102E7000513E007C1211127C007F49494936003EC8
:102E800041414122007F4141221C007F4949494183
:102E9000007F09090901003E4149497A007F08087D
:102EA000087F0000417F4100002040413F01007F3A
:102EB00008142241007F40404040007F020C027F06
:102EC000007F0408107F003E4141413E007F090918
:102ED0000906003E4151215E007F0919294600463E
:102EE000494949310001017F0101003F4040403F15
:102EF000001F2040201F003F4038403F006314085F
:102F00001463000708700807006151494543000039
:102F10007F41410000552A552A55000041417F005C
:102F20000004020102040040404040400000010251
:102F30000400002054545478007F4844443800383A
:102F40004444442000384444487F003854545418C2
:102F500000087E0901020018A4A4A47C007F0804D4
:102F600004780000447D4000004080847D00007FA4
:102F7000102844000000417F4000007C04180478C1
:102F8000007C0804047800384444443800FC2424BD
:102F900024180018242418FC007C080404080048A5
:102FA0005454542000043F444020003C4040207CC6
:102FB000001C2040201C003C4030403C00442810B5
:102FC0002844001CA0A0A07C004464544C44141469
:102FD00014141414B2E2BEE0C0EBD6DCB3A4C3E612
:102FE000BBFDB6C8B8DFC6C2C4B6D2C7CBD1CBF71B
:102FF000CEC0D0C7B4F3D0A1B2E9BCC7C2BCC9BE71
:10300000B3FDCFB5CDB3D6B5C9E8B5A5BCDBB9AB7B
:10301000C7EAD4AAD1AFC3BFB5E7B3D8D1B9BEAD63
:10302000CEB3A1E3A94FD0CDBAC5B0E6B1BECAA315
:10303000D3E0BFD5BCE4B7B5BBD8CDCBB3F6B1B107
:10304000D1C7B2A9D6C7C4DCBFC6BCBCB4B4BFCD5F
:10305000BDCCD3FD001060028C00FE02F202FE0027
:10306000F800FF000004047E018047300F102700A5
:1030700047807F0000003E22E2223E00FE22222204
:103080002222E20200203F201F1111007F4444440D
:103090004444474000040404F484D4A5A6A4D48482
:1030A000F40404040000FE0202123A1613121A324B
:1030B00042827E00000000FE82929292FE929292E4
:1030C00082FE00000080601F00001E1212121E40CF
:1030D000807F00000080808080FF8080A0908884B6
:1030E000828080800000000000FF40211204081050
:1030F00020204040000202E22222F22E2222E2227E
:1031000022E20202000000FF40407F4949497F401F
:1031100040FF000000202424A4FE232220FC0404FD
:103120000404FC000010080601FF01068063190179
:10313000010933C0000000FC242424FC252624FCC3
:10314000242424040040308F80844C5525252555A7
:103150004C8080800004040404F49495969494F4C4
:10316000040404040000FE02027A4A4A4A4A4A7AE7
:103170000282FE00002020FF202000F8888888FFBF
:103180008888A8180010301F0888601F80432C1002
:1031900028468180000808C848484849CE48484821
:1031A00048C80808000000FF444444447F444444A5
:1031B00044FF000000008060F807001CE0010600EA
:1031C000E01E000000010000FF00804020130C13EF
:1031D0002040808000101010FF109000FE9180FFB2
:1031E0008092FE00000444827F01008082462A1300
:1031F0002A468280008060242424A4643F2424A4DE
:103200002424A0600000804829094D8D7B0B0928EB
:103210004C98000000000202020202FE02020202BA
:1032200002FE0000004040404040407F404040419E
:103230004241404000000000BE2A2A2AEA2A2A2AE7
:103240003E00000000004442494949497F4949493C
:10325000494140000020202020202020FF20202065
:10326000202020200080804020100C0300030C1040
:103270002040808000000000E0000000FF0000000F
:103280002040800000080403000040807F00000010
:103290000000010E00404424A4948C84FF848C948C
:1032A000A4244440004040405F4A4A4A4A4A4A4AAD
:1032B0005F40404000404042CC0000008484848451
:1032C00084FC0000000000007F2010003F404040D0
:1032D00040414070008080829292929292929292AB
:1032E000FE80808000404022241048807F0408181F
:1032F000242240400080FE8282FE80FE8282FE8088
:1033000000F800FF00403F0020BF403F40807F00AA
:10331000004F807F0000FE225A8620102824E324DC
:10332000281020200000FF040827110D41817F0193
:103330000509310000000022322AA6A262211109EB
:103340008101000000004222130B42827E02020A29
:1033500012234600002030AC63300088C8A8998E44
:1033600088A8C8880022672212128040300F00000F
:103370003F40407100008060F80704E4A4A4BFA4AB
:10338000A4E4040000010000FF40407F4A4A4A4A8A
:103390004A7F404000404042CC0040A09E82828252
:1033A0009EA02020000000003F908840432C102861
:1033B00046418080000000F8494A4C48F8484C4A91
:1033C00049F800000010101312121212FF1212120C
:1033D0001213101000008060F8074020900C030CBE
:1033E0009020404000010000FF0080601F000000AE
:1033F000FF00000000008040201806800007182011
:103400004080000000010020702826212020243860
:1034100060000101000000FE20202000F2121AD6F8
:103420001212F2020000001F080402804F20180749
:1034300010204F80002020222222E2222222E2229B
:103440002222202000804020100C030000003F407A
:103450004040407800404042CC0020D04C4B48C80F
:103460000808F800000000007F20101F1212125FF1
:1034700080403F000020100CF312125292121212E0
:10348000F20202000001011F111111151951915191
:103490003F111101000000F888888888FF8888881B
:1034A00088F800000000001F080808087F88888846
:1034B000889F80F000106002CC8080FC4020FF10CC
:1034C00008F800000004047E0100003F40404F4027
:1034D00044474078000000FE0282828282FA8282A3
:1034E000828282020080601F40404040407F404016
:1034F00044584040002030AC6320188082422212A1
:103500001A26428000226722121212404242427E54
:1035100042424240002030AC63201800084848FF77
:10352000484848080022672212121200020202FFD5
:103530000212221E0000000000000C12120C0000FB
:10354000000000000000000000000000000000007B
:1035500000000000000008F00808F00808F0002251
:1035600031292600000000070000070000070000C6
:1035700000000000002022A27E2222FE2222007CE7
:103580000000FF0000444249484848497E484848F6
:10359000494A414000808080BEA2A2A2A2A2A2A26B
:1035A000BE808080000000000605040404448444BA
:1035B0003C0000000000FE20203F2000FC24E4240A
:1035C0002223E20000807F0101FF80601F804126EE
:1035D00018264180000010101010D030FF30D0109D
:1035E000101010000010080402090808FF0808095C
:1035F0000204081000484AFA0AFE09F949A8000026
:10360000F00000FF0022110B04FF04091223000048
:103610000F40807F0080804020504844C344485081
:1036200020408080000040221A0242827F02020273
:103630000A12600000100C4424140405060404144B
:103640002444140C00004040414141417F4141412C
:10365000414040000000F8010600F0121212F20290
:103660000202FE000000FF0000001F1111111F00E8
:1036700040807F0000404042CC0000FC24A4242273
:1036800022A36200000040201F20584750484542B6
:1036900045485040000000FE0202F2121212F202EF
:1036A00002FE00000000007F202027242424272081
:1036B000207F000000404042CC0000FF4949C9493A
:1036C000497F8000000040201F20405F4844404167
:1036D000424558400000007C40404040FF40404090
:1036E00040FC000000007C40404040407F404040A3
:1036F0004040FC00000020202020FF000000FF4090
:1037000020100800002060201010FF0000003F4043
:1037100040404078000042820202FE020202FE02A5
:103720000202C2000040404146407F4040407F408E
:1037300044434040002020FF2024F4545454FF54BC
:103740005556F404000000FF00080B1969090B49E5
:10375000897D0B0800109453321E325210007E42B5
:1037600042427E0000000000FF4949494949494959
:10377000FF0000000008CC4A49484ACC18007F8866
:10378000888482E00000FF121252927F00007E883F
:10379000888482E0002424A4FEA3220022CC00001E
:1037A000FF00000000080601FF00010404040404F7
:1037B000FF02020200101010FF109008888888FF96
:1037C00088888808000444827F01808040432C1050
:1037D00028468180004020D04C4344C8102000F887
:1037E0000000FF000000003F404448474070000FC9
:1037F00040807F0000100C8444B4A4252624A464D7
:103800002404140C00040404FA4A4A4949494A4A67
:10381000FA0404040020A4A4A4FFA4B42884708F94
:103820000808F80800040A49887E0504844020132B
:103830000C33408000040424B4ACA4A5A6A4A4A422
:10384000B464040400000000FF0A0A0A0A0A4A8A53
:103850007F000000000000000000000000000000E9
:103860000000000000000000F80000000000000060
:10387000333000000000100C06100C0600000000A1
:10388000000000000040C07840C0784000043F04C1
:10389000043F040400007088FC0830000000182079
:1038A000FF211E0000F008F000E018000000211CBD
:1038B000031E211E0000F00888700000001E212356
:1038C000241927211010160E00000000000000002F
:1038D0000000000000000000E018040200000000EA
:1038E000071820400000020418E0000000004020FB
:1038F0001807000000404080F080404000020201B4
:103900000F01020200000000F000000000010101B0
:103910001F01010100000000000000000080B070E5
:103920000000000000000000000000000000010195
:103930000101010101000000000000000000303022
:103940000000000000000000008060180400601803
:10395000060100000000E010080810E000000F1051
:103960002020100F00001010F800000000002020A0
:103970003F202000000070080808887000003028F0
:1039800024222130000030088888483000001820A8
:103990002020110E000000C02010F80000000704D5
:1039A00024243F240000F808888808080000192112
:1039B0002020110E0000E0108888180000000F1170
:1039C0002020110E0000380808C838080000000048
:1039D0003F000000000070880808887000001C226A
:1039E0002121221C0000E010080810E00000003136
:1039F0002222110F00000000C0C0000000000000E3
:103A00003030000000000000800000000000008056
:103A1000600000000000008040201008000001024B
:103A2000040810200040404040404040000404048E
:103A3000040404040000081020408000000020104E
:103A40000804020100007048080808F000000000A7
:103A50003036010000C030C828E810E00007182701
:103A60002423140B000000C038E0000000203C2399
:103A7000020227382008F8888888700000203F203C
:103A80002020110E00C03008080808380007182050
:103A9000202010080008F808080810E000203F2047
:103AA0002020100F0008F88888E8081000203F2028
:103AB000202320180008F88888E8081000203F20FC
:103AC0000003000000C03008080838000007182074
:103AD00020221E020008F808000008F808203F21F4
:103AE0000101213F20000808F808080000002020FC
:103AF0003F2020000000000808F8080800C080806F
:103B0000807F00000008F888C028180800203F20A7
:103B1000012638200008F8080000000000203F209F
:103B2000202020300008F8F800F8F80800203F00B6
:103B30003F003F200008F830C00008F808203F2070
:103B40000007183F00E01008080810E0000F1020E0
:103B50002020100F0008F808080808F000203F2176
:103B60000101010000E01008080810E0000F18240F
:103B70002438504F0008F8888888887000203F203B
:103B800000030C3020007088080808380000382036
:103B90002121221C00180808F8080818000000203D
:103BA0003F2000000008F808000008F808001F2067
:103BB0002020201F000878880000C838080000076F
:103BC000380E010000F80800F80008F800033C0770
:103BD00000073C0300081868808068180820302C13
:103BE00003032C30200838C800C838080000002023
:103BF0003F2000000010080808C8380800203826B8
:103C00002120201800000000FE0202020000000037
:103C10007F40404000000C30C00000000000000069
:103C2000010638C00000020202FE00000000404011
:103C3000407F0000000000040202020400000000B7
:103C400000000000000000000000000000808080F4
:103C500080808080800002020400000000000000DC
:103C60000000000000000080808080000000192417
:103C70002222223F2008F8008080000000003F112F
:103C80002020110E000000008080800000000E1136
:103C90002020201100000000808088F800000E1114
:103CA0002020103F200000808080800000001F2224
:103CB0002222221300008080F088888818002020AB
:103CC0003F202000000000808080808000006B94F6
:103CD000949493600008F8008080800000203F21C9
:103CE0000000203F20008098980000000000202065
:103CF0003F20200000000000809898000000C08055
:103D000080807F000008F8000080808000203F2431
:103D1000022D302000000808F800000000002020DC
:103D20003F202000008080808080808000203F2015
:103D3000003F20003F8080008080800000203F21E5
:103D40000000203F200000808080800000001F20B5
:103D50002020201F00808000808000000080FFA1C4
:103D60002020110E000000008080808000000E11D5
:103D70002020A0FF80808080008080800020203F65
:103D8000212000010000008080808080000033241A
:103D90002424241900008080E080800000000000BE
:103DA0001F202000008080000000808000001F2075
:103DB0002020103F20808080000080808000010E45
:103DC000300806010080800080008080800F300C69
:103DD000030C300F000080800080808000002031C4
:103DE0002E0E312000808080000080808080818EB7
:103DF00070180601000080808080808000002130E3
:103E00002C2221300000000000807C020200000013
:103E100000003F404000000000FF000000000000E4
:103E200000FF0000000002027C8000000000404013
:103E30003F0000000000060101020204040000002F
:103E40000000000000000080C0E0F0F8FCF8F0E0A6
:103E5000C0800000000000000103070F1F0F0703D0
:103E60000100000000000000883E00080000002063
:103E70005C00000028010008E43E00085C0000200F
:103E80007C0700004401000800A24A040000000072
:103E900000000000010203040607080900000000FA
:103EA0000000000000000000000000000000000012
:103EB0000000000000000000000000000000000002
:103EC00000000000000000000000000000000000F2
:103ED00000000000010203040102030406070809B0
:043EE00002040608CA
:04000005080000ED02
:00000001FF
