:020000040800F2
:10000000C8730020B5010008BD010008BF01000849
:10001000C1010008C3010008C5010008000000007C
:10002000000000000000000000000000C701000800
:10003000C901000800000000CB010008CD01000844
:10004000CF010008CF010008CF010008CF01000850
:10005000CF010008CF010008CF010008CF01000840
:10006000CF010008CF010008CF010008CF01000830
:10007000CF010008CF010008CF010008CF01000820
:10008000CF010008CF010008CF010008CF01000810
:10009000CF010008CF010008CF0100084D0E000875
:1000A000CF010008D31D0008CF010008CF010008D0
:1000B000FD220008CF010008CF010008CF01000891
:1000C000CF010008CF010008CF010008CF010008D0
:1000D000CF010008210600089B060008CF01000898
:1000E000CF010008CF010008CF01000800F002F89E
:1000F00000F050F80AA090E8000C82448344AAF172
:100100000107DA4501D100F045F8AFF2090EBAE86F
:100110000F0013F0010F18BFFB1A43F0010318473B
:10012000087D0000287D0000103A24BF78C878C1FF
:10013000FAD8520724BF30C830C144BF04680C60ED
:10014000704700000023002400250026103A28BF35
:1001500078C1FBD8520728BF30C148BF0B60704739
:10016000662906F0B085642904F0C083002070473A
:100170001FB505F025F804000020002105F0EAFD78
:10018000401C60600020002105F0CEFDE0601FBD36
:1001900010B510BD05F078F91146FFF7E9FF00F042
:1001A000DDFA05F0A4F903B4FFF7F2FF03BC00F099
:1001B00081F900000948804709480047FEE7FEE74B
:1001C000FEE7FEE7FEE7FEE7FEE7FEE7FEE7FEE707
:1001D00004480549054A064B70470000D302000851
:1001E000ED000008C86D0020C8730020C86F002013
:1001F000C86F00200CB50020019000906C4800688A
:1002000040F480306A49086000BF6948006800F423
:10021000003000900198401C0190009818B9019896
:10022000B0F5A06FF1D16248006800F4003010B161
:100230000120009001E0002000900098012843D1A7
:100240005C48006840F010005A49086008460068A1
:1002500020F0030008600846006840F002000860D3
:10026000534840685249486008464068486008461C
:10027000406840F4806048600846406820F47C1084
:1002800048600846406840F4E81048600846006846
:1002900040F08070086000BF4548006800F00070C2
:1002A0000028F9D04248406820F0030040494860E7
:1002B0000846406840F00200486000BF3C48406883
:1002C00000F00C000828F9D10CBD10B5FFF792FF23
:1002D00010BD10B53648006840F001003449086090
:1002E000084640683449084031494860084600687B
:1002F000324908402E4908600846006820F48020F2
:1003000008600846406820F4FE0048604FF41F0073
:100310008860FFF7DAFF4FF000602949086010BDE0
:1003200010B5002100200022214B5B6803F00C0176
:1003300021B1042906D0082928D107E0214B224CFD
:10034000236027E01F4B204C236023E0184B5B68A1
:1003500003F47010164B5B6803F48032022303EB46
:10036000904022B9194B4343174C23600DE0104BCA
:100370005B6803F4003323B1144B4343124C2360F6
:1003800003E0104B4343104C236003E00D4B0E4C35
:10039000236000BF00BF064B5B68C3F303130C4C24
:1003A000E15C094B1B68CB40074C236010BD00008B
:1003B00000100240002002400000FFF8FFFFF6FEA0
:1003C00008ED00E000127A000000002000093D0066
:1003D0000400002010B56FF0040002F022FA2E484D
:1003E00000682E49B0FBF1F02D49087008460078EE
:1003F00000EB4001C1EBC0104FF6FF7101EAC000F5
:100400002849088010BD0146254A12784A434FF01A
:10041000E0235A6100229A611A46126942F00102F1
:100420001A6100BF4FF0E022106900F001021AB11A
:1004300000F48032002AF5D04FF0E022126922F059
:1004400001024FF0E0231A6100229A6170470146D1
:10045000144A12884A434FF0E0235A6100229A61FD
:100460001A46126942F001021A6100BF4FF0E02201
:10047000106900F001021AB100F48032002AF5D0B0
:100480004FF0E022126922F001024FF0E0231A61DE
:1004900000229A61704700000000002000127A00DC
:1004A000140000201600002010B54FF4A06002F0E8
:1004B00069F910BD014600BF704700BF9D4A128810
:1004C00002F04002002AF9D0C2B29A4B1B1D1A80DA
:1004D000704710B586B00446012144F2040003F0D1
:1004E00059F84FF40070ADF8140003208DF8160091
:1004F00018208DF8170005A98F4802F029FD4FF448
:100500008060ADF8140004208DF8170005A98A4812
:1005100002F01EFD25208DF8000003208DF801005B
:100520008DF8020001208DF80300684602F02FF9D3
:1005300001940020ADF80800ADF80A00ADF80C00F9
:10054000ADF810000C20ADF80E0001A97B4803F0B7
:10055000D6FF012240F22551784804F068F80121C5
:10056000764804F058F806B010BD10B586B00446C1
:100570000121042003F00EF80121480403F017F8CC
:100580000420ADF8140003208DF8160018208DF813
:10059000170005A9684802F0DBFC0820ADF814003C
:1005A00004208DF8170005A9634802F0D1FC26202D
:1005B0008DF8000003208DF801008DF80200012065
:1005C0008DF80300684602F0E2F801940020ADF8CF
:1005D0000800ADF80A00ADF80C00ADF810000C20D2
:1005E000ADF80E0001A9534803F089FF012240F243
:1005F0002551504804F01BF801214E4804F00BF837
:1006000006B010BD10B5044621464C4804F070F801
:1006100000BF8021494804F0D9F80028F9D010BD66
:1006200010B540F22551454804F0E6F810B34348B0
:1006300004F062F8C4B24248008800F40040C8B92F
:100640003F48008800F4804060B10A2C03D00020AD
:100650003B49088020E03A48008840F4004038498F
:10066000088019E00D2C06D13548008840F4804000
:100670003349088010E032480088C0F30D0031494A
:100680000C542F480088401C2D49088008460088DB
:10069000C72801DD0020088010BD10B50024082106
:1006A000244804F093F830B10821224804F09BF864
:1006B000204804F021F820211E4804F087F8002883
:1006C00036D040F225511B4804F0C0F81948001DEF
:1006D0000088C4B2242C05D101201B4908700020D9
:1006E0001A49086018480078012803D118481749AA
:1006F000096844541448007801280AD1232C08D1F1
:100700001449087000201049087010480068124908
:1007100008600E480068401C0C49086008460068E4
:10072000502805DB00200860074908700949087057
:1007300010BD0000004400400008014000380140A6
:1007400020000020F40000202800002024000020C9
:10075000A4000020180000202C00002001F0B4F9B3
:1007600001E000F025FBFCE70D49086001210D4A7E
:10077000116070470A49086000210A4A11607047F9
:10078000074908600221074A116070470449086060
:100790000321044A11607047002001490860704736
:1007A000340000203800002070472DE9F04100257A
:1007B00000240026002700BF0AE0002405E00020F6
:1007C000FE4901EBC5110855641C802CF7DB6D1C3C
:1007D000402DF2DB00254F2752E00024002646E0A2
:1007E000382C17DC204604EBD0714910A4EB4101F2
:1007F00021BBC7EB0710F24901EB0010005DF14986
:100800000968884204DB0120EC4901EBC5118855D9
:10081000761C2BE0382C12DD482C10DCC7EB0710BF
:10082000E74901EB0010005DE6490968884204DBF6
:100830000120E24901EBC5118855761C16E02046DF
:1008400004EBD0714910A4EB410179B9C7EB071053
:10085000DB4901EB0010005DDA490968884204DBDE
:100860000120D64901EBC5118855761C641C7F2EEA
:1008700001DC012000E000200028B1D16D1C7F1EAA
:10088000402DAADB80224021CC4800F0F5FEBDE8D7
:10089000F0812DE9FF5F4FF0000AD346CA48D0F837
:1008A00000B0CA48006806F031F8C7490860084639
:1008B000006805F093FE0646C54AC64B05F0A6FC47
:1008C000044605F05DFA82465946BF48006806F0C6
:1008D00085F9019005F082FEBF4AC04BCDE90201C7
:1008E00005F094FC06460F46504605F077FE80461C
:1008F00032463B4605F076FA044605F041FA824658
:10090000B2490868002801DB014600E04142B44AD0
:10091000116011460868C11700EB5171C910C1F18F
:100920004601B04A1160B048006805F0EFFF044688
:10093000514605F07FFE8246AC49504606F012F95A
:1009400001D2DFF8A8A2AA49504606F00BF801D25E
:10095000DFF89CA2504605F09DFFA6490860BDE85F
:10096000FF9FF0B500250021C8E000205DE0061DD6
:10097000F02E56DAC1EB0116914F07EB0616365CE6
:10098000904F3F68BE424CDAC1EB01168C4F07EB2B
:100990000617061DBE5D8B4F3F68BE4241DA964E7C
:1009A0003668861B5A2E04DC934E3668361A5A2E49
:1009B00030DD0346002029E04E1D502E25DAC6EB1F
:1009C00006167F4F07EB0616365C7E4F3F68BE4229
:1009D0001BDA4E1DC6EB0616794F07EB0617061DF0
:1009E000BE5D784F3F68BE420FDAC61A5A2E02DC4F
:1009F0001E1A5A2E02DD804E326809E0421C7E4EDD
:100A0000326001267D4F3E6002E0401CEC28D3DBC3
:100A100000BF0CE0421C784E32600126774F3E60EA
:100A200005E0EE2800D10125401CF0289FDB00BF27
:100A3000012A5CD1002057E0C1EB0116604F07EBA3
:100A40000616365C5F4F3F68BE424CDDC1EB0116B7
:100A50005B4F07EB0617061DBE5D5A4F3F68BE424F
:100A600041DD654E3668861B462E04DC624E3668D4
:100A7000361A462E30DD0346002029E04E1D502E4A
:100A800025DAC6EB06164E4F07EB0616365C4D4FC1
:100A90003F68BE421BDD4E1DC6EB0616484F07EBF6
:100AA0000617061DBE5D474F3F68BE420FDDC61AE2
:100AB000462E02DC1E1A462E02DD4F4E326809E039
:100AC000421C4D4E326000264C4F3E6002E0401CFE
:100AD000EC28D3DB00BF09E0421C474E3260002601
:100AE000464F3E6002E0401CEC28A5DB00BF012D14
:100AF00001D1414E3268424F7A54491C5029FFF6C9
:100B000034AF3F4E36783E4FBF7A3E443C4F3F7D38
:100B10003E443B4FBF7F3E44394F97F832703E44CE
:100B2000052796FBF7F4354E3668012E05D12E4E7B
:100B30003668A61B254F3E6005E02B4E3668A61B87
:100B40003C3E224F3E60F0BD70B500240FE0F02522
:100B500009E0C4EB04111A4A02EB0111485DFFF7EA
:100B600051FD681E85B2002DF3DC601C84B2502C50
:100B7000EDDBFF20FFF746FD70BD0021214A5268E2
:100B800022F003021F4B5A601A46126822F080724C
:100B90001A601A46526822F470125A60821ED0B24D
:100BA0001A46526842EA80425A601A46526842F433
:100BB00080325A60144A126828E000000C4D002070
:100BC000BC0100204C0000203C0000204000002020
:100BD00052B81E85EB51C83F7B14AE47E17AC43F43
:100BE0004400002034000020500000200000024398
:100BF00000009642680000203000002048000020DD
:100C0000BC4C0020001002400020024042F01202C2
:100C1000384B1A60384A126842F08072364B1A60BC
:100C200000BF354A1268520E002AFAD0324A526882
:100C300042F00202304B5A6005E02F4A5268C2F37C
:100C4000870101F003010229F7D1704770B52B48E5
:100C5000007802283ED10020294908604020294917
:100C600048610861486101202749C1F8940140208A
:100C7000244908612548007A28B3F02421E00025A2
:100C80001BE040201F49486121480068C0F3072647
:100C90004020086148610861322D0DD3822D0BD2AE
:100CA00000BFF02C08D2A5F13200C0EB00101949AA
:100CB00001EB0010214646546D1CB5F5A07FE0D332
:100CC000641E002CDBD14FF4807002F0D8F80020B5
:100CD0000A49087070BD10B5FFF7B8FFFFF741FE75
:100CE000FFF763FDFFF7D5FD0B480068FFF73CFDFC
:100CF00010BD0000002002400010024059000020FA
:100D00009401224200100140000022420C6D00209C
:100D1000080C0140BC0100203400002070B5002404
:100D200001F0FCFA054605F0B5FD0446192C0DDA74
:100D30008220084908606420FFF716FD4FF47A709E
:100D4000FFF785FB5A200349086002E06420FFF7A3
:100D50000BFD70BD680000202DE9F04F8BB0002422
:100D6000A146A246A346002009900890079001F0F2
:100D700033FA04462349204605F0F4FE00D200244D
:100D800001F010FC0A900A9805F028FC05460E4672
:100D9000204605F023FC074609983A460B468DE8A5
:100DA000600E059018A003F06DFD0BB0BDE8F08F4C
:100DB00010B52148007808B100F0F9FC1F48006820
:100DC000012804D0022803D0032807D103E006E05D
:100DD000FFF781FF03E0FFF7A1FF00E000BF00BFC6
:100DE0001648006860B91648007848B91548006888
:100DF0001549884204DB002012490860FFF7ACFF68
:100E000010BD00000000FA43243457442C435342E1
:100E1000252E32662C505625312E32662C4753250E
:100E2000642C4C46253034642C4857253032642CD1
:100E3000474D253032642300180000205400002064
:100E40005800002084000020A086010010B54FF457
:100E5000807002F003F801281FD12448007802288E
:100E60001BDA2248007850B901202149086000208F
:100E70002049C1F8800101201F49086008E00020D6
:100E80001B4908601B49C1F8800101201A4908600C
:100E900016480078401C154908704FF4807001F026
:100EA000EEFF10BD0EB50821002002F067F94FF4E7
:100EB0008070019000208DF8080008208DF809004E
:100EC00001208DF80A0001A801F062FF17208DF8BB
:100ED000000000208DF801008DF8020001208DF83F
:100EE0000300684601F053FC0EBD000059000020CD
:100EF0009C012242008021428081214270B504463B
:100F00000825A901F84802F0D0F84021F74802F07E
:100F1000CEF815E004F0800020B18021F34802F003
:100F2000C4F803E08021F14802F0C1F84021EF4805
:100F300002F0BBF84021ED4802F0B9F86006040E5B
:100F40002800A5F10101CDB2E4D170BD70B5044611
:100F50000825A901E44802F0AAF84021E34802F07C
:100F6000A6F815E004F0800020B18021DF4802F0EF
:100F70009CF803E08021DD4802F099F84021DB482D
:100F800002F093F84021D94802F091F86006040E6F
:100F90002800A5F10101CDB2E4D170BD70B50446C1
:100FA0000D46B02101EBE501C8B2FFF7CFFF1021DC
:100FB00041EA1410FFF7CAFF04F00F0141F00100ED
:100FC000FFF7C4FF70BD70B504460D4605F1B001D2
:100FD000C8B2FFF7BBFF102141EA1410FFF7B6FFBC
:100FE00004F00F00FFF7B2FF70BD70B50646002495
:100FF00015E004F1B001C8B2FFF7A8FF0120FFF728
:10100000A5FF1020FFF7A2FF002504E03046FFF700
:1010100075FF681CC5B2802DF8DB601CC4B2082CBB
:10102000E7DB70BD70B5002415E004F1B001C8B273
:10103000FFF78CFF0120FFF789FF1020FFF786FFE5
:10104000002504E00020FFF759FF681CC5B2802D81
:10105000F8DB601CC4B2082CE7DB70BD70B5044639
:10106000B02101EBE401C8B2FFF770FF0120FFF7E8
:101070006DFF1020FFF76AFF002504E00020FFF756
:101080003DFF681CC5B2802DF8DB70BD2DE9F04135
:1010900004460D461646B02101EBE501C8B2FFF744
:1010A00055FF0120FFF752FF1020FFF74FFF2746A3
:1010B00004E00020FFF722FF781CC7B2B742F8DB3C
:1010C000BDE8F08109E040F2375100BF0A00A1F10C
:1010D000010399B2FAD1421E90B20028F3D17047B1
:1010E00010B54021814801F0E0FF4FF480717E4847
:1010F00001F0DDFF3220FFF7E5FF4FF480717A4801
:1011000001F0D3FFAE20FFF721FF0020FFF71EFF05
:101110001020FFF71BFF4020FFF718FF8120FFF78B
:1011200015FFCF20FFF712FFA120FFF70FFFC82008
:10113000FFF70CFFA620FFF709FFA820FFF706FF27
:101140003F20FFF703FFD320FFF700FF0020FFF74A
:10115000FDFED520FFF7FAFE8020FFF7F7FED9202D
:10116000FFF7F4FEF120FFF7F1FEDA20FFF7EEFEC5
:101170001220FFF7EBFEDB20FFF7E8FE4020FFF731
:10118000E5FE2020FFF7E2FE0220FFF7DFFE8D20C4
:10119000FFF7DCFE1420FFF7D9FEA420FFF7D6FEF0
:1011A000A620FFF7D3FEAF20FFF7D0FE0020FFF709
:1011B0001CFF00210846FFF7F1FE10BD70B5054683
:1011C0000C462046E11704EB5171C910A4EBC10293
:1011D00001219140CEB2B02101EBE401C8B2FFF78A
:1011E000B5FE102141EA1510FFF7B0FE05F00F0023
:1011F000FFF7ACFE3046FFF781FE70BD70B50446C8
:101200000D461646B02101EBE501C8B2FFF79EFE80
:10121000102141EA1410FFF799FE04F00F00FFF7C8
:1012200095FE3046FFF76AFE70BD2DE9F047074690
:101230000C4690461D46DDF820A0E1103846FFF729
:10124000ADFE3E4613E0A146E11704EB5171C91013
:10125000A4EBC10201219140C8B2FFF74FFEBAF1E1
:10126000010F02D13220FFF72DFF701CC6B2464598
:10127000E9DDE9103846FFF791FE3E4613E0A94646
:10128000E91705EB5171C910A5EBC102012191408D
:10129000C8B2FFF733FEBAF1010F02D10520FFF704
:1012A00011FF701CC6B24645E9DDBDE8F0872DE9A7
:1012B000F04704468846154699464FF0000A002636
:1012C000002724E0E85D203800F0FF0A7E2C04DDD2
:1012D000002408F1010000F0FF0841462046FFF716
:1012E0005DFE00260DE0000000100140000C0140F2
:1012F0000AEB4A0109EB4101885DFFF7FFFD701C15
:10130000C6B2062EF4DBA01DC4B2781CC7B2E85DDD
:101310000028D7D1BDE8F0872DE9F04706460F46F3
:101320009046994600250024A24630E018F80A00AD
:101330002038C5B2782E02DD0026781CC7B23946A7
:101340003046FFF72BFE002406E009EB0511085D8F
:10135000FFF7D4FD601CC4B2082CF6DB07F10800CF
:10136000C1B23046FFF71AFE002407E009EB051171
:101370002144087AFFF7C2FD601CC4B2082CF5DBDB
:1013800006F10800C6B20AF1010000F0FF0A18F8E1
:101390000A000028CAD1BDE8F0872DE9F05F824637
:1013A0000F4690469946DDF828B000240026012516
:1013B0006DE00024012513E019F8040018F8061068
:1013C00088420BD109EB04004178701C18F800002A
:1013D000814203D1C4EBC400450005E0A01CC4B2A7
:1013E00019F804007F28E7DC00BFBAF1760F03DDAF
:1013F0004FF0000A781CC7B239465046FFF7CEFDC1
:10140000012D21D039465046FFF7C8FD002407E0E2
:101410001BF80500FFF772FD681C85B2601CC4B2A2
:101420000E2CF5DB781CC1B25046FFF7B7FD002447
:1014300007E01BF80500FFF761FD681C85B2601C22
:10144000C4B20E2CF5DB1CE0701CC6B23946504607
:10145000FFF7A4FD002404E00020FFF74FFD601C0F
:10146000C4B2102CF8DB781CC1B25046FFF796FDD1
:10147000002404E00020FFF741FD601CC4B2102CE2
:10148000F8DB0AF10E0000F0FF0AB01CC6B218F833
:10149000060000288DD1BDE8F09F2DE9F05F82465F
:1014A0000F4690469946DDF828B000240025012615
:1014B0006CE00024012611E019F8040018F805106A
:1014C000884209D109EB0400407808EB050149780E
:1014D000884201D1260105E0A01CC4B219F804001D
:1014E0007F28E9DC00BFBAF1760F03DD4FF0000A78
:1014F000781CC7B239465046FFF750FD012E22D066
:1015000039465046FFF74AFD002407E01BF8060065
:10151000FFF7F4FC701C86B2601CC4B2102CF5DB23
:1015200007F10800C1B25046FFF738FD002407E07C
:101530001BF80600FFF7E2FC701C86B2601CC4B208
:10154000102CF5DB1CE0681CC5B239465046FFF78D
:1015500025FD002404E00020FFF7D0FC601CC4B28D
:10156000102CF8DB781CC1B25046FFF717FD0024A1
:1015700004E00020FFF7C2FC601CC4B2102CF8DBB2
:101580000AF1100000F0FF0AA81CC5B218F8050007
:1015900000288ED1BDE8F09F2DE9FC47064688461D
:1015A000154699460A9F002438E0285D7F2817DDFC
:1015B000285D8DF80400281940788DF8050000207A
:1015C0008DF806005C485D4B01AA4146009030460C
:1015D000FFF763FF06F11000C6B2A01CC4B21DE005
:1015E000285D8DF8040000208DF80500012F09D139
:1015F000534B01AA41463046FFF78EFE06F1080024
:10160000C6B209E0032F07D14E4B01AA414630462E
:10161000FFF74DFEB01DC6B2601CC4B2285D0028A5
:10162000C3D1BDE8FC872DE9F04180460F46164640
:101630000024002539464046FFF7B0FC00BF06E015
:10164000705DFFF75BFC681CC5B2601CC4B2102C57
:10165000F6DB07F10800C1B24046FFF79FFC00240B
:1016600006E0705DFFF74AFC681CC5B2601CC4B29E
:10167000102CF6DBBDE8F0812DE9FC5F82460C46BC
:101680009146E01001902046E11704EB5171C9101A
:10169000A4EBC10189B20091002624E0F1B2002040
:1016A000FFF791FC4FEAC60B002718E00025A8467B
:1016B0000DE06D100BEB080000FB09A0C05D0128D8
:1016C00001D145F0800508F101001FFA80F8B8F15A
:1016D000080FEEDB2846FFF711FC781C87B24F4558
:1016E000E4DB701C86B201988642D7DBF1B20020A1
:1016F000FFF769FC4FEAC60B002719E00025A84652
:101700000DE06D100BEB080000FB09A0C05D012887
:1017100001D145F0800508F101001FFA80F800981A
:101720008045EEDB0098C0F108000541781C87B2C7
:101730004F45E3DBBDE8FC9F736F0008F26E0008C5
:1017400073770008CA6C000870B503460C4615464E
:1017500029461AE0585C2678B04200D014E00022F6
:1017600006E0521CA05C8E189E5DB04200D005E0E1
:10177000A05C18B18818185C0028F2D100BFA05CEA
:1017800008B9084670BD00BF491C585C0028E1D16B
:10179000401EF7E710B5BF480268521CBE49BF485B
:1017A00003F089F95021BC4803F0CAF910BD7CB59B
:1017B000FFF7F0FF0022BAA1B848FFF7C5FF0028E5
:1017C0004BDD0022B8A1B548FFF7BEFF002844DD7D
:1017D000B248807A30280CD1FEF7DEFF0020B349F2
:1017E0000860B349086000221146104600F0D4FB9F
:1017F0002BE0AA48407A3038072821D2DFE800F0F1
:1018000004080C1014181C000020A94908601BE0F3
:101810000120A749086017E00220A549086013E0ED
:101820000320A34908600FE00420A14908600BE0F1
:1018300005209F49086007E006209D49086003E0F5
:1018400000209B49086000BF00BF00209949087034
:101850005021924803F074F97CBD002296A18F4874
:10186000FFF772FF002829DD002293A18B48FFF7C4
:101870006BFF0446224691A18848FFF765FF0646A4
:10188000A6421ADD002000900190301BC21E834842
:101890002044C11C684603F00EF9684603F0FEF8C8
:1018A0000546C5F1B40086490860002081490870EA
:1018B00050217A4803F044F9CEE700BF00227AA114
:1018C0007648FFF741FF401C00287CD17348C07860
:1018D000312803D10520754908600AE06F48C078B7
:1018E000322803D106207149086002E000206F49C8
:1018F00008606A48C07931280CD1724800686430A9
:101900007049086008460068B0F57A7F02DD4FF440
:101910007A7008606148C07932280AD16948006845
:1019200064386849086008460068642801DA642061
:1019300008605A48407B312805D1012211461046E3
:1019400000F02AFB26E05548407B322805D10022D2
:101950001146012000F020FB1CE05048407B33285A
:1019600005D101220021084600F016FB12E04B4889
:10197000407B342805D100220121104600F00CFBE9
:1019800008E04648407B382804D100221146104622
:1019900000F002FB45480068052836D0434800683F
:1019A000062832D03D4840783038052828D2DFE874
:1019B00000F020030B12190001203C49086064204C
:1019C0003F49086020E062E0022038490860642056
:1019D0003B49086018E0012034490860322038494A
:1019E000086011E00120314908608C20344908600A
:1019F0000AE000202D49086064203149086003E0B6
:101A000000202A49086000BF00BF00202949087053
:101A10005021224803F094F824480068072832D265
:101A2000DFE800F004071C0C14212900FEF7B4FEC7
:101A30002CE024480068FEF797FE27E0322020497A
:101A4000086020480068FEF78FFE1FE08C201C49CC
:101A500008601C480068FEF787FE17E01948006818
:101A6000FEF788FE12E0322015490860154800682C
:101A7000FEF78CFE0AE08C201149086011480068CE
:101A8000FEF77EFE02E0FEF787FE00BF00BF00BF4C
:101A9000E2E600002C000020A4000020166D0020CB
:101AA0004D4F4445000000003457440064000020BE
:101AB000540000201800002050545A002300000059
:101AC000680000205C00002010B500F07DF800F0F8
:101AD00025F800F067F84821092000F049F900F0E6
:101AE000FEF800F0D4FB4FF4E130FEF7F2FC642086
:101AF00009490860FEF76EFC00F0C2FC00F0D0FC63
:101B0000FEF7D2FC00F031FEFFF7EAFA4FF4165070
:101B1000FEF72BFD10BD00006800002008B5012174
:101B2000382001F037FD4FF40060ADF800001020C0
:101B30008DF8030003208DF802006946874801F004
:101B400007FA4FF40061854801F0AFFA4FF4805076
:101B5000ADF800006946814801F0FAF94FF4805170
:101B60007E4801F0A2FA0420ADF8000069467C48E6
:101B700001F0EEF904217A4801F097FA01210920D9
:101B800001F008FD0121774801F0B3FA0820ADF813
:101B900000006946744801F0DBF90821724801F041
:101BA00084FA08BD08B50121082001F0F3FC1020DB
:101BB000ADF800008DF8030003208DF8020069469F
:101BC000694801F0C5F908BD08B50121042001F0FC
:101BD000E1FC0220ADF8000010208DF80300032086
:101BE0008DF802006946614801F0B2F90121042034
:101BF00001F0D0FC4020ADF8000010208DF803006B
:101C000003208DF802006946584801F0A1F901212E
:101C1000042001F0BFFC8020ADF8000010208DF8FA
:101C2000030003208DF802006946504801F090F946
:101C300008BD08B5012001F0E4FA002001F017FC0E
:101C4000002001F040F8002001F0DBFA0121112012
:101C500001F0A0FC4FF48040ADF8000004208DF8A6
:101C6000030002208DF8020069463C4801F070F93B
:101C70000121112001F08EFC4FF40050ADF800005E
:101C800004208DF8030002208DF8020069463348D5
:101C900001F05EF90121112001F07CFC4FF40040BD
:101CA000ADF8000004208DF8030002208DF802003A
:101CB00069462A4801F04CF90121082001F06AFC2C
:101CC0004FF48050ADF8000004208DF8030003208D
:101CD0008DF802006946244801F03AF908BD08B5BC
:101CE0000121042001F056FC1020ADF800008DF811
:101CF000030003208DF8020069461C4801F028F912
:101D00000121042001F046FC2020ADF80000042051
:101D10008DF8030003208DF802006946134801F096
:101D200017F908BD08B50121102001F033FC4FF46C
:101D30000050ADF8000048208DF8030003208DF816
:101D400002006946054801F003F900BF4FF4005155
:101D5000024801F090F90028F8D108BD00100140B8
:101D60000014014000023000000C01400008014056
:101D70007FB504460D460121C80201F00BFCADF809
:101D80000840681E80B2ADF804000020ADF80A00DB
:101D9000ADF806008DF80C0001A9734801F032FD82
:101DA00001221146704802F0A4F819208DF80000B5
:101DB00000208DF8010003208DF8020001208DF82D
:101DC0000300684600F0E3FC0121674802F076F862
:101DD0007FBD10B565480068400065490860012175
:101DE000614802F034FB00287ED001215E4802F0F9
:101DF0003FFB60480068401C5E4908605E48006820
:101E0000401C5D4908605D48006800EB400101EB43
:101E1000C00000F5FA700A2190FBF1F055490968FD
:101E2000884204DB1021564801F03FF903E01021FD
:101E3000534801F03CF95348006801281ED14D4831
:101E400000684B49096888420DDC00204E49086053
:101E500001204E49C1F888014D49086000204D49D4
:101E6000C1F8AC010AE00020474908604749C1F8C1
:101E70008801474908604749C1F8AC0141480068FA
:101E8000F0B93C4800683A49096888420DDC0120F5
:101E90003D49086000203D49C1F888013C4908607F
:101EA00001203C49C1F8AC010AE000203649086035
:101EB0003649C1F88801364908603649C1F8AC0195
:101EC00030480068022821D12A480068284909685A
:101ED000884210DC01202C49086000202B49C1F801
:101EE000880101202A4900E03CE0086000202949DF
:101EF000C1F8AC010AE00020234908602349C1F879
:101F00008801234908602349C1F8AC011D480068D5
:101F100003281FD1174800681549096888420EDC5C
:101F200000201949086001201849C1F888010020E3
:101F30001749086001201749C1F8AC010AE00020E8
:101F4000114908601149C1F8880111490860114917
:101F5000C1F8AC0107480068B0F5FA6F02D1002063
:101F60000449086010BD0000002C0140340000202E
:101F700088000020800000208400002068000020ED
:101F8000000C0140380000208C8121420080224258
:101F9000B00122420000224270B506460C461546AA
:101FA000012E04D10221884801F07FF803E00221CC
:101FB000854801F07CF8012C04D14021824801F0D1
:101FC00074F803E04021804801F071F8012D04D13C
:101FD00080217D4801F069F803E080217A4801F012
:101FE00066F870BD2DE9F04389B004460D461646EB
:101FF0001F46DDE910890121022001F0D8FA0121F4
:10200000092001F0C7FA0220ADF8200018208DF851
:10201000230003208DF8220008A96C4800F098FFE7
:10202000ADF81840ADF814500020ADF81A00ADF826
:10203000160005A9664801F0E5FB6020ADF8040034
:102040000120ADF806000020ADF80C00ADF80A0044
:1020500001A95F4801F0EDFC08215D4802F07DF820
:1020600001215B4801F02AFF0121022001F09FFAC3
:102070000121092001F08EFA0120ADF8200018207E
:102080008DF8230003208DF8220008A94F4800F0A6
:102090005FFFADF81860ADF814700020ADF81A00BD
:1020A000ADF8160005A94A4801F0ACFB6020ADF878
:1020B00004000120ADF806000020ADF80C00ADF8DA
:1020C0000A0001A9424801F069FC0821404802F0D9
:1020D0003BF801213E4801F0F1FE0121022001F010
:1020E00066FA0121052001F055FA8020ADF82000A4
:1020F00018208DF8230003208DF8220008A932480B
:1021000000F026FFADF81880ADF814900020ADF86F
:102110001A00ADF8160005A92D4801F073FB6020E8
:10212000ADF804000120ADF806000020ADF80C0069
:10213000ADF80A0001A9264801F0E3FB0821244874
:1021400001F0F5FF0121224801F0B8FE09B0BDE819
:10215000F0832DE9F04706460C461546304604F05C
:10216000D5FB82461B4904F031FC0746204604F0AB
:10217000CDFB8246174904F029FC8046284604F02E
:10218000C5FB8246134904F021FC8146384604F021
:1021900081FB1FFA80FA51460D4802F02DF94046A6
:1021A00004F078FB1FFA80FA5146094802F022F940
:1021B000484604F06FFB1FFA80FA5146044802F0CB
:1021C00017F9BDE8F087000000080140000C01404D
:1021D00000040040DBF97A402DE9F05F0024A146BD
:1021E000A34649E01021A24800F05FFF1420FEF74B
:1021F0000AF910219E4800F05AFF00BF20219C4898
:1022000000F039FF0028F9D00121880701F056FEBF
:102210000BF1010B00BF2021954800F02CFF012895
:10222000F9D000214FF0804001F048FE4FF080408F
:1022300002F0FBF882468F49096801EB4102C2EBCC
:10224000C1110AEBC10003F0CDFF074600228A4B03
:1022500003F070FE054603F093FD04464946204610
:1022600004F0E8F9814600204FF0804188848149DC
:1022700008600120FEF7EBF8BBF1050FB2D17F49F2
:10228000484604F045FA04462046BDE8F09F1FB5D5
:102290000121084601F08BF94FF0804001F0DEF992
:1022A00040F2E730ADF808004720ADF80400002008
:1022B000ADF80A00ADF8060001A94FF0804001F02A
:1022C000A1FA01221146900701F013FE4FF4A0601D
:1022D00000F058FA00208DF801008DF802001C2053
:1022E0008DF8000001208DF80300684600F04FFAD9
:1022F00000214FF0804001F0E1FD1FBD10B501212C
:10230000880702F0A4F840B10121880702F0B0F874
:1023100058480068401C5749086010BD2DE9F04737
:1023200000BF1021524800F0C0FE1420FEF76BF8E9
:1023300010214F4800F0BBFE00BF20214C4800F0A8
:102340009AFE0028F9D00121880701F0B7FD00BFEF
:102350002021474800F08FFE0128F9D000214FF0DE
:10236000804001F0ABFD4FF0804002F05EF8044683
:102370004049096801EB4102C2EBC11104EBC10005
:1023800003F030FF074600223B4B03F0D3FD054628
:1023900003F0F6FC814600204FF0804188843549E7
:1023A00008600120FEF753F84846BDE8F08770B595
:1023B0000B46002113E04A1C0EE050F8215050F863
:1023C0002260B54207D950F8214050F8225040F819
:1023D000215040F82240521C9A42EEDB491C5D1EFF
:1023E0008D42E8DC70BD70B586B0142101A802F002
:1023F000C9FB002426E0FFF791FF054602E0FFF746
:102400008DFF0546284604F045FAB0F5FA7FF6DA66
:10241000284604F03FFA0028F1D00021284604F0B5
:10242000A1FB05D3284604F035FAB0F5FA7F09DAA6
:10243000284604F04BFA01A941F82400641C0A2044
:10244000FEF705F8052CD6DB0024052101A8FFF7CF
:10245000AEFFDDE902010844049908440321B0FB02
:10246000F1F6304604F06AFA0546284606B070BD1B
:10247000000801408C00002000004D400000A040FA
:1024800008B50121102001F085F81020ADF80000FA
:1024900000208DF803006946914800F059FD08BD01
:1024A00000B585B001214FF4047001F073F84FF4CA
:1024B000004000F0D3FFFFF7E3FF8A4800F0D0F9B7
:1024C000002000908DF804008DF805004FF4602086
:1024D00002900020039001208DF810006946814889
:1024E00000F0E5F901217F4800F00DFA7D4800F089
:1024F0002CFA00BF7B4800F02DFA0028FAD1794869
:1025000000F032FA00BF774800F033FA0028FAD121
:1025100005B000BD10B504460723012221467148CD
:1025200000F05DFA01216F4800F02DFA00BF022192
:102530006C4800F099FB0028F9D06A4800F0B6FA20
:1025400010BD2DE9F04107460C460025002608E0A5
:102550003846FFF7DFFF05440520FDF778FF701CC4
:10256000C6B2A642F4DBB5FBF4F080B2BDE8F08160
:102570002DE9F0470A210E20FFF7E3FF8146484688
:1025800004F0DCF9824604F029F807464FF0663281
:10259000554B03F03BFE054603F0F2FB0446204694
:1025A000BDE8F0872DE9F041FFF76AFFFFF7E0FF94
:1025B0000446204604F012F8054600224B4B03F077
:1025C00025FE074603F0DCFB04462046BDE8F0810B
:1025D0002DE9F04186B0FFF7E5FF0746384604F0E5
:1025E00059F90A2190FBF1F03030C0B2059038461D
:1025F00004F050F90A2190FBF1F201FB1200303097
:10260000C0B20490384604F045F9804604F07EF9E3
:102610000646394604F0D7FA0546354904F0D6F99E
:10262000044604F037F90A2190FBF1F201FB120095
:102630003030C0B20390384604F02CF9804604F0E4
:1026400065F90646394604F0BEFA0546294904F004
:10265000BDF9044604F01EF90A2190FBF1F201FBDA
:1026600012003030C0B202900120022322A20021C9
:1026700000900846FEF790FF0120022305AA1021D2
:1026800000900820FEF788FF0120022304AA1021F1
:1026900000900846FEF780FF0120022319A21021B6
:1026A00000901820FEF778FF0120022303AA1021D2
:1026B00000902020FEF770FF0120022302AA1021C3
:1026C00000902820FEF768FF012002230EA21021AF
:1026D00000903020FEF760FF06B0BDE8F0810000FA
:1026E000001001400024014066664A3F000010408F
:1026F000000020410000C842D1C7B2A9D6C7C4DC3F
:10270000000000002E000000B7FCCCD80000000044
:1027100008B50121192000F03DFF0121154800F006
:10272000E8FC0121144800F0E4FCC020ADF80000F2
:1027300010208DF8030003208DF8020069460F4831
:1027400000F006FC40F20130ADF8000010208DF8DA
:10275000030003208DF802006946094800F0F8FBE9
:102760000121074800F0A3FC08BD10B5FFF7D0FF1A
:1027700010BD00000004300000023000000C0140D9
:102780000010014031490143314A1160704770B572
:10279000002100230F22C47804B32D4C246804F4D4
:1027A000E064C4F5E064210AC1F10403CA4044783E
:1027B00004FA03F18478144021430901254C06787A
:1027C000A155047804F01F050124AC4005786D1173
:1027D000AD0005F1E025C5F8004109E0047804F0FA
:1027E0001F050124AC401C4D0678761145F82640A3
:1027F00070BD1A4A0A400243154B1B1F1A607047EE
:1028000039B1134A121D12680243114B1B1D1A6085
:1028100006E00F4A121D126882430D4B1B1D1A6001
:102820007047042808D14FF0E021096941F0040104
:102830004FF0E022116107E04FF0E021096921F03B
:1028400004014FF0E0221161704700000000FA051A
:102850000CED00E000E400E080E100E080FFFF1FFD
:1028600010B50446FA48844208D10121401500F011
:10287000ABFE0021601500F0A7FE17E0F54884428A
:1028800008D10121001500F09FFE0021201500F065
:102890009BFE0BE0F048844208D10121C80300F000
:1028A00093FE00214FF4004000F08EFE10BD30B5C5
:1028B0000246002000235068E84C20400D790C6847
:1028C00044EA0524204350609068E54C2040D1E95B
:1028D00002542C434D7944EA450420439060D06A69
:1028E00020F470000C7C641EE4B2234340EA0350E1
:1028F000D06230BD00210160017141718160C16011
:1029000001210174704721B1826842F001028260A6
:1029100003E0826822F001028260704721B1826880
:1029200042F48072826003E0826822F480728260E6
:10293000704710B50023CBB21AB144681C43446001
:1029400002E044689C43446010BD816841F0080186
:1029500081607047014600208A6802F008020AB1CF
:10296000012000E000207047816841F0040181608F
:102970007047014600208A6802F004020AB1012073
:1029800000E00020704721B1826842F4A00282601A
:1029900003E0826822F4A0028260704701460020B2
:1029A0008A6802F480020AB1012000E0002070472A
:1029B00010B50A4600210023416821F46041531EEE
:1029C00041EA4331416010BD21B1426842F40062E6
:1029D000426003E0426822F4006242607047F0B552
:1029E00004460D4600200021092D11DDE068A5F107
:1029F0000A0606EB4607072606FA07F18843A5F103
:102A00000A0606EB460603FA06F10843E0600CE00E
:102A1000206905EB4507072606FA07F1884305EB11
:102A2000450603FA06F108432061072A0FDA606BB6
:102A3000561E06EB86071F2606FA07F18843561E28
:102A400006EB860605FA06F10843606322E00D2ACC
:102A50000FDA206BD61F06EB86071F2606FA07F152
:102A60008843D61F06EB860605FA06F10843206365
:102A700010E0E06AA2F10D0606EB86071F2606FAB3
:102A800007F18843A2F10D0606EB860605FA06F16A
:102A90000843E062F0BD21B1826842F48012826096
:102AA00003E0826822F48012826070470146C86C9D
:102AB00080B2704766484C300068704721B1426868
:102AC00042F48062426003E0426822F48062426025
:102AD000704721B1426842F48052426003E042688C
:102AE00022F48052426070470A460021816821F436
:102AF000E04111438160704721B1826842F4004295
:102B0000826003E0826822F400428260704721B153
:102B1000826842F40212826003E0826822F40212A8
:102B200082607047014600208A6802F400120AB1F0
:102B3000012000E000207047F0B504461546002053
:102B400000220026092911DDE068A1F10A0707EB40
:102B5000470C072707FA0CF29043A1F10A0707EB8D
:102B6000470703FA07F21043E0600CE0206901EB2D
:102B7000410C072707FA0CF2904301EB410703FAD7
:102B800007F210432061A06BC0F30156EF1C06F161
:102B9000010CA7EB0C0707EB870C1F2707FA0CF2B9
:102BA0009043EF1C06F1010CA7EB0C0707EB87071E
:102BB00001FA07F21043A063F0BD10B50A460021E8
:102BC0000023816B21F44011531E41EA03518163BC
:102BD00010BD08B5002300930090009B0B440093A8
:102BE000009B1A6008BD08B50246002000900092C4
:102BF00001F12800009B184400900098006880B202
:102C000008BD0A4600214168164B19401143416036
:102C100070474162826270470A460021416821F094
:102C20001F0111434160704740B1094908310968EB
:102C300041F40001064A0832116007E004490831F6
:102C4000096821F40001024A08321160704700004F
:102C50000024014000280140003C0140FFFEF0FF3D
:102C6000FDF7F1FFFFFD3FFF0246002013680B4018
:102C70000BB1012000E000207047CA43026070479A
:102C800070B502460020002300240B125568CEB216
:102C900005EA060415681D4015B10CB1012000E0DD
:102CA000002070BD00220A12D34303607047000069
:102CB00010B5012000F0A2FC002000F09FFC10BD28
:102CC0002A49086070472949091F08607047274949
:102CD00084310860704701460020254A10884FF66D
:102CE0007F4210400843224A10807047014600206E
:102CF0001F4A10884FF68072104008431C4A10800B
:102D0000704708B500220092194A2C3A0092009AA6
:102D100002440092009A116008BD08B501460020E7
:102D2000009013482C3800900098084400900098B8
:102D3000008808BD0D489C300068C0B270470C4840
:102D40000830008840F001000949083108807047C8
:102D50000648A0300068C0B27047054808300088B7
:102D600040F00200024908310880704704860D4295
:102D70002C6C0040002044490860091D0860091DB2
:102D80000860091D086041483F49143108607047D8
:102D900000213D498279002A3AD00A461268036828
:102DA0009A430B461A600A1D126803689A430B1D6A
:102DB0001A60027911440A6803681A430A60324AA9
:102DC0000832126803689A432F4B08331A601A1DA1
:102DD000126803689A432C4B0C331A604279102A0C
:102DE0000ED11A1F126803681A43274B08331A6062
:102DF0001A1D126803681A43234B0C331A600DE046
:102E00002149427911440A6803681A430A6005E0BF
:102E1000027911440A6803689A430A6070470021E6
:102E2000016001710C2141710021817170471649C7
:102E3000103109680143144A10321160704701468D
:102E40000020114A143212680A400AB1012000E041
:102E5000002070470C49143108607047014600207B
:102E60000022094B1B6803EA0102074B14331B685D
:102E70000B4013B10AB1012000E000207047024965
:102E8000143108607047000000040140FFFF0F008C
:102E900010B50446CC48844208D10121042000F03A
:102EA00093FB0021042000F08FFB46E0C7488442DA
:102EB00008D10121082000F087FB0021082000F044
:102EC00083FB3AE0C248844208D10121102000F07F
:102ED0007BFB0021102000F077FB2EE0BD488442F0
:102EE00008D10121202000F06FFB0021202000F0FC
:102EF0006BFB22E0B848844208D10121402000F059
:102F000063FB0021402000F05FFB16E0B3488442E1
:102F100008D10121802000F057FB0021802000F023
:102F200053FB0AE0AE48844207D10121801500F02E
:102F30004BFB0021A01500F047FB10BD10B501218F
:102F4000084600F041FB0021012000F03DFB10BDD0
:102F50002DE9F04102460025002600200023002430
:102F6000002791F803C00CF00F0591F803C00CF096
:102F7000100CBCF1000F03D091F802C04CEA05051B
:102F800091F800C0BCF1000F31D0146800202BE094
:102F90004FF0010C0CFA00F3B1F800C00CEA030684
:102FA0009E4220D183004FF00F0C0CFA03F7BC4374
:102FB00005FA03FC4CEA040491F803C0BCF1280FA5
:102FC00006D14FF0010C0CFA00FCC2F814C00AE064
:102FD00091F803C0BCF1480F05D14FF0010C0CFA79
:102FE00000FCC2F810C0401C0828D1D31460B1F80E
:102FF00000C0BCF1FF0F34DD546800202EE000F16A
:10300000080C4FF0010808FA0CF3B1F800C00CEA04
:1030100003069E4221D183004FF00F0C0CFA03F7F8
:10302000BC4305FA03FC4CEA040491F803C0BCF16C
:10303000280F05D100F1080C08FA0CF8C2F814802A
:1030400091F803C0BCF1480F07D100F1080C4FF014
:10305000010808FA0CF8C2F81080401C0828CED3EA
:103060005460BDE8F0814FF6FF710180022181704C
:103070000421C17070470246002093680B400BB1D9
:10308000012000E0002070470146886880B2704748
:1030900002460020D3680B400BB1012000E0002065
:1030A00070470146C86880B270470161704741614E
:1030B00070470AB1016100E041617047C16070472B
:1030C0004FF480320A438261816182618269826940
:1030D000704702460020434B18684FF68073184033
:1030E00040EA021008433F4B186070473E49C861F0
:1030F0007047F0B50A46002300240021002500F0A7
:103100000046B6F1004F02D1364EF16901E0354E6E
:103110007168C0F3034583B200F44016B6F5401F52
:1031200008D121F070612F4E766826F070662D4F21
:103130007E6012E000F48016B6F5801F06D10326EB
:1031400006FA05F4A14341F0706106E0460D360130
:1031500003FA06F6B14341F0706122B1460D360123
:1031600003FA06F6314300F00046B6F1004F02D1F3
:103170001C4EF16101E01B4E7160F0BD30B50022C4
:103180008B071C0F0F2303FA04F2164B08338C1025
:1031900053F824309343134C08348D1044F82530F1
:1031A00023468C1053F824308C07240F00FA04F4C3
:1031B00023430C4C08348D1044F8253030BD0A49A7
:1031C000DC3108607047000000080140000C01403D
:1031D000001001400014014000180140001C014093
:1031E00000200140000001400000204210B50121F4
:1031F000080700F0F6F900214FF0805000F0F1F9D7
:1032000010BD2A4908627047284908617047014685
:103210000020274A106820F0E00008431060704743
:103220002249A0310860704710B502460020204BAB
:10323000186820F00300104318601E4B1B6843F011
:1032400004031C4C2360012901D130BF00E020BFE2
:10325000184B1B6823F00403164C236010BD144860
:10326000006840F00400124908600846006840F019
:10327000020008600F48006840F004000D49086033
:1032800000BF00BF30BF704701460020084A5268A7
:103290000A400AB1012000E0002070470449096893
:1032A00041EA8001024A11607047000000000E42AE
:1032B0000070004010ED00E0DF48006840F00100C1
:1032C000DD49086008464068DC490840DA49486042
:1032D00008460068DA490840D7490860084600688F
:1032E00020F4802008600846406820F4FE00486012
:1032F0004FF41F0088607047CF49096821F480317E
:10330000CD4A11601146096821F480211160B0F5A1
:10331000803F03D0B0F5802F0ED106E0C649096882
:1033200041F48031C44A116007E0C349096841F49F
:10333000A021C14A116000E000BF00BF704710B576
:1033400001460022002300204A11012A02D1BA4C72
:10335000236806E0022A02D1B74C236A01E0B64C8A
:10336000636A01F01F02012494401C400CB101204B
:1033700000E0002010BD38B500200090002400259A
:1033800000BF3120FFF7DBFF05460098401C00908E
:103390000098B0F5A06F01D0002DF2D03120FFF7DA
:1033A000CEFF08B1012400E00024204638BD0146CC
:1033B0000020A14A106820F0F80040EAC100106027
:1033C0007047A04908607047024600209A4B586831
:1033D00020F47C1042EA01031843974B5860704771
:1033E00098490866704701460020934A506820F0CB
:1033F00003000843506070478F48406800F00C009D
:103400007047014600208C4A506820F0F0000843C5
:103410005060704701460020874A506820F4E06001
:1034200008435060704701460020834A506820F4EA
:10343000605040EAC1005060704729B17E4A527A1C
:1034400002437D4B5A7204E07B4A527A82437A4BA4
:103450005A7270477B49D831086070470146002096
:10346000754A506820F4404008435060704700217E
:10347000714A20321170704A82F82010012802D05F
:1034800004280AD104E001216B4A2032117005E0C2
:103490000521694A2032117000E000BF00BF70476B
:1034A0006949086070476449096A0143624A1162C8
:1034B0007047654944390860704730B500210022E3
:1034C000002400235C4D6D6805F00C0121B1042936
:1034D00005D0082923D105E05C4D056022E05B4D55
:1034E00005601FE0544D6D6805F47012524D6D6813
:1034F00005F48034022505EB92421CB9544D554326
:1035000005600BE04C4D6D6805F400351DB1504D64
:103510005543056002E04D4D5543056002E04B4DBB
:10352000056000BF00BF444D6D6805F0F00109095A
:10353000484D6B5C0568DD4045603F4D6D6805F4A6
:10354000E061090A434D6B5C4568DD4085603A4D9A
:103550006D6805F46051C90A3E4D6B5C4568DD40FD
:10356000C560354D6D6805F44041890B3A4D6B5C83
:10357000C568B5FBF3F5056130BD29B12E4A526926
:1035800002432D4B5A6104E02B4A526982432A4B75
:103590005A61704729B1284A92690243264B9A61C1
:1035A00004E0254A92698243234B9A61704729B10E
:1035B000214AD2690243204BDA6104E01E4AD269F3
:1035C00082431D4BDA61704729B11B4AD26802431E
:1035D000194BDA6004E0184AD2688243164BDA606D
:1035E000704729B1144A12690243134B1A6104E06F
:1035F000114A12698243104B1A61704712494039CF
:10360000086070470F49C86470470B49C87170471C
:103610000948406A40F08070074948627047014697
:103620000020054A92680A400AB1012000E000200B
:103630007047014988727047001002400000FFF88F
:10364000FFFFF6FE000042428004424200127A0070
:1036500000093D0090000020A000002010B50446A5
:10366000FE48844208D10121C014FFF7ADFF0021BC
:10367000E014FFF7A9FFC4E0B4F1804F08D10121A5
:103680000846FFF7AEFF00210120FFF7AAFFB8E0D0
:10369000F348844208D101210220FFF7A2FF002154
:1036A0000220FFF79EFFACE0EE48844208D10121E2
:1036B0000420FFF796FF00210420FFF792FFA0E00F
:1036C000E948844208D101210820FFF78AFF002140
:1036D0000820FFF786FF94E0E448844208D10121E6
:1036E0001020FFF77EFF00211020FFF77AFF88E00F
:1036F000DF48844208D101212020FFF772FF00211A
:103700002020FFF76EFF7CE0DA48844208D10121D7
:103710004014FFF759FF00216014FFF755FF70E0D8
:10372000D548844209D10121C804FFF74DFF00218B
:103730004FF40020FFF748FF63E0D048844209D1EE
:1037400001210805FFF740FF00214FF48010FFF72B
:103750003BFF56E0CA48844209D101214805FFF7E2
:1037600033FF00214FF40010FFF72EFF49E0C5485A
:10377000844208D101214020FFF733FF002140207F
:10378000FFF72FFF3DE0C048844208D1012180208F
:10379000FFF727FF00218020FFF723FF31E0BB4820
:1037A000844208D101218015FFF71BFF0021A015DD
:1037B000FFF717FF25E0B648844209D1012108042C
:1037C000FFF702FF00214FF48030FFF7FDFE18E005
:1037D000B048844209D101214804FFF7F5FE0021D9
:1037E0004FF40030FFF7F0FE0BE0AB48844208D105
:1037F00001218804FFF7E8FE00214FF48020FFF745
:10380000E3FE10BD00220288944B98420ED0994BE3
:1038100098420BD0B0F1804F08D0914B984205D020
:10382000904B984202D0904B984204D14FF68F7340
:103830001A404B881A438D4B984207D08C4B9842C4
:1038400004D04FF6FF431A40CB881A4302808B887E
:1038500083850B880385814B98420BD0854B98421A
:1038600008D08B4B984205D08A4B984202D08A4BA5
:10387000984201D10B7A038601238382704770B589
:10388000002400220023058C4FF6FE763540058487
:10389000028C8388048B4FF68F752C40B51E2C400C
:1038A0000D882C43751E2A400D892A434D882A43D2
:1038B0006A4DA8420BD06F4DA84208D0744DA84263
:1038C00005D0744DA84202D0734DA84213D14FF6D3
:1038D000F7752A404D892A434FF6FB752A408D889B
:1038E0002A434FF6FF652B404FF6FF552B408D893D
:1038F0002B43CD892B4383800483CD888586028426
:1039000070BD70B5002400220023058C4FF6EF76C1
:1039100035400584028C8388048B48F6FF752C4063
:103920004FF6FF452C400D884FF6FF7606EA052539
:103930002C434FF6DF752A400D8906EA05152A4308
:103940004D8806EA05152A43444DA84202D0494D48
:10395000A8421DD14FF67F752A404D894FF6FF765C
:1039600006EA05152A434FF6BF752A408D8806EAF8
:1039700005152A434FF6FF352B404FF2FF752B40BC
:103980008D8906EA85052B43CD8906EA85052B43FB
:1039900083800483CD880587028470BD70B50024C0
:1039A00000220023058C4FF6FF6635400584028C0B
:1039B0008388848B4FF68F752C404FF6FC752C4016
:1039C0000D882C434FF6FF552A400D894FF6FF76A0
:1039D00006EA05252A434D8806EA05252A431F4D98
:1039E000A84202D0234DA8421DD14FF2FF752A40B4
:1039F0004D894FF6FF7606EA05252A434FF6FF3537
:103A00002A408D8806EA05252A434EF6FF752B408D
:103A10004DF6FF752B408D8906EA05152B43CD89A0
:103A200006EA05152B4383808483CD88858702842D
:103A300070BD70B5002200230024058C4EF6FF7681
:103A400035400584038C8488828B48F6FF752A40B4
:103A50004FF6FF452A400D8820E00000002C014071
:103A60000004004000080040000C0040001000402E
:103A70000014004000340140004C0140005001405F
:103A80000054014000180040001C0040002000408D
:103A90000040014000440140004801404FF6FF76DD
:103AA00006EA05252A434DF6FF752B400D8906EAE7
:103AB00005352B434D8806EA05352B43FA4DA842C0
:103AC00002D0FA4DA84208D14BF6FF752C408D89E3
:103AD0004FF6FF7606EA85152C4384808283CD88D5
:103AE000A0F84050038470BD828B4FF2FF331A4020
:103AF0008283828B4FF6FF7303EA01231A4382838A
:103B00007047F0B50C461546002200210026078CB0
:103B10004EF6FF7C07EA0C070784828B018C4FF678
:103B2000FF7707EA043640F6FF473A404FF6FF7743
:103B300007EA05273A434FF6FF7707EA03373A4388
:103B4000D94FB8420ED0D94FB8420BD0B0F1804F08
:103B500008D0D74FB84205D0D64FB84202D0D64F82
:103B6000B84206D14DF6FF77394046F480573943C5
:103B700005E047F6FF57394044F4805739438283C4
:103B80000184F0BD828B4FF6F3731A408283828BDF
:103B90000A4382837047F0B50C4615460022002187
:103BA0000026078C4FF6FF6C07EA0C070784828B10
:103BB000018C4FF6FF7707EA04264FF60C773A4060
:103BC0004FF6FF7707EA03172F433A43B64FB84241
:103BD0000ED0B64FB8420BD0B0F1804F08D0B44FE2
:103BE000B84205D0B34FB84202D0B34FB84206D165
:103BF0004FF6FF57394046F48077394305E04FF2DE
:103C0000FF57394044F48077394382830184F0BD03
:103C1000028B4FF2FF331A400283028B4FF6FF7381
:103C200003EA01231A4302837047F0B50C46154698
:103C3000002200210026078C4FF6EF7C07EA0C07D4
:103C40000784028B018C4FF6FF7707EA041640F6D3
:103C5000FF473A404FF6FF7707EA03373A434FF6FC
:103C6000FF7707EA05273A438F4FB8420ED08F4FB0
:103C7000B8420BD0B0F1804F08D08D4FB84205D07C
:103C80008C4FB84202D08C4FB84206D14FF6DF7746
:103C9000394046F01007394305E04FF65F77394069
:103CA00044F01007394302830184F0BD028B4FF6C4
:103CB000F3731A400283028B0A4302837047F0B504
:103CC0000C46154600220021068C4FF6FE773E403A
:103CD0000684028B018C4FF60C7632407E1C06EA7D
:103CE00003162E433243704EB0420ED06F4EB04298
:103CF0000BD0B0F1804F08D06D4EB04205D06D4E64
:103D0000B04202D06C4EB04206D14FF6FD76314043
:103D100044F00106314305E04FF6F576314044F0BA
:103D20000106314302830184F0BD70B505460C469F
:103D30005D4885420ED05D4885420BD0B5F1804F7D
:103D400008D05B48854205D05A48854202D05A487F
:103D5000854200D100E000BF208850B92389A288A5
:103D600061882846FFF7ABFFE1882846FFF79EFFF2
:103D700025E0208804280AD12389A2886188284662
:103D8000FFF753FFE1882846FFF742FF17E020883E
:103D900008280AD12389A28861882846FFF7FBFEFC
:103DA000E1882846FFF7EEFE09E02389A2886188B2
:103DB0002846FFF7A6FEE1882846FFF795FE70BD6E
:103DC0002DE9F04105460C4600260127608808B918
:103DD000022600E00026A088012801D1022700E089
:103DE00001272088A0B92389A28861882846FFF787
:103DF00066FFE1882846FFF759FF23893A46314696
:103E00002846FFF712FFE1882846FFF701FF13E07D
:103E10002389A28861882846FFF707FFE1882846A2
:103E2000FFF7F6FE23893A4631462846FFF747FF5B
:103E3000E1882846FFF73AFFBDE8F0810A884B8801
:103E40001A438B881A43CB881A430B891A434B8930
:103E50001A438B891A43A0F8442070474FF6FF712C
:103E6000818000210180C180418001727047002162
:103E7000018041808180C180018141818181C18136
:103E80007047002101804180012181800021C18093
:103E9000018170470021018041808180C1800181C2
:103EA0004181818170470000002C014000340140B5
:103EB0000004004000080040000C004021B10288CE
:103EC00042F00102028004E002884FF6FE731A40BD
:103ED0000280704731B1B0F8442042F40042A0F8AB
:103EE000442005E0B0F84420C2F30E02A0F84420BC
:103EF00070471AB183890B43838102E083898B4326
:103F0000838170478182704741EA0203A0F84830FC
:103F100070471AB183890B43838102E083898B4305
:103F20008381704701894FF6F87211400181704713
:103F30000A46002101894FF68F7319401143018110
:103F4000704730B504460D4629462046FFF7F0FF7E
:103F5000208940F00700208130BD2DE9F041044662
:103F60000D4616461F46602D06D13B4601223146BE
:103F70002046FFF75AFE05E03B4601223146204627
:103F8000FFF79DFE29462046FFF7D2FF208940F02B
:103F900007002081BDE8F08130B50C460021018981
:103FA000C9B24FF6FF7505EA03251543254329439A
:103FB000018130BD2DE9F04105460E461746984671
:103FC000002443463A4631462846FFF7E5FF2C8950
:103FD0004FF6F870044044F007044FF68F70044029
:103FE00044F070042C81BDE8F081F0B504460D4624
:103FF00016461F463B46324629462046FFF7CCFF71
:10400000208940F480402081F0BD01858282704784
:104010000A46002101884FF68F7319401143018031
:104020007047F0B50C4615461E46002100220023BD
:104030000189028B038C4FF6F877394021434FF604
:10404000FC473A4040F201173A434FF6DD773B40D8
:104050004FF6FF7707EA06172F433B4301810283A0
:104060000384F0BD0A460021018B4FF68F7319407F
:104070001143018370470A460021018B48F6FF7304
:1040800019404FF6FF7303EA022319430183704777
:104090000A460021818B4FF68F73194011438183AB
:1040A00070470A460021818B48F6FF7319404FF68E
:1040B000FF7303EA022319438183704721B1028809
:1040C00042F08002028004E002884FF67F731A40BB
:1040D0000280704721B1828842F00402828004E0AD
:1040E00082884FF6FB731A408280704721B1828824
:1040F00042F00802828004E082884FF6F7731A408B
:104100008280704721B1828842F00102828004E0FF
:1041100082884FF6FE731A40828070470A4600215B
:10412000018B4FF6F77319401143018370470A461C
:104130000021018B4FF2FF7319404FF6FF7303EA22
:1041400002231943018370470A460021818B4FF6F1
:10415000F77319401143818370470A460021818B10
:104160004FF2FF7319404FF6FF7303EA022319431E
:10417000818370470A460021018B4FF6FB7319407B
:104180001143018370470A460021018B4FF6FF332C
:1041900019404FF6FF7303EA022319430183704766
:1041A0000A460021818B4FF6FB731940114381832E
:1041B00070470A460021818B4FF6FF3319404FF6B6
:1041C000FF7303EA02231943818370470A460021E3
:1041D000018B4FF67F7319401143018370470A46E4
:1041E0000021018BC1F30E014FF6FF7303EA022396
:1041F0001943018370470A460021818B4FF67F7374
:1042000019401143818370470A460021818BC1F315
:104210000E014FF6FF7303EA0223194381837047AF
:104220000A460021018C4FF6FD73194011430184A9
:1042300070470A460021018C4FF6F773194011436D
:10424000018470470A460021018C4FF6DF73194044
:104250004FF6FF7303EA02131943018470470A46BD
:104260000021018C4FF67F7319404FF6FF7303EA6C
:1042700002131943018470470A460021018C4FF64E
:10428000FF5319404FF6FF7303EA022319430184D9
:1042900070470A460021018C4FF2FF7319404FF618
:1042A000FF7303EA02231943018470470A46002181
:1042B000018C4DF6FF7319404FF6FF7303EA02338A
:1042C00019430184704730B5002301248C40A3B208
:1042D000048C9C430484048C02FA01F5ADB22C4397
:1042E000048430BD30B5002304248C40A3B2048C78
:1042F0009C430484048C02FA01F5ADB22C4304847F
:1043000030BD70B503460020002418461830012542
:104310008D40ACB21D8CA5431D8409B1082909D17B
:1043200000EB6100056825F0700505600568154320
:1043300005600EE00D1FC5F34E052844056825F401
:10434000E045056005684FF6FF7606EA022635432C
:10435000056070BD21B1028842F00202028004E0D3
:1043600002884FF6FD731A400280704721B102881F
:1043700042F00402028004E002884FF6FB731A4008
:104380000280704721B1828842F08002828004E07E
:1043900082884FF67F731A408280704702884FF6FA
:1043A000F7731A40028002880A43028070478288AD
:1043B0004FF68F731A40828082880A43828070474A
:1043C00002894FF6F8731A40028102890A4302817A
:1043D000704702894FF67F731A40028102890A43AF
:1043E000028170478184704781857047818670475C
:1043F0000187704781877047A0F840107047028896
:104400004FF6FF431A40028002880A430280704739
:104410000146888E70470146088F70470146888F95
:1044200070470146B1F8400070470146888C7047DC
:104430000146088D704702460020138A0B400BB1DD
:10444000012000E000207047CA430282704730B567
:104450000246002000230024158A05EA01039589FD
:1044600005EA010413B10CB1012000E0002030BDC9
:10447000CA4302827047000010B50446FB488442DC
:1044800009D101218803FFF79FF800214FF48040F4
:10449000FFF79AF832E0F648844209D10121480436
:1044A000FFF79FF800214FF40030FFF79AF825E05E
:1044B000F048844209D101218804FFF792F80021D5
:1044C0004FF48020FFF78DF818E0EB48844209D1C3
:1044D0000121C804FFF785F800214FF40020FFF701
:1044E00080F80BE0E548844208D101210805FFF778
:1044F00078F800214FF48010FFF773F810BD2DE914
:10450000F04786B005460E460024A24600BFA146ED
:104510000027B08900B100BF2F462C8A4CF6FF70EF
:104520000440F08804432C82AC894EF6F31004401A
:10453000B08831890843718908430443AC81AC8A4F
:104540004FF6FF400440B0890443AC8201A8FEF757
:10455000B4FFC648874202D1DDF810A001E0DDF8C3
:104560000CA0A88900F4004040B10AEBCA0000EB9F
:104570000A1031684900B0FBF1F807E00AEBCA0005
:1045800000EB0A1031688900B0FBF1F86420B8FB39
:10459000F0F004012009642101FB1089A88900F4CE
:1045A000004040B1322000EBC900B0FBF1F000F058
:1045B0000700044308E0322000EB09106421B0FB3F
:1045C000F1F000F00F0004432C8106B0BDE8F08745
:1045D0004FF41651016000218180C18001810C21BE
:1045E000418100218181704710B502460020108A68
:1045F0004FF2FF0318400B884C8823438C882343D9
:10460000CC8823431843108210BD002101804180D3
:104610008180C180704721B1828942F40052828139
:1046200004E082894DF6FF731A4082817047F0B52D
:104630000346002400260025002040F66A17B942F0
:1046400000D100BF1846C1F3421401F01F06012734
:1046500007FA06F5012C01D10C3004E0022C01D13F
:10466000103000E014301AB107682F43076002E0F1
:104670000768AF430760F0BD1AB1838A0B4383829A
:1046800002E0838A8B4383827047028A4FF6F0737D
:104690001A400282028A0A430282704782894FF2DC
:1046A000FF731A40828182890A438281704721B157
:1046B000828942F00202828104E082894FF6FD7312
:1046C0001A4082817047028A4FF6DF731A400282D5
:1046D000028A0A430282704721B1028A42F4804270
:1046E000028204E0028A4BF6FF731A40028270478E
:1046F000C1F308028280704701468888C0F3080031
:104700007047818941F0010181817047028BD2B2EB
:104710000283028B42EA012202837047028B02F479
:104720007F420283028B0A430283704721B1828A4F
:1047300042F02002828204E0828A4FF6DF731A4040
:104740008282704721B1828A42F01002828204E0A4
:10475000828A4FF6EF731A408282704721B1828AB3
:1047600042F00802828204E0828A4FF6F7731A4010
:104770008282704721B1828942F40042828103E043
:104780008289C2F30E028281704721B1828A42F48B
:104790000062828204E0828A4FF2FF731A408282B2
:1047A0007047828A4FF6FB731A408282828A0A43DC
:1047B0008282704721B1828A42F00202828204E042
:1047C000828A4FF6FD731A408282704702460020AB
:1047D000B1F5007F00D100BF13880B400BB1012061
:1047E00000E00020704701F40072B2F5007F00D1B4
:1047F00000BFCA430280704770B502460024002300
:104800000025002040F66A16B14200D100BFC1F376
:10481000421501F01F03012606FA03F3012D02D110
:104820009689334006E0022D02D1168A334001E01A
:10483000968A33400C12012606FA04F41688344096
:1048400013B10CB1012000E0002070BD10B50022B2
:10485000002340F66A14A14200D100BF0A120124CD
:104860009440A3B2DC43048010BD00000038014036
:104870000044004000480040004C00400050004010
:10488000704700000FB4044910B503AA029800F065
:104890000FFC10BC5DF814FB1C00002070B5044632
:1048A00085690068C10601D5302600E02026C007D2
:1048B00007D070BDD4E9012130469047206A401CE2
:1048C00020626D1EF6D570BD70B50446856900780E
:1048D000C00707D170BDD4E9012120209047206A8C
:1048E000401C20626D1EF6D570BD00002DE9F04120
:1048F0000646002410687529314616A510D0AFF37E
:104900000080002802DA404213A507E031688A07D8
:1049100001D512A502E0490704D511A5012401E043
:10492000AFF3008000210A2206F1240709E0B0FB62
:10493000F2FCB0FBF2F302FB1C0030307854184656
:10494000491C0028F3D123462A463046BDE8F041F1
:1049500000F048B9000000002D0000002B0000000E
:10496000200000002DE9F05F894604464FF0000A60
:10497000DFF824B1FB44C0F820A02046E168884756
:1049800000287DD0252806D0D4E901219047206A4F
:10499000401C2062F1E700255F462046E168884719
:1049A0002028064607DB312E05D2B81910F8200C56
:1049B00008B10543F1E7A80701D525F00405C4F8BF
:1049C0001CA00027C4F818A02A2E09D0304601F0F8
:1049D000A4F938B304EB8708303EC8F8186019E032
:1049E00059F8041B204604EB87029161E16888476F
:1049F000012F064618D1E069002820DA25F02005AD
:104A00001DE0D8F8180000EB800006EB40003038BD
:104A1000C8F818002046E1688847064601F07DF98D
:104A20000028EED1012F0AD02E2E08D12046E168B1
:104A300088477F1C0646022F45F02005C4DBA0698D
:104A4000002803DA404245F00105A061E80701D0E3
:104A500025F01005A6B1A6F14100192802D820368C
:104A600045F400654A463146204625604D46FBF731
:104A700077FB60B1012807D0ED1D25F0070000E0AD
:104A800007E000F1080978E705F1040975E7304609
:104A90007AE7206ABDE8F09F0B34000070B5064647
:104AA00000F09CF80468054630460A22002100F018
:104AB00011FB2C6070BD032A40F2308010F0030C13
:104AC00000F0158011F8013BBCF1020F624498BF61
:104AD00011F801CB00F8013B38BF11F8013BA2F1FE
:104AE000040298BF00F801CB38BF00F8013B11F079
:104AF000030300F02783083AC0F0088051F8043B14
:104B0000083A51F804CBA0E80810F5E7121D5CBF85
:104B100051F8043B40F8043BAFF30080D20724BFB8
:104B200011F8013B11F801CB48BF11F8012B24BF4C
:104B300000F8013B00F801CB48BF00F8012B70479B
:104B40004FF000020429C0F0128010F0030C00F0B6
:104B50001B80CCF1040CBCF1020F18BF00F8012B34
:104B6000A8BF20F8022BA1EB0C0100F00DB85FEA02
:104B7000C17C24BF00F8012B00F8012B48BF00F8CE
:104B8000012B70474FF0000200B51346944696463D
:104B9000203922BFA0E80C50A0E80C50B1F1200150
:104BA000BFF4F7AF090728BFA0E80C5048BF0CC0FE
:104BB0005DF804EB890028BF40F8042B08BF70475C
:104BC00048BF20F8022B11F0804F18BF00F8012BCE
:104BD0007047704770477047704700000048704743
:104BE000686D00202DE9F0470D469946924604462F
:104BF00000F124080168880604D5E06921F010015D
:104C0000216000E00120A84201DD471B00E00027F1
:104C1000A1697A1902EB0900081AA0612078C00680
:104C200002D42046FFF73AFE002608E0D4E901212D
:104C30001AF806009047206A401C761C20624E45F8
:104C4000F4DB2078C0060AD52046FFF727FE06E0F1
:104C5000D4E9012130209047206A401C2062381E90
:104C6000A7F10107F4DC07E0D4E9012118F80500F9
:104C70009047206A401C2062281EA5F10105F3DC44
:104C80002046FFF721FE2078000602D50220BDE86D
:104C9000F0870120FBE770472DE9FF4F0C461E46C9
:104CA0004FF0FF378BB0D2E90001DDF860800A9049
:104CB0008A46C1F30A5505B93D46002108464FF022
:104CC0000000BAF1000F00F4400005DA00EB8000AC
:104CD0004FF4400101EA50004FEA9059B9F1010F39
:104CE00000DDB9460A9850EA4A000ED044F610504A
:104CF000A5F2FF3545432F14B8F1000F1ED07542C1
:104D0000291E1EDDC9F100021CE0B8F1010F4FF0B1
:104D1000000001D0302103E0F24305E02154401CA3
:104D2000B042FBDB30460022002121540B99C1F830
:104D30000880C1E900200FB0BDE8F08FBD1B6D1CDD
:104D4000DEE74A4600DA694206A800F02BFB06AB14
:104D500093E8070003AB83E8070050460A9900F088
:104D60000DFC8DE80700A0F500501F380090039857
:104D7000002D09DD42F21F014A46084403A90390B1
:104D8000684600F06CFE08E0A0F500504A461F3867
:104D900003A90390684600F076FE8DE80700000442
:104DA000000C03D04FF0FF30410800E01046B8F18E
:104DB000000F03D00022009215461EE0751E05D498
:104DC00000F002FA303262556D1EF9D5B346012269
:104DD000084302D000227F1C04E02078302801D153
:104DE00000227F1E002A099786D01DE0112D07DAC8
:104DF00000F0EAF9303262556D1C50EA0102F5D13B
:104E0000084302D00098C8B10EE00021681E05E0FA
:104E1000235C625C63542254401E491C8142F7DBD0
:104E2000AB46A81B401E0990002004F80B000B980D
:104E3000099AC0F80880C0E9002B7CE711264FF0E2
:104E4000000859E72DE9F04F88460446D21D22F0AC
:104E5000070191B0D1E90001CDE90A0100F049FF55
:104E600002460B98C00F01D02D2007E02068810773
:104E700001D52B2002E0202101EAC000032A09907D
:104E800001D0072A05DB03464146204600F0FAF927
:104E90000BE12078800601D5E06900E00620B8F13A
:104EA000650F814606D0B8F1660F18D0B8F1670FCC
:104EB00070D131E00020B9F1110F009001DB112316
:104EC00001E009F101030AAA01A90CA8FFF7E4FE19
:104ED000DDE90C70002609F10105834647E0012059
:104EE0004B4600904FF000470AAA01A90CA8FFF713
:104EF000D3FEDDE90DB00C995D46002610B909F12D
:104F000001000D18B9EB050003D4C0F1FF3609F11B
:104F10000105A5EB09002BE0B9F1010F01DA4FF013
:104F200001090020B9F1110F0090484601DD11235D
:104F300000E003460AAA01A90CA8FFF7ADFEDDE9CF
:104F40000C704D4600268346207800070AD4AB45F6
:104F500000DA5D4601A8012D04DD411911F8011C9C
:104F6000302907D04F4502DA17F1040F04DA012087
:104F700082460FE06D1EEEE7002F02DCED1B3E4483
:104F800003E0781CA84200DD7D1CB81B00F1010A7B
:104F90004FF000472078000703D4AA4501DB4FF00B
:104FA000FF3A0021B7F1004F0DF143088DF843108F
:104FB00024D002202B23002F01DA7F422D230A2147
:104FC000021EA0F1010000DC5FB197FBF1FC97FB32
:104FD000F1F201FB1C7C17460CF1300C08F801CDF6
:104FE000EEE7A8F1010003702188090501D54521EC
:104FF00000E06521A0F1010800F8011C09980FA943
:10500000A1EB0807FF1D00B10120411901EBEA7077
:10501000A1693844081A401EA0612078C00602D455
:105020002046FFF73BFC099828B1D4E901219047BD
:10503000206A401C20622078C00622D52046FFF757
:105040002DFC1EE0002E04DBB34502DD01A8805DCF
:1050500000E03020D4E901219047206A401C206202
:10506000761CAAF101005FEA000A0AD100F0A8F854
:10507000C0680168405CD4E901219047206A401C67
:105080002062281EA5F10105DCDC07E0D4E901213E
:1050900018F8010B9047206A401C2062381EA7F1C7
:1050A0000107F3DC2046FFF70FFC032011B043E6B5
:1050B000074B70B50D467B4400F0D1F804462846F6
:1050C00000F0DEF910B14FF0FF3070BD204670BD2A
:1050D00001B4FFFF2DE9F04791460F468046044694
:1050E000002614F8015B2DB100F062F80068405D05
:1050F000C007F6D12B2D02D02D2D18D0641E4A46A4
:105100003946204600F0FEF827B13968A14201D1A6
:10511000C7F800804FF0020471050BD5404200280B
:1051200003DDFFF75BFD0460A007BDE8F08746F4F0
:105130008066E4E70028F8DAFFF750FD04606FF0BE
:105140000040F2E710B5203AC0F00B80B1E81850EB
:10515000203AA0E81850B1E81850A0E81850BFF461
:10516000F5AF5FEA027C24BFB1E81850A0E8185000
:1051700044BF18C918C0BDE810405FEA827C24BF54
:1051800051F8043B40F8043B08BF7047D20728BFE2
:1051900031F8023B48BF11F8012B28BF20F8023B31
:1051A00048BF00F8012B704700487047686D002029
:1051B00010B500F005F8001D10BD00BF990B0000F0
:1051C00000487047886D002030B5B0F10A024FEA00
:1051D000900E71F100034EEA817EB0EB0E0061EBA0
:1051E00091014FEA101E4EEA017E10EB0E0041EBDA
:1051F00011114FEA102E4EEA016E10EB0E0041EB3A
:1052000011214FEA104E4EEA014E10EB0E0041EB19
:105210001141401841F100014FEAD00040EA4170CD
:105220004FEAD10110EB80054FEA810444EA907403
:1052300044EB01046D1944EB0404521BA3414FF0ED
:10524000000348BF0A3200D530BD401C41F10001C7
:1052500030BD000001694A1C02610878704700B542
:105260008FB0CDE901310021059105497944CDE99F
:10527000031011466846FFF775FB0FB000BD000034
:10528000E5FFFFFF2DE9F0411F46044603260168B4
:10529000072A01F4006004DB08B116A505E016A595
:1052A00003E008B115A500E015A521F0100020606D
:1052B000A069C01EA0610FB1401EA0612046FFF78B
:1052C000EDFA4FB1D4E9012138469047206A401CDD
:1052D0002062C01C206206E0206AFAE7D4E90121BE
:1052E00015F8010B9047761EF8D22046FFF7ECFA2E
:1052F000BDE8F0814E414E006E616E00494E4600A1
:10530000696E66002DE9F05F824615468B460027E0
:105310000AF10104B9460078302801D09DB113E0AC
:1053200014F8010B0127782803D0582801D045B183
:105330000AE00DB1102D07D1002714F8010B10253C
:1053400002E0082500E00A250026B0460EE005FB35
:10535000080005FB06F101271FFA80F801EB104653
:10536000B6F5803F00D3B94614F8010B294600F08A
:10537000B0F80028EBDABBF1000F05D00FB1641EC6
:1053800000E05446CBF80040B9F1000F06D0FFF71B
:1053900025FC02210160C81EBDE8F09F48EA0640D6
:1053A000FAE700002DE9F047814616468AB03348F7
:1053B00078440DC88DE80D0030487844801C03AC5B
:1053C0000DC884E80D0041F69B300844372190FB5E
:1053D000F1F290FBF1F5A5F1800501FB12041B3CF5
:1053E00002D56442012000E00020DFF890A0804652
:1053F0000027FA44AAF1BE0A0DE0E00709D03246C0
:10540000684607EB47010AEB810100F03CFB8DE8A1
:10541000070064107F1C002CEFD1184F7F44AC3F75
:1054200018E0E80714D007EB04100DF1180A90E813
:105430000E008AE80E00C068F04201D19819089069
:10544000324606A903A800F01EFB03AB83E8070061
:105450006D10641C002DE4D132466946B8F1000F8E
:1054600003A802D000F0FBFA01E000F00CFBC9E950
:105470000001C9F808200AB0BDE8F0875C2A0000E6
:10548000007B00F0800070477546FFF78DFEAE464A
:1054900005006946534620F00700854618B020B540
:1054A000FAF796FEBDE820404FF000064FF00007E7
:1054B0004FF000084FF0000B21F00701AC46ACE8BC
:1054C000C009ACE8C009ACE8C009ACE8C0098D4629
:1054D00070473A2800D2303820F02002412A01D308
:1054E000A2F13700884201D34FF0FF3070470446E5
:1054F000AFF300802046FAF756FE00004FF0013C63
:1055000050F8042B51F8043B9A4221D1A2EB0C0332
:10551000934313EACC1317D150F8042B51F8043BF2
:105520009A4215D1A2EB0C03934313EACC130BD18F
:1055300050F8042B51F8043B9A4209D1A2EB0C031A
:10554000934313EACC13DBD04FF00000704700BF49
:10555000D01A01BAB1FA81F101F0180122FA01F072
:10556000CB40C1F12001DBB2C0B2C01A2CFA01F36A
:10557000D11A914311EAC311E6D170475FEA400C9A
:1055800008BF91F0000F4FEA8C234FEAC12243EA93
:1055900051514FEA1C5018BF00F5F0404FEA30005F
:1055A00018BF41F000415FEA6C5C00F02980BCF15B
:1055B000FF3F08BF40F080407047130C06BF120445
:1055C0004FF0100C4FF0000C130E04BF12020CF140
:1055D000080C130F04BF12010CF1040C930F04BF4D
:1055E00092000CF1020CD30F04BF52000CF1010C1D
:1055F00011464FF00002A0F11F00A0EB0C00704715
:1056000011F0004F08BF704731F000413FF4D5AFB3
:105610000B0C06BF09044FF0100C4FF0000C0B0EE2
:1056200004BF09020CF1080C0B0F04BF09010CF1B7
:10563000040C8B0F04BF89000CF1020CCB0F04BFCC
:1056400049000CF1010CCCF12003A0EB0C0022FA74
:1056500003F302FA0CF241EA030100F10100704782
:1056600020F07F4C80EA030023F07F47ACEB070378
:1056700003F57C5300F0004003F1FF032DE980495E
:105680004FEA154B09B44FEA144325EA0B4E24EABE
:1056900003480FF2042606EB132749083E785FEA19
:1056A000320203FB0667C7F5000707FB06F64FEA61
:1056B00054374FEAD64606F1020607FB066CCCF1DA
:1056C000005C4FEA1C472CEA074C07FB06F40CFB76
:1056D00006F504EB15464FEA961634BF00204FF04E
:1056E00000404FEAD13706FB07FC4FEA1C4C0CFB8D
:1056F0000BF7D21B03FB0CF761EB07010CFB0EF75A
:10570000B0EB074072EB17420CFB08F734BFA2EB7B
:105710000742B2EB074261EB17414FEA0C444FEAF4
:10572000910706FB07FC4FEA1C4C0CFB0BF7B0EB98
:10573000C74072EB573203FB0CF734BFA2EBC742F2
:10574000B2EBC74261EB57310CFB0EF7B0EBC70071
:1057500072EB57720CFB08F734BFA2EBC702B2EB37
:10576000C70261EB5771039F4FEA816141EA9211D1
:1057700004EBCC044FEAD1374FEA826206FB07FC08
:1057800042EA90124FEA80604FEA1C4C0CFB0BF788
:10579000D21B03FB0CF761EB07010CFB0EF7B0EB20
:1057A000074072EB17420CFB08F734BFA2EB07422D
:1057B000B2EB074261EB17414FEA8C554FEA910774
:1057C00004EB9C2406FB07FC4FEA1C4C0CFB0BF77C
:1057D000B0EBC74072EB573203FB0CF734BFA2EBC0
:1057E000C742B2EBC74261EB57310CFB0EF7B0EB8F
:1057F000C70072EB57720CFB08F734BFA2EBC7026D
:10580000B2EBC70261EB577115EB4C254FEA816192
:1058100041EA92114FEA82624FEAD13742EA90128E
:1058200006FB07FC44F100044FEA80604FEA1C4C81
:105830000CFB0BF7D21B03FB0CF761EB07010CFB16
:105840000EF7B0EB074072EB17420CFB08F734BFC2
:10585000A2EB0742B2EB074261EB174115EB1C15B7
:105860004FEA813141EA92414FEA823242EA904264
:105870004FEA80304FEA0C7644F1000448EA0343D3
:105880004EEA0B484FF0000EB2EB080C71EB030729
:1058900024BF624639464EEB0E0E4FF0000B001847
:1058A000524149414BEB0B0BB2EB080C71EB030778
:1058B0007BF1000B24BF624639464EEB0E0E4FF0D3
:1058C000000B0018524149414BEB0B0BB2EB080C9B
:1058D00071EB03077BF1000B24BF624639464EEBA8
:1058E0000E0E51EA020718BF46F0010616EB0E76BF
:1058F00055F1000254F1000103D5BDE88901BDE86E
:105900000088BDE88901BDE80048B619524141EB65
:105910000101A3F10103704780807F7E7D7C7B7A4B
:105920007978777676757473727171706F6E6E6D4B
:105930006C6C6B6A6A6968686766666564646363F1
:1059400062616160605F5F5E5E5D5D5C5C5B5B5A77
:105950005A595958585757565655555554545353E4
:1059600052525251515050504F4F4F4E4E4D4D4D3F
:105970004C4C4C4B4B4B4A4A4A494949484848478A
:1059800047474746464645454544444444434343C8
:105990004342424242414141002B26D4770021D06C
:1059A0001CB54FEA370703B44FF010004FF0100159
:1059B0004FF000000FBCBDE810400BF1010BBBF134
:1059C000010F08BF5FEA170722BF12F1010211F1B0
:1059D00001014FF0004143F1000300F0004043EAB1
:1059E00000007047F9D35708DAE746EA064613F194
:1059F000400F4FEA16461FDD13F1200FDFBF16439D
:105A00000A46002120335B42C8D0C3F1200746EA92
:105A1000064602FA07F74FEA164646EA0706C3F1BA
:105A2000200722FA03F201FA07F721FA03F14FF0F7
:105A3000000342EA0702B1E746EA020646EA0646E2
:105A40004FEA164646EA0106BCBF46EA0646360C51
:105A50004FF000034FF000024FF000019EE72DE9E8
:105A6000C048934630B491E8380007C831EA400C8A
:105A700048BF34EA430C03D5FFF7F2FDFFF78CFF74
:105A8000F0BCBDE800882DE9C048934630B491E8E9
:105A9000380007C810F0804F08BF13F0804F03D1C3
:105AA00000F005F8FFF778FFF0BCBDE8008820F0B3
:105AB0007F4780EA030023F07F4C07EB0C03A3F53C
:105AC0007C5300F00040A3F1FE0392F0000F00F0C1
:105AD000B38095F0000F00F077802DE901494FEA7F
