:020000040800F2
:100000007873002091010008990100089B01000805
:100010009D0100089F010008A101000800000000E8
:10002000000000000000000000000000A301000824
:10003000A501000800000000A7010008A9010008B0
:10004000AB010008AB010008AB010008AB010008E0
:10005000AB010008AB010008AB010008AB010008D0
:10006000AB010008AB010008AB010008AB010008C0
:10007000AB010008AB010008AB010008AB010008B0
:10008000AB010008AB010008AB010008AB010008A0
:10009000AB010008AB010008AB010008E50C00084B
:1000A000AB0100082F430008AB010008AB010008BA
:1000B00091450008AB010008AB010008AB01000846
:1000C000AB010008AB010008AB010008AB01000860
:1000D000AB010008FD05000877060008AB01000829
:1000E000AB010008AB010008AB01000800F002F80A
:1000F00000F03FF80AA090E8000C82448344AAF183
:100100000107DA4501D100F034F8AFF2090EBAE880
:100110000F0013F0010F18BFFB1A43F0010318473B
:10012000D4980000F4980000103A24BF78C878C131
:10013000FAD8520724BF30C830C144BF04680C60ED
:10014000704700000023002400250026103A28BF35
:1001500078C1FBD8520728BF30C148BF0B60704739
:10016000782906F07B84002070471FB51FBD10B5AD
:1001700010BD06F0F1FD1146FFF7F7FF00F0DCFAC5
:1001800006F00FFE03B4FFF7F2FF03BC00F080F9A6
:100190000948804709480047FEE7FEE7FEE7FEE71B
:1001A000FEE7FEE7FEE7FEE7FEE7FEE70448054957
:1001B000054A064B70470000AF020008ED0000083A
:1001C000786D002078730020786F0020786F002011
:1001D0000CB50020019000906C48006840F480301D
:1001E0006A49086000BF6948006800F40030009068
:1001F0000198401C0190009818B90198B0F5A06FC3
:10020000F1D16248006800F4003010B10120009084
:1002100001E0002000900098012843D15C4800686C
:1002200040F010005A4908600846006820F00300BA
:1002300008600846006840F00200086053484068C3
:10024000524948600846406848600846406840F4A3
:10025000806048600846406820F47C10486008468A
:10026000406840F4E81048600846006840F080703C
:10027000086000BF4548006800F000700028F9D011
:100280004248406820F00300404948600846406802
:1002900040F00200486000BF3C48406800F00C009D
:1002A0000828F9D10CBD10B5FFF792FF10BD10B5AD
:1002B0003648006840F0010034490860084640684C
:1002C00034490840314948600846006832490840CE
:1002D0002E4908600846006820F48020086008461F
:1002E000406820F4FE0048604FF41F008860FFF76C
:1002F000DAFF4FF000602949086010BD10B50021F9
:1003000000200022214B5B6803F00C0121B104297D
:1003100006D0082928D107E0214B224C236027E092
:100320001F4B204C236023E0184B5B6803F47010D4
:10033000164B5B6803F48032022303EB904022B932
:10034000194B4343174C23600DE0104B5B6803F4DB
:10035000003323B1144B4343124C236003E0104B92
:100360004343104C236003E00D4B0E4C236000BF51
:1003700000BF064B5B68C3F303130C4CE15C094BF5
:100380001B68CB40074C236010BD000000100240EA
:10039000002002400000FFF8FFFFF6FE08ED00E03D
:1003A00000127A000000002000093D000400002037
:1003B00010B56FF0040004F036FA2E4800682E499C
:1003C000B0FBF1F02D4908700846007800EB4001C1
:1003D000C1EBC0104FF6FF7101EAC0002849088048
:1003E00010BD0146254A12784A434FF0E0235A6176
:1003F00000229A611A46126942F001021A6100BF96
:100400004FF0E022106900F001021AB100F48032CE
:10041000002AF5D04FF0E022126922F001024FF0DD
:10042000E0231A6100229A6170470146144A12883B
:100430004A434FF0E0235A6100229A611A4612693A
:1004400042F001021A6100BF4FF0E022106900F093
:1004500001021AB100F48032002AF5D04FF0E022F8
:10046000126922F001024FF0E0231A6100229A6122
:10047000704700000000002000127A0014000020E5
:100480001600002010B54FF4A06004F07DF910BDF7
:10049000014600BF704700BF9D4A128802F040022B
:1004A000002AF9D0C2B29A4B1B1D1A80704710B5B2
:1004B00086B00446012144F2040005F04BF94FF4E4
:1004C0000070ADF8140003208DF8160018208DF888
:1004D000170005A98F4804F01BFE4FF48060ADF8AB
:1004E000140004208DF8170005A98A4804F010FEB6
:1004F00025208DF8000003208DF801008DF8020002
:1005000001208DF80300684604F043F901940020AF
:10051000ADF80800ADF80A00ADF80C00ADF8100019
:100520000C20ADF80E0001A9794806F0C8F80122A8
:1005300040F22551764806F05AF90121744806F038
:100540004AF906B010BD10B586B00446012104205A
:1005500005F000F90121480405F009F90420ADF87F
:10056000140003208DF8160018208DF8170005A937
:10057000684804F0CDFD0820ADF8140004208DF883
:10058000170005A9634804F0C3FD26208DF800007C
:1005900003208DF801008DF8020001208DF8030082
:1005A000684604F0F6F801940020ADF80800ADF8B4
:1005B0000A00ADF80C00ADF810000C20ADF80E00EC
:1005C00001A9554806F07BF8012240F22551524816
:1005D00006F00DF90121504806F0FDF806B010BDF7
:1005E00010B5044621464A4806F062F900BF802152
:1005F000474806F0CBF90028F9D010BD10B540F2FD
:100600002551434806F0D8F910B3414806F054F993
:10061000C4B24248008800F40040C8B93F4800888E
:1006200000F4804060B10A2C03D000203B490880D0
:1006300020E03A48008840F400403849088019E03A
:100640000D2C06D13548008840F48040334908809D
:1006500010E032480088C0F30D0031490C542F4897
:100660000088401C2D49088008460088C72801DD05
:100670000020088010BD10B500240821264806F08F
:1006800085F930B10821244806F08DF9224806F09A
:1006900013F92021204806F079F9002836D040F2DD
:1006A00025511D4806F0B2F91B48001D0088C4B250
:1006B000242C05D101201B49087000201A4908602C
:1006C00018480078012803D118481749096844548C
:1006D0001448007801280AD1232C08D11449087045
:1006E00000201049087010480068124908600E4840
:1006F0000068401C0C49086008460068502805DB6B
:1007000000200860074908700949087010BD000002
:100710000038014000080140004400402000002053
:10072000EC00002028000020240000209C00002075
:10073000180000202C00002003F068FC03E000F00B
:1007400069FA00F016F8FAE7074908600121074A3C
:1007500011607047044908600021044A1160704725
:100760000020014908607047340000203800002054
:1007700070472DE9F041002600240025002700BF26
:100780000AE0002405E00020FE4901EBC6110855EF
:10079000641C802CF7DB761C402EF2DB00264F27F2
:1007A00053E0002400254CE0382C19DC204604EBF3
:1007B000D0714910A4EB410141BBC7EB0710F249CE
:1007C00001EB0010005DF1490968884204DB01205B
:1007D000EC4901EBC61148557F2D31DC6D1C2FE033
:1007E000382C14DD482C12DCC7EB0710E64901EB6E
:1007F0000010005DE5490968884204DB0120E149F9
:1008000001EBC61148557F2D1ADC6D1C18E02046FF
:1008100004EBD0714910A4EB410189B9C7EB071073
:10082000D94901EB0010005DD8490968884204DB12
:100830000120D44901EBC61148557F2D00DC6D1C09
:10084000641CF02CB0DD761C7F1E402EA9DB8022BC
:100850004021CC4803F072FBBDE8F0812DE9FF5F39
:100860004FF0000AD346CA48D0F800B0C948006823
:1008700007F06AF8C64908600846006806F0CCFE32
:100880000646C54AC54B06F0DFFC044606F096FA5C
:1008900082465946BE48006807F032F9019006F0DA
:1008A000BBFEBF4ABF4BCDE9020106F0CDFC0646B8
:1008B0000F46504606F0B0FE804632463B4606F0F4
:1008C000AFFA044606F07AFA8246B2490868002870
:1008D00001DB014600E04142B34A1160114608685D
:1008E000C11700EB5171C910C1F14101AF4A11604C
:1008F000AF48006807F028F80446514606F0B8FEF5
:100900008246AC49504607F0CAF801D2DFF8A4A2EB
:10091000A949504607F044F801D2DFF89CA250469E
:1009200006F0D6FFA5490860BDE8FF9FF0B5002599
:100930000021C8E000205DE0061DF02E56DAC1EB74
:100940000116914F07EB0616365C904F3F68BE428A
:100950004CDAC1EB01168C4F07EB0617061DBE5D86
:100960008A4F3F68BE4241DA954E3668861B5A2E42
:1009700004DC934E3668361A5A2E30DD03460020CA
:1009800029E04E1D502E25DAC6EB06167E4F07EBEA
:100990000616365C7D4F3F68BE421BDA4E1DC6EB25
:1009A0000616794F07EB0617061DBE5D774F3F68A9
:1009B000BE420FDAC61A5A2E02DC1E1A5A2E02DD69
:1009C0007F4E326809E0421C7D4E326001267D4F29
:1009D0003E6002E0401CEC28D3DB00BF0CE0421C70
:1009E000774E32600126774F3E6005E0EE2800D159
:1009F0000125401CF0289FDB00BF012A5CD10020AC
:100A000057E0C1EB0116604F07EB0616365C5F4FEF
:100A10003F68BE424CDDC1EB01165B4F07EB06178A
:100A2000061DBE5D594F3F68BE4241DD644E3668CB
:100A3000861B462E04DC624E3668361A462E30DDA2
:100A40000346002029E04E1D502E25DAC6EB06167F
:100A50004D4F07EB0616365C4C4F3F68BE421BDD20
:100A60004E1DC6EB0616484F07EB0617061DBE5D6A
:100A7000464F3F68BE420FDDC61A462E02DC1E1AE4
:100A8000462E02DD4E4E326809E0421C4C4E32606A
:100A900000264C4F3E6002E0401CEC28D3DB00BF38
:100AA00009E0421C464E32600026464F3E6002E09E
:100AB000401CEC28A5DB00BF012D01D1404E32685F
:100AC000414F7A54491C5029FFF634AF3E4E3678D8
:100AD0003D4FBF7A3E443C4F3F7D3E443A4FBF7F3F
:100AE0003E44394F97F832703E44052796FBF7F4A1
:100AF000344E3668012E05D12D4E3668A61B254F83
:100B00003E6005E02A4E3668A61B3C3E214F3E6003
:100B1000F0BD70B500240FE0F02509E0C4EB04112E
:100B2000194A02EB0111485DFFF75AFD681E85B2B4
:100B3000002DF3DC601C84B2502CEDDBFF20FFF7AE
:100B40004FFD70BD0021214A526822F003021F4B65
:100B50005A601A46126822F080721A601A46526869
:100B600022F470125A60821ED0B21A46526842EACB
:100B700080425A601A46526842F480325A60144ADF
:100B8000126827E0044D0020B40100204C00002032
:100B90003C0000204000002052B81E85EB51C83FA9
:100BA0007B14AE47E17AC43F4400002034000020AB
:100BB000500000200000DC4200005C425C0000208D
:100BC0003000002048000020B44C002000100240FB
:100BD0000020024042F01202384B1A60384A126874
:100BE00042F08072364B1A6000BF354A1268520ECE
:100BF000002AFAD0324A526842F00202304B5A6060
:100C000005E02F4A5268C2F3870101F0030102296F
:100C1000F7D1704770B52B48007802283ED10020EC
:100C2000294908604020294948610861486101203C
:100C30002749C1F894014020244908612548007AD9
:100C400028B3F02421E000251BE040201F49486123
:100C500021480068C0F30726402008614861086108
:100C6000322D0DD3822D0BD254B1F02C08D2A5F128
:100C70003200C0EB0010194901EB00102146465428
:100C80006D1CB5F5A07FE0D3641E002CDBD14FF4C2
:100C9000807003F0CEFE00200A49087070BD10B5C8
:100CA000FFF7B8FFFFF742FEFFF763FDFFF7D6FD42
:100CB0000B480068FFF74EFD10BD00000020024009
:100CC0000010024054000020940122420010014014
:100CD000000022420E6D0020080C0140B4010020EB
:100CE0003400002010B54FF4807003F091FE01280D
:100CF0001FD12448007802281BDA2248007850B916
:100D000001202149086000202049C1F8800101200C
:100D10001F49086008E000201B4908601B49C1F812
:100D2000800101201A49086016480078401C1549C6
:100D300008704FF4807003F07CFE10BD0EB50821E2
:100D4000002004F0FBFA4FF48070019000208DF831
:100D5000080008208DF8090001208DF80A0001A87C
:100D600003F0F0FD17208DF8000000208DF8010041
:100D70008DF8020001208DF80300684603F009FD9C
:100D80000EBD0000540000209C0122420080214240
:100D900080812142F74908807047F649891C088004
:100DA0007047F448801C00887047F24A1080921CFB
:100DB0001180704710B504462046FFF7EBFF052071
:100DC000FFF70FFBFFF7EDFF10BDEB48C079E949D6
:100DD00008807047E749891C0880704730B5014694
:100DE00001F01F04C1F34513CA0AE50205EB4315E0
:100DF0001544A8B230BD00BF0100A0F10102D0B27D
:100E0000FAD1704710B503460C46DB48808849F29A
:100E10004131884205D0D848808846F6040188428E
:100E200014D1D549087AFFF7B5FF1812FFF7B5FFBF
:100E3000D8B2FFF7B2FFD049487AFFF7ABFF2012D4
:100E4000FFF7ABFFE0B2FFF7A8FF12E0CA488079D6
:100E5000012804D1C8480088401EC01A83B2C64980
:100E6000087A1946FFF7A1FFC349487A2146FFF7E0
:100E70009CFF10BD2DE9F04105460E4600240027D9
:100E8000A046BD480088A84203DDBB484088B04268
:100E900002DC0020BDE8F08131462846FFF7B2FFB2
:100EA000B548808849F24131884205D0B2488088EF
:100EB00046F60401884203D12E20FFF76BFF02E0C3
:100EC0002220FFF767FFAC48808849F22031884232
:100ED00002D10220FFF78FFFA648801C008800B1D6
:100EE00000240220FFF787FFA248801C0488A24844
:100EF000808849F2413188420CD10220FFF77BFF04
:100F00009C48801CB0F80080E7B24FF6FF7000EA02
:100F1000072708E09848808846F60401884202D1F5
:100F20009448801C04889448808849F2253188427E
:100F300016D09148808844F23551884210D08E48AE
:100F40008088091F88420BD08B48808848F6891119
:100F5000884205D0884880884BF20551884201D1EB
:100F6000204697E78448808849F24131884207D17A
:100F7000E012C002B91240EA411040EAE82089E7D5
:100F80002046FFF72BFF85E700B57B48808849F2B4
:100F90004131884205D07848808846F6040188426D
:100FA00003D12920FFF7F6FE04E040F27311072079
:100FB000FFF7FBFE00BD00B56F48808849F2413164
:100FC000884205D06C48808846F60401884203D1E7
:100FD0002820FFF7DFFE03E000210720FFF7E5FEF2
:100FE00000BD70B5044600230026634880790128BF
:100FF0001ED16148808846F60401884218D0082C2A
:1010000015D2DFE804F00406080A0C0E10120624BC
:101010000DE007240BE0042409E0052407E0012487
:1010200005E0002403E0032401E0022400BF00BF28
:101030005148808849F24131884205D04E48808825
:1010400046F6040188427CD1082C1CD2DFE804F06B
:101050000406090C0F12151800BF14E043F08003BA
:1010600011E043F040030EE043F0C0030BE043F017
:10107000200308E043F0600305E043F0A00302E032
:1010800043F0E00300BF00BF362643F008033A48B0
:10109000808846F60401884201D143F002031946D4
:1010A0003046FFF782FE03F0200068B13248008826
:1010B00031494988884214DA2F48058840882E49EA
:1010C0000880084645800CE02B4800882A4949885A
:1010D000884206DD28480588408827490880084658
:1010E00045802549087AFFF755FE0020FFF755FE99
:1010F0000020FFF752FE20490988491EC1F30F2046
:10110000FFF74BFE1C490978491EC8B2FFF745FEA0
:101110001949487AFFF73EFE0020FFF73EFE002007
:10112000FFF73BFE14494988491EC1F30F20FFF722
:1011300034FE11498978491EC8B2FFF72EFE36E009
:10114000FFE7082C20D2DFE804F004070A0D0F1295
:10115000191C43F0300317E043F0100314E043F090
:10116000200311E000BF0FE043F038030CE043F030
:10117000280309E0FE07006C046D002043F018030B
:1011800002E043F0080300BF00BFFE48808848F635
:101190008911884204D1112646F24000034302E03F
:1011A000032643F4805319463046FFF7FEFD70BD19
:1011B00030B504460D4629462046FFF723FEFFF7CB
:1011C00004FEF1480088F149088030BD30B503467F
:1011D0000C461546EB48808849F24131884205D0DB
:1011E000E848808846F60401884214D1E549087A27
:1011F000FFF7D0FD1812FFF7D0FDD8B2FFF7CDFDF5
:10120000E049487AFFF7C6FD2012FFF7C6FDE0B2BD
:10121000FFF7C3FD12E0DB488079012804D1D948EB
:101220000088401EC01A83B2D649087A1946FFF7D3
:10123000BCFDD449487A2146FFF7B7FDD148C079B3
:10124000D249891E0880881C058030BD10B504462F
:10125000002C3DD1CB498871F02008804FF4A0705C
:1012600048800846808849F24131884205D0C54807
:10127000808846F60401884214D12C20C149C871E7
:101280002A2008722B2048720846808846F60401FE
:1012900088424ED14FF4A070BA4908804FF4F070E4
:1012A000488046E0B748808848F68911884207D1CF
:1012B0002220B449C8714E2008724F20487238E08D
:1012C0002220B049C871202008722120487230E0E5
:1012D000AC48808846F6040188422AD00120A949FA
:1012E00088714FF4A0700880F020488008468088FC
:1012F00049F24131884207D12C20A249C8712A20E5
:1013000008722B20487214E09E48808848F68911A4
:10131000884207D122209B49C8714F2008724E2075
:10132000487206E022209749C871212008722020C7
:1013300048720020FFF755FE10BD70B50446002628
:10134000904805884088454300210846FFF75AFD2C
:10135000FFF73BFD00BF02E08C480480761CAE42E4
:10136000FAD370BD00B59FB00121080204F0E5F981
:10137000012140F2691004F0EDF90120ADF8780088
:1013800010208DF87B0003208DF87A001EA980487C
:1013900003F0BEFE4CF23370ADF8780018208DF8E3
:1013A0007B0003208DF87A001EA97A4803F0B0FE76
:1013B0004FF68070ADF8780018208DF87B00032080
:1013C0008DF87A001EA9744803F0A2FE41F20100D4
:1013D000ADF8780018208DF87B0003208DF87A0096
:1013E0001EA96E4803F094FE012008900020099089
:1013F0000F200A9000200B900C900D900E90019001
:10140000029003200390002004900590069007901E
:1014100006200F90002010901190102012900020B4
:10142000139015901490169017904FF480501890C8
:10143000002019904FF480401A9000201B9008A8BB
:101440001C9001A81D900FA803F048FB0121062065
:1014500003F0ACFC3220FEF7E8FF01210020FFF78B
:10146000A4FC3220FEF7E1FF0020FFF7A3FC454972
:10147000888008468088FF280ADB084680884FF667
:10148000FF71884204D03F488088B0F5134F4BD19C
:10149000D320FFF77FFCFFF784FCFFF782FCFFF708
:1014A00080FC38498880084680884FF6FF7101EA41
:1014B000002034498880FFF774FC3249898808434A
:1014C000304988800846808849F2413188421BD0E3
:1014D000BF20FFF75FFCFFF764FCFFF762FCFFF73C
:1014E00060FCFFF75EFC27498880084680884FF63D
:1014F000FF7101EA002023498880FFF752FC21494F
:10150000898808431F4988801E48808849F24131F4
:10151000884209D01B48808846F60401884203D0DF
:1015200049F2413017498880164881881CA005F08F
:1015300089FA1448808849F2413188427ED1CF200F
:10154000FFF728FC0020FFF728FCC120FFF725FC4F
:101550003020FFF722FCED20FFF71CFC6420FFF792
:101560001CFC0320FFF719FC1220FFF716FC81205A
:10157000FFF713FCE820FFF70DFC8520FFF70DFCBB
:10158000102015E0046D0020560000200008006CBB
:10159000000C0140001401400018014000200140EF
:1015A000204C43442049443A25780D0A00000000AD
:1015B000FFF7F3FB7A20FFF7F0FBCB20FFF7EAFB06
:1015C0003920FFF7EAFB2C20FFF7E7FB0020FFF7AD
:1015D000E4FB3420FFF7E1FB0220FFF7DEFBF720FE
:1015E000FFF7D8FB2020FFF7D8FBEA20FFF7D2FB5C
:1015F0000020FFF7D2FB0020FFF7CFFBC020FFF752
:10160000C9FB1B20FFF7C9FBC120FFF7C3FB01206B
:10161000FFF7C3FBC520FFF7BDFB3020FFF7BDFB85
:101620003020FFF7BAFBC720FFF7B4FBB720FFF766
:10163000B4FB3620FFF7AEFB482000E0AEE0FFF73A
:10164000ACFB3A20FFF7A6FB5520FFF7A6FBB12025
:10165000FFF7A0FB0020FFF7A0FB1A20FFF79DFB80
:10166000B620FFF797FB0A20FFF797FBA220FFF7B2
:1016700094FBF220FFF78EFB0020FFF78EFB262065
:10168000FFF788FB0120FFF788FBE020FFF782FBD4
:101690000F20FFF782FB2A20FFF77FFB2820FFF7B0
:1016A0007CFB0820FFF779FB0E20FFF776FB082074
:1016B000FFF773FB5420FFF770FBA920FFF76DFBCA
:1016C0004320FFF76AFB0A20FFF767FB0F20FFF7B5
:1016D00064FB0020FFF761FB0020FFF75EFB0020AA
:1016E000FFF75BFB0020FFF758FBE120FFF752FB01
:1016F0000020FFF752FB1520FFF74FFB1720FFF7E5
:101700004CFB0720FFF749FB1120FFF746FB0620A3
:10171000FFF743FB2B20FFF740FB5620FFF73DFB75
:101720003C20FFF73AFB0520FFF737FB1020FFF7BF
:1017300034FB0F20FFF731FB3F20FFF72EFB3F204C
:10174000FFF72BFB0F20FFF728FB2B20FFF722FBD7
:101750000020FFF722FB0020FFF71FFB0120FFF70F
:101760001CFB3F20FFF719FB2A20FFF713FB00208B
:10177000FFF713FB0020FFF710FB0020FFF70DFB26
:10178000EF20FFF70AFB1120FFF704FB7820FEF79C
:101790004CFE2920FFF7FEFA01F016BAFE488088B9
:1017A00046F6040188427CD11120FFF7F3FA142099
:1017B000FEF73BFED020FFF7EDFA0720FFF7EDFA2A
:1017C0004220FFF7EAFA1D20FFF7E7FAD120FFF7E2
:1017D000E1FA0020FFF7E1FA1A20FFF7DEFA09200C
:1017E000FFF7DBFAD220FFF7D5FA0120FFF7D5FA91
:1017F0002220FFF7D2FAC020FFF7CCFA1020FFF723
:10180000CCFA3B20FFF7C9FA0020FFF7C6FA022006
:10181000FFF7C3FA1120FFF7C0FAC520FFF7BAFAA5
:101820000320FFF7BAFAC820FFF7B4FA0020FFF749
:10183000B4FA2520FFF7B1FA2120FFF7AEFA052010
:10184000FFF7ABFA0020FFF7A8FA0A20FFF7A5FA86
:101850006520FFF7A2FA2520FFF79FFA7720FFF710
:101860009CFA5020FFF799FA0F20FFF796FA002014
:10187000FFF793FAF820FFF78DFA0120FFF78DFAB2
:10188000FE20FFF787FA0020FFF787FA0220FFF714
:1018900084FA2020FFF77EFA3620FFF77BFA082033
:1018A00000E02CE0FFF779FA3A20FFF773FA5520B1
:1018B000FFF773FA2B20FFF76DFA0020FFF76DFAA0
:1018C0000020FFF76AFA0120FFF767FA3F20FFF7D1
:1018D00064FA2A20FFF75EFA0020FFF75EFA002084
:1018E000FFF75BFA0120FFF758FADF20FFF755FA00
:1018F0007820FEF79AFD2920FFF74CFA4CE7A6481E
:10190000808849F2253188427ED147F6F001E520F2
:10191000FFF74BFA4FF480710120FFF746FA4FF4BE
:10192000E0610220FFF741FA41F230010320FFF7A6
:101930003CFA00210420FFF738FA40F20221082087
:10194000FFF733FA00210920FFF72FFA00210A20C0
:10195000FFF72BFA00210C20FFF727FA00210D20BA
:10196000FFF723FA00210F20FFF71FFA00211020B4
:10197000FFF71BFA07211120FFF717FA00211220A9
:10198000FFF713FA00211320FFF70FFA00210720B9
:10199000FFF70BFA41F290611020FFF706FA40F2D0
:1019A00027211120FFF701FA9D211220FFF7FDF9F1
:1019B0004FF4C8511320FFF7F8F925212920FFF72C
:1019C000F4F90D212B20FFF7F0F907213020FFF764
:1019D000ECF940F203313120FFF7E7F9032132201F
:1019E000FFF7E3F940F206213520FFF7DEF9082181
:1019F0003620FFF7DAF940F206413720FFF7D5F934
:101A00004FF44171382000E057E0FFF7CEF907218D
:101A10003920FFF7CAF940F202613C20FFF7C5F90F
:101A200008213D20FFF7C1F900215020FFF7BDF943
:101A3000EF215120FFF7B9F900215220FFF7B5F946
:101A400040F23F115320FFF7B0F94FF427416020D7
:101A5000FFF7ABF901216120FFF7A7F900216A2008
:101A6000FFF7A3F900218020FFF79FF900218120D3
:101A7000FFF79BF900218220FFF797F900218320CF
:101A8000FFF793F900218420FFF78FF900218520CB
:101A9000FFF78BF910219020FFF787F94FF4C06111
:101AA0009220FFF782F940F233110720FFF77DF90A
:101AB00022210020FFF779F96EE63748808849F245
:101AC000283188426AD141F28F01EC20FFF76DF98D
:101AD00041F23421EF20FFF768F94FF480710120C3
:101AE000FFF763F94FF4E0610220FFF75EF941F27E
:101AF00030010320FFF759F900210420FFF755F9C1
:101B000040F202210820FFF750F900210920FFF7D9
:101B10004CF900210A20FFF748F901210C20FFF7BA
:101B200044F900210D20FFF740F900210F20FFF7B5
:101B30003CF900211020FFF738F907211120FFF7A9
:101B400034F900211220FFF730F900211320FFF7AC
:101B50002CF901210720FFF728F93220FEF765FC58
:101B600041F290411020FFF720F940F22721112087
:101B7000FFF71BF93220FEF758FC8A211220FFF7ED
:101B800014F93220FEF751FC4FF4D0511320FFF727
:101B90000CF90621292002E0046D00208AE0FFF7FD
:101BA00004F90D212B20FFF700F93220FEF73DFC50
:101BB00000212020FFF7F9F800212120FFF7F5F898
:101BC0003220FEF732FC00213020FFF7EEF840F221
:101BD00004613120FFF7E9F840F205313220FFF7C8
:101BE000E4F800213520FFF7E0F840F609413620FF
:101BF000FFF7DBF84FF401713720FFF7D6F840F21A
:101C000001313820FFF7D1F840F207713920FFF792
:101C1000CCF800213C20FFF7C8F840F60A213D200F
:101C2000FFF7C3F83220FEF700FC00215020FFF739
:101C3000BCF8EF215120FFF7B8F800215220FFF740
:101C4000B4F840F23F115320FFF7AFF84FF42741AB
:101C50006020FFF7AAF801216120FFF7A6F8002114
:101C60006A20FFF7A2F800218020FFF79EF80021EC
:101C70008120FFF79AF800218220FFF796F80021D3
:101C80008320FFF792F800218420FFF78EF80021CF
:101C90008520FFF78AF810219020FFF786F84FF48F
:101CA000C0619220FFF781F840F233110720FFF75F
:101CB0007CF871E5FE48808849F2203188427DD168
:101CC00000210846FFF771F84FF480710120FFF7FB
:101CD0006CF84FF4E0610220FFF767F841F2300141
:101CE0000320FFF762F800210420FFF75EF840F2BE
:101CF00002210820FFF759F800210920FFF755F8C5
:101D000000210A20FFF751F801210C20FFF74DF8C0
:101D100000210D20FFF749F800210F20FFF745F8BB
:101D20003220FEF782FB40F201110720FFF73DF859
:101D30003220FEF77AFB4FF486511020FFF735F87A
:101D400007211120FFF731F84FF488711220FFF7B7
:101D50002CF84FF430611320FFF727F800212920D9
:101D6000FFF723F844F210012B20FFF71EF80021A3
:101D70005020FFF71AF8EF215120FFF716F8002145
:101D80005220FFF712F840F23F115320FFF70DF8F1
:101D90004FF41C516020FFF708F801216120FFF784
:101DA00004F800216A20FFF700F800218020FEF7E8
:101DB000FCFF00218120FEF7F8FF00E02EE000216B
:101DC0008220FEF7F2FF00218320FEF7EEFF0021C4
:101DD0008420FEF7EAFF00218520FEF7E6FF1021B0
:101DE0009020FEF7E2FF00219220FEF7DEFF0121A6
:101DF0009320FEF7DAFF4FF488719520FEF7D5FFA8
:101E000000219720FEF7D1FF00219820FEF7CDFF9B
:101E100040F273110720FEF7C8FFBDE4A448808894
:101E200049F2313188427DD141F21401E720FEF7B9
:101E3000BCFF4FF480710120FEF7B7FF4FF4007133
:101E40000220FEF7B2FF41F238010320FEF7ADFF9A
:101E500040F202210820FEF7A8FF00210920FEF72A
:101E6000A4FF00210A20FEF7A0FF00210C20FEF7AE
:101E70009CFF00210D20FEF798FF00210F20FEF7A8
:101E800094FF00211020FEF790FF07211120FEF79C
:101E90008CFF00211220FEF788FF00211320FEF79F
:101EA00084FFC820FEF7C1FA41F290611020FEF7CE
:101EB0007CFF40F227211120FEF777FF3220FEF74A
:101EC000B4FA0C211220FEF770FF3220FEF7ADFAB3
:101ED0004FF400611320FEF768FF11212920FEF75F
:101EE00064FF0B212B20FEF760FF3220FEF79DFAE6
:101EF00000212020FEF759FF40F23F112120FEF77C
:101F000054FF00213020FEF750FF4FF48371312041
:101F1000FEF74BFF00213220FEF747FF4FF401711F
:101F2000352000E064E0FEF740FF41F20A61362010
:101F3000FEF73BFF40F207713720FEF736FF4FF404
:101F400083713820FEF731FF40F207713920FEF728
:101F50002CFF40F202413C20FEF727FF40F60F41E4
:101F60003D20FEF722FF00215020FEF71EFFEF214B
:101F70005120FEF71AFF00215220FEF716FF40F213
:101F80003F115320FEF711FF4FF41C516020FEF764
:101F90000CFF01216120FEF708FF00216A20FEF7F7
:101FA00004FF00218020FEF700FF00218120FEF7C2
:101FB000FCFE00218220FEF7F8FE00218320FEF7C0
:101FC000F4FE00218420FEF7F0FE00218520FEF7BC
:101FD000ECFE10219020FEF7E8FE4FF4C061922045
:101FE000FEF7E3FE40F233110720FEF7DEFE85E444
:101FF0002F48808845F2084188427DD14FF4807196
:102000000120FEF7D2FE4FF4E0610220FEF7CDFE84
:1020100041F230010320FEF7C8FE00210420FEF744
:10202000C4FE40F207210820FEF7BFFE0021092070
:10203000FEF7BBFE00210A20FEF7B7FE00210C20B0
:10204000FEF7B3FE00210D20FEF7AFFE00210F20AA
:10205000FEF7ABFE1420FEF7E8F941F2B061102064
:10206000FEF7A3FE01211120FEF79FFE012117209C
:10207000FEF79BFE4FF49C711220FEF796FE4FF484
:1020800000611320FEF791FE09212920FEF78DFE45
:1020900009212A20FEF789FE0021A420FEF785FEF3
:1020A00000215020FEF781FEEF21512002E00000C8
:1020B000046D0020FEF779FE00215220FEF775FE28
:1020C00040F23F115320FEF770FE4FF41C51602088
:1020D000FEF76BFE01216120FEF767FE00216A20FA
:1020E000FEF763FE00218020FEF75FFE00218120C5
:1020F000FEF75BFE002100E028E08220FEF755FE9F
:1021000000218320FEF751FE00218420FEF74DFEC2
:1021100000218520FEF749FE13219020FEF745FEA1
:1021200000219220FEF741FE03219320FEF73DFEA1
:102130004FF488719520FEF738FE40F273110720A6
:10214000FEF733FE3220FEF770F9B5E4FE488088D2
:1021500041F2055188427DD100210720FEF725FE7E
:102160003220FEF762F94FF48E711220FEF71DFE49
:102170000121A420FEF719FE0F210820FEF715FE0D
:1021800008210A20FEF711FE08210D20FEF70DFEA2
:1021900040F207713020FEF708FE07213120FEF7DC
:1021A00004FE40F203613220FEF7FFFD4FF4E061D0
:1021B0003320FEF7FAFD40F202213420FEF7F5FD50
:1021C00002213520FEF7F1FD41F60F713620FEF7B2
:1021D000ECFD40F207713720FEF7E7FD00213820C3
:1021E000FEF7E3FD00213920FEF7DFFD40F2077125
:1021F0003A20FEF7DAFD00213B20FEF7D6FD07214D
:102200003C20FEF7D2FD00213D20FEF7CEFD32201E
:10221000FEF70BF901210720FEF7C7FD012117206A
:10222000FEF7C3FD3220FEF700F94FF4BD51102038
:10223000FEF7BBFD40F217211120FEF7B6FD4FF46B
:102240008F711220FEF7B1FD4FF470611320FEF77D
:10225000ACFD00E095E000212A20FEF7A6FD0A2152
:102260002920FEF7A2FD4FF49F711220FEF79DFD7D
:1022700000215020FEF799FDEF215120FEF795FD3A
:1022800000215220FEF791FD40F23F115320FEF74E
:102290008CFD4FF41C516020FEF787FD0121612069
:1022A000FEF783FD00216A20FEF77FFD00218020DC
:1022B000FEF77BFD00218120FEF777FD00218220C3
:1022C000FEF773FD00218320FEF76FFD00218420BF
:1022D000FEF76BFD00218520FEF767FD132190209E
:1022E000FEF763FD4FF440719220FEF75EFD05217D
:1022F0009320FEF75AFD00219520FEF756FD0021A0
:102300009720FEF752FD00219820FEF74EFD4FF476
:1023100080710120FEF749FD4FF4E0610220FEF7D5
:1023200044FD41F238010320FEF73FFD0021042067
:10233000FEF73BFD00210C20FEF737FD00210F20AA
:10234000FEF733FD00212020FEF72FFD0021212084
:10235000FEF72BFD21210720FEF727FD1420FEF7B5
:1023600064F861210720FEF720FD1420FEF75DF8D8
:1023700040F273110720FEF718FD1420FEF755F800
:1023800097E4714880884BF2055188427ED1002144
:102390000846FEF70AFD00210846FEF706FD00216B
:1023A0000846FEF702FD00210846FEF7FEFC01216B
:1023B000A420FEF7FAFC1420FEF737F84FF41C5166
:1023C0006020FEF7F2FC40F202210820FEF7EDFC4F
:1023D0004FF405713020FEF7E8FC43F2157131200F
:1023E000FEF7E3FC40F204613220FEF7DEFC40F62B
:1023F00016613320FEF7D9FC42F211213420FEF79A
:10240000D4FC4FF4A8513520FEF7CFFC48F2075119
:102410003620FEF7CAFC41F207413720FEF7C5FC23
:1024200041F203413820FEF7C0FC20213920FEF79D
:10243000BCFC1A219020FEF7B8FC00211020FEF70A
:10244000B4FC07211120FEF7B0FC00211220FEF79A
:10245000ACFC00211320FEF7A8FC1420FDF7E5FFDB
:102460004FF4E6611020FEF7A0FC40F23711112076
:10247000FEF79BFC1420FDF7D8FF4FF4DC7112200F
:10248000FEF793FC1420FDF7D0FF00E087E04FF447
:1024900070611320FEF789FC80212A20FEF785FC5D
:1024A00048212920FEF781FC1420FDF7BEFF4FF4E0
:1024B00080710120FEF779FC4FF4E0610220FEF705
:1024C00074FC41F238010320FEF76FFC40F2022158
:1024D0000820FEF76AFC00210A20FEF766FC0021B6
:1024E0000C20FEF762FC00210D20FEF75EFC30217F
:1024F0000E20FEF75AFC00215020FEF756FCEF217B
:102500005120FEF752FC00215220FEF74EFC40F213
:102510003F115320FEF749FC4FF41C516020FEF799
:1025200044FC01216120FEF740FC00216A20FEF7F7
:102530003CFC11219020FEF738FC4FF4C061922042
:10254000FEF733FC02E00000046D002040F202417F
:102550009320FEF72AFC02219420FEF726FC14208B
:10256000FDF763FF01210720FEF71FFC1420FDF794
:102570005CFF61210720FEF718FC40F27311072071
:10258000FEF713FC00212020FEF70FFC0021212084
:10259000FEF70BFC22210020FEF707FC14E3FE48A7
:1025A00080884CF2055188427ED100210846FEF712
:1025B000FCFB00210846FEF7F8FB1420FDF735FF71
:1025C00000210846FEF7F1FB00210846FEF7EDFB6F
:1025D00000210846FEF7E9FB00210846FEF7E5FB6F
:1025E0000121A420FEF7E1FB1420FDF71EFF4FF4AC
:1025F0001C516020FEF7D9FB40F606010820FEF7CB
:10260000D4FB40F203713020FEF7CFFB01213120D3
:10261000FEF7CBFB04213220FEF7C7FB4FF481719C
:102620003320FEF7C2FB4FF440713420FEF7BDFBB0
:1026300040F203113520FEF7B8FB1F213620FEF7CC
:10264000B4FB40F203713720FEF7AFFB01213820C5
:10265000FEF7ABFB04213920FEF7A7FB15219020E4
:10266000FEF7A3FB4FF482611020FEF79EFB40F2C1
:1026700047211120FEF799FB4FF4DE711220FEF77F
:1026800094FB4FF460611320FEF78FFB7820FDF779
:10269000CCFE4FF480710120FEF787FB4FF40071F0
:1026A0000220FEF782FB00E050E041F230010320FF
:1026B000FEF77BFB08210A20FEF777FB00210C20A8
:1026C000FEF773FB20210E20FEF76FFB00210F2089
:1026D000FEF76BFB00212020FEF767FB0021212085
:1026E000FEF763FB3D212A20FEF75FFB1420FDF778
:1026F0009CFE2D212920FEF758FB00215020FEF7DB
:1027000054FB4DF2EF015120FEF74FFB0021522008
:10271000FEF74BFB40F23F115320FEF746FB002132
:102720006120FEF742FB00216A20FEF73EFB4FF4DA
:1027300040719220FEF739FB05219320FEF735FB0F
:102740004FF480710720FEF730FB3DE2924880880D
:1027500048F6891188427DD101210020FEF725FB32
:102760004AF6A4010320FEF720FB00210C20FEF70F
:102770001CFB40F60C010D20FEF717FB4FF42C510B
:102780000E20FEF712FBB0211E20FEF70EFB42F6D4
:102790003F310120FEF709FB4FF4C0610220FEF734
:1027A00004FB00211020FEF700FB46F27801112007
:1027B000FEF7FBFA00210520FEF7F7FA00210620BC
:1027C000FEF7F3FA4EF61C711620FEF7EEFA03211F
:1027D0001720FEF7EAFA40F233210720FEF7E5FA68
:1027E00000210B20FEF7E1FA00210F20FEF7DDFAB1
:1027F00000214120FEF7D9FA00214220FEF7D5FA48
:1028000000214820FEF7D1FA40F23F114920FEF79F
:10281000CCFA00214A20FEF7C8FA00214B20FEF72F
:10282000C4FA4FF46F414420FEF7BFFA002145205F
:10283000FEF7BBFA40F23F114620FEF7B6FA40F22F
:1028400007713020FEF7B1FA4FF401713120FEF725
:10285000ACFA00E03DE04FF401713220FEF7A5FA3A
:1028600040F202513320FEF7A0FA40F20751342023
:10287000FEF79BFA4FF401713520FEF796FA4FF4FC
:1028800001713620FEF791FA40F202513720FEF72F
:102890008CFA40F202313A20FEF787FA40F2023118
:1028A0003B20FEF782FA00212320FEF77EFA00216A
:1028B0002420FEF77AFA4FF400412520FEF775FA3E
:1028C00000214F20FEF771FA00214E20FEF76DFA2D
:1028D0007AE13148808844F2315188427DD101212A
:1028E0000020FEF762FA0A20FDF79FFD41F2286101
:1028F0001020FEF75AFA0E211220FEF756FA40F683
:1029000039211320FEF751FA0A20FDF78EFD4021F0
:102910001120FEF74AFA50211520FEF746FA0A2048
:10292000FDF783FD1E211220FEF73FFA0A20FDF776
:102930007CFD4FF4B1511020FEF737FA42F63921F1
:102940001320FEF732FA0A20FDF76FFD4FF4807175
:102950000120FEF72AFA4FF440710220FEF725FA13
:1029600041F238010320FEF720FA40F2022108204C
:10297000FEF71BFA08210A20FEF717FA0021302083
:10298000FEF713FA40F202413120FEF70EFA4FF43F
:102990008371322002E00000046D0020FEF705FA8A
:1029A00040F203513320FEF700FA4FF482713420D5
:1029B000FEF7FBF940F201313520FEF7F6F940F25F
:1029C00007713620FEF7F1F940F205313720FEF7A6
:1029D000ECF94FF40271382000E040E0FEF7E5F931
:1029E00040F60B713920FEF7E0F902214120FEF795
:1029F000DCF94FF41C516020FEF7D7F9012161206A
:102A0000FEF7D3F94FF404719020FEF7CEF94FF49E
:102A100085719220FEF7C9F904219320FEF7C5F9CC
:102A20004FF48071A020FEF7C0F901210720FEF7C6
:102A3000BCF921210720FEF7B8F923210720FEF772
:102A4000B4F933210720FEF7B0F940F23311072023
:102A5000FEF7ABF90021A020FEF7A7F9B4E0FB4890
:102A6000808844F235518842F8D130211520FEF794
:102A70009CF910219A20FEF798F920211120FEF7E9
:102A800094F943F228411020FEF78FF90221122019
:102A9000FEF78BF941F238011320FEF786F9282062
:102AA000FDF7C3FC12210846FEF77FF92820FDF749
:102AB000BCFC43F220411020FEF777F943F23801C5
:102AC0001320FEF772F94620FDF7AFFC00213020FD
:102AD000FEF76BF940F202413120FEF766F940F251
:102AE00007313220FEF761F94FF441713320FEF7D0
:102AF0005CF904213420FEF758F940F201413520F9
:102B0000FEF753F940F207713620FEF74EF940F216
:102B100005313720FEF749F94FF4C2613820FEF73E
:102B200044F94FF4C2613920FEF73FF94FF4807148
:102B30000120FEF73AF94FF440710220FEF735F913
:102B400041F230010320FEF730F940F60801082079
:102B5000FEF72BF908210A20FEF727F94FF41C5144
:102B60006020FEF722F901216120FEF71EF94FF4E3
:102B70009F719020FEF719F94FF480719220FEF7B3
:102B800014F94FF480719320FEF70FF94FF4405180
:102B9000A020FEF70AF91021A320FEF706F9012173
:102BA0000720FEF702F921210720FEF7FEF8232176
:102BB0000720FEF7FAF833210720FEF7F6F840F277
:102BC00033110720FEF7F1F80020FEF73FFB01204C
:102BD0009F4908604FF6FF70FEF7AFFB1FB000BDC6
:102BE0002DE9F04F05460E4617469846DDF824A01D
:102BF0004FF0000B781B401C1FFA80FB344613E09B
:102C000021462846FEF7FEF8FEF7DFF84FF00009F0
:102C100006E05046FEF7C1F809F101001FFA80F9FD
:102C2000D945F6DB601C84B24445E9DDBDE8F08F90
:102C30002DE9F84F07460D4690469946DDF828B035
:102C4000A8EB0700401C80B20090A9EB0500401CD7
:102C50001FFA80FA002415E0281981B23846FEF7E1
:102C6000D1F8FEF7B2F8002607E004FB0A603BF853
:102C7000100078490880701C86B200988642F4DB08
:102C8000601C84B25445E7DBBDE8F88F2DE9FF4FA7
:102C900084B081468A460020039002900698A0EBFB
:102CA00009050798A0EB0A06CDF80490CDF800A01E
:102CB000002D01DD012705E00DB9002702E04FF0EE
:102CC000FF376D42002E02DD4FF0010806E016B915
:102CD0004FF0000802E04FF0FF387642B54201DDC8
:102CE0002C4600E034464FF0000B21E0009A91B2F0
:102CF000019A90B2FEF75CFA039828440390029878
:102D0000304402900398A04205DD0398001B039015
:102D10000198384401900298A04205DD0298001BFA
:102D200002900098404400900BF101001FFA80FBD4
:102D3000601C8345DADD08B0BDE8F08FF0B50446CD
:102D40000D4616461F462B46324629462046FFF7BB
:102D50009DFF3B46224629462046FFF797FF3B460C
:102D6000324639462046FFF791FF3B463246294618
:102D70003046FFF78BFFF0BD2DE9F04306460F46C6
:102D80009046002445460320A0EB48093CE07A1B0E
:102D900091B2321990B2FEF70BFA3A1B91B2721946
:102DA00090B2FEF705FA3A1991B2721990B2FEF795
:102DB000FFF97A1991B2321990B2FEF7F9F97A193E
:102DC00091B2321B90B2FEF7F3F93A1991B2721B2D
:102DD00090B2FEF7EDF97A1B91B2321B90B2FEF77A
:102DE000E7F93A1B91B2721B90B2FEF7E1F9641C4D
:102DF000B9F1000F03DAA000801D814404E0601BDC
:102E000080000A3081446D1EAC42C0DDBDE8F08315
:102E10002DE9F84F05460F4690461E4600970E488E
:102E2000B0F80090A8F1200000F0FF080A980028F0
:102E300059D1002454E00C2E12D108EB4800074968
:102E400001EB800010F804A00FE00000046D0020EA
:102E5000808121420008006C56000020EA7B0008B7
:102E6000B94800EB081010F804A04FF0000B31E057
:102E70000AF0800018B1B548A0F8009003E0B4480B
:102E80000088B249088039462846FEF791F94FEA92
:102E90004A604FEA106A781C87B2AE480088A842A0
:102EA00004DCAA48A0F80090BDE8F88F0098381A12
:102EB000B0420BD1009F681C85B2A6480088A8428A
:102EC00003DCA248A0F80090EEE706E00BF1010059
:102ED00000F0FF0BBBF1080FCADB00BF601CC4B2DF
:102EE000B442A8DB44E0002440E00C2E07D108EBFC
:102EF0004800994901EB800010F804A004E09248D2
:102F000000EB081010F804A04FF0000B28E00AF0C6
:102F1000800018B139462846FEF74AF94FEA4A6060
:102F20004FEA106A781C87B28A484088A84203DCBE
:102F30008648A0F80090B7E70098381AB0420BD145
:102F4000009F681C85B283480088A84203DC7F4844
:102F5000A0F80090A8E706E00BF1010000F0FF0BDD
:102F6000BBF1080FD3DB00BF601CC4B2B442BCDBB2
:102F70007648A0F8009000BF96E710B50246012001
:102F800000E050430B00A1F10104E1B2F9D110BD02
:102F90002DE9FF4F81B0074691461E460E9D4FF02A
:102FA000000A002439E0301B401EC1B20A20FFF79E
:102FB000E4FFB9FBF0F00A21B0FBF1F201FB1208CB
:102FC000BAF1000F16D1701EA04213DDB8F1000F48
:102FD0000ED10020AB4605EBDB71491001FB0471FB
:102FE000009088B22B4620220299FFF711FF12E0D1
:102FF0004FF0010A0020AB4605EBDB71491001FBE5
:103000000471009088B208F13001CAB22B460299CF
:10301000FFF7FEFE00BF601CC4B2B442C3DB05B0C4
:10302000BDE8F08F2DE9FF4F82B0064692461F465D
:10303000DDE90F480020019000254DE0781B401E7F
:10304000C1B20A20FFF799FFBAFBF0F00A21B0FBEA
:10305000F1F201FB1209019850BB781EA84227DD4E
:10306000B9F1000F22D108F0800078B108F001001A
:10307000A34604EBDB71491001FB0561009088B2A7
:10308000234630220399FFF7C3FE0EE008F001004B
:10309000A34604EBDB71491001FB0561009088B287
:1030A000234620220399FFF7B3FE13E0012001908D
:1030B00008F00100A34604EBDB71491001FB056138
:1030C000009088B209F13001CAB223460399FFF794
:1030D0009FFE00BF681CC5B2BD42AFDB06B0BDE8B5
:1030E000F08F2DE9F84704460D4690469946DDE9F4
:1030F000096704F0FF0A08EB04001FFA80F809EBE7
:1031000005001FFA80F916E0444502DB5446A81971
:1031100085B24D4500DB14E0002000903A7833463C
:1031200029462046FFF774FE304606EBD07104EBCB
:1031300061018CB27F1C38787E2802DC3878202828
:10314000E2DA00BFBDE8F8875E8000085600002084
:1031500058000020046D0020EA7B000838B50025E7
:1031600001211C2002F0F6FA4FF48070ADF8000047
:1031700048208DF8030003208DF802006946DE48E0
:1031800001F0C6FFE020ADF8000010208DF803002C
:103190006946DA4801F0BCFFE021D84802F065F842
:1031A0004FF47F40ADF8000048208DF803006946D9
:1031B000D34801F0ADFF0320ADF8000010208DF8DA
:1031C00003006946CE4801F0A3FF0321CC4802F07A
:1031D0004CF80121CB4802F06CF800F09BF98021FB
:1031E000122000F0A0FA08B1012038BD3220FDF70E
:1031F0001CF90B2000F0B6FA0446732C01D0022013
:10320000F3E70A2000F0AEFA0446762C01D0022043
:10321000EBE700250DE0BC4A02EB45025178BA4AC3
:1032200012F8150000F07FFA0220FDF7FEF8681C86
:1032300085B2552DEFD30020D7E72DE9F04705469D
:103240000E461746984605EB47004FF4447190FB35
:10325000F1F201FB12001FFA80F906EB48001FFA99
:1032600080FA322000F07EFA044604F0C00409F02F
:103270000701284661F3DF0004432146322000F0B5
:1032800052FAC5F3C701172000F04DFAC9F3C70180
:10329000182000F048FA032000F064FA044604F015
:1032A000F0040AF00301304661F39F000443214615
:1032B000032000F038FAC6F38701192000F033FA32
:1032C000CAF387011A2000F02EFABDE8F0872DE935
:1032D000F04705460E4617469846DDF82090002434
:1032E0008A48058046808780A0F8068080F808908C
:1032F000B9F1000F11D000BF0CE0854A02EB440287
:103300005178834A12F8140000F00DFA0220FDF7FC
:103310008CF8641C572CF0D310E000240CE07A4A9F
:1033200002EB44025178784A12F8140000F0FBF9DD
:103330000220FDF77AF8641C552CF0D343463A4638
:103340000A21B020FFF779FF4FF6FF70FDF7F5FF78
:10335000BDE8F0872DE9F0410446E7250026002767
:10336000012C06D0022C08D0032C0AD0042C10D13A
:103370000BE0E5255A265C270BE0E525582660275B
:1033800007E0E52584264C2703E0E525962640271F
:1033900000BF00BF2946132000F0C5F931460120C7
:1033A00000F0C1F93946022000F0BDF9BDE8F08116
:1033B0002DE9F0410446802522265E2734B1012CF8
:1033C00008D0032C0AD0042C10D10BE04025112684
:1033D0002F270BE066251B264B2707E0992528267B
:1033E000712703E0C02533268D2700BF00BF294683
:1033F0004F2000F098F92946502000F094F9002160
:10340000512000F090F93146522000F08CF93946F5
:10341000532000F088F92946542000F084F99E21B9
:10342000582000F080F9BDE8F08170B50446002511
:1034300034B1012C06D0032C06D0042C08D105E0B1
:10344000B02505E0982503E0182501E0302500BFF0
:1034500000BF2946552000F066F970BD70B50446DE
:10346000402534B1012C06D0032C06D0042C08D101
:1034700005E0302505E0382503E0502501E0602512
:1034800000BF00BF2946562000F04DF970BD2DE960
:10349000F04104460425C0268027072C1DD2DFE812
:1034A00004F01C04080C1014180024258026802722
:1034B00013E01425802680270FE01425C0268027DE
:1034C0000BE014254026402707E014258026C0275E
:1034D00003E01425A026402700BF00BF29463A205C
:1034E00000F021F93146682000F01DF939466720C7
:1034F00000F019F9BDE8F08100080140001001401A
:10350000000C0140000230004E8600080E6D0020C5
:10351000A487000808B50121042002F01BF94FF42C
:103520000060ADF8000048208DF8030003208DF8FE
:10353000020069469F4801F0EBFD4FF400519D48A1
:1035400001F093FE4FF48050ADF8000010208DF88C
:1035500003006946974801F0DBFD4FF48051954820
:1035600001F083FE9348001D006820F4700091492B
:10357000091D08600846006840F44010086008BD56
:1035800010B501208C4908608C49C1F8B001322087
:10359000FCF727FF0020884908603220FCF721FF54
:1035A00000208649C1F8B00110BD10B50020824945
:1035B00008603220FCF715FF01208049C1F8B001F6
:1035C0003220FCF70EFF01207B4908603220FCF717
:1035D00008FF10BD10B53220FCF703FF012076492B
:1035E00008607649C1F8B0013220FCF7FAFE0020ED
:1035F0007149091D08603220FCF7F3FE00206F4975
:10360000C1F8AC013220FCF7ECFE10BD70B50446E9
:1036100000261BE004F0800018B101206649086014
:1036200002E00020644908606006040E3220FCF7C6
:10363000D8FE01206049091D08603220FCF7D1FE48
:1036400000205E49C1F8B001701CC6B2082EE1DB53
:103650005848001D006820F470005649091D086094
:103660000846006840F4000008603220FCF7B9FE0C
:1036700001205149091D08603220FCF7B2FE4F4875
:10368000D0F82C0108B1012500E0002500204A49AE
:10369000091D08604748001D006820F47000454976
:1036A000091D08600846006840F44010086028467C
:1036B00070BD70B500243F48001D006820F4700004
:1036C0003C49091D08600846006840F40000086095
:1036D000082517E03220FCF784FE01203649091D39
:1036E00008606006040E3548D0F82C0108B1601C53
:1036F000C4B23220FCF775FE00202F49091D086076
:10370000681EC5B2002DE5DC2A48001D006820F4C3
:1037100070002849091D08600846006840F4401000
:103720000860204670BD70B505460C460026FFF7C0
:1037300027FF4220FFF76AFF00B101266420FCF753
:1037400050FE2846FFF762FF00B101266420FCF717
:1037500048FE2046FFF75AFF00B10126FFF725FF7C
:10376000304670BD70B504460025FFF709FF4220C2
:10377000FFF74CFF6420FCF734FE2046FFF746FFBE
:103780006420FCF72EFEFFF710FF6420FCF729FEF3
:10379000FFF7F6FE4320FFF739FF6420FCF721FE18
:1037A000FFF787FF0546FFF715FFFFF7FEFE2846E8
:1037B00070BD000000080140AC0121420000214220
:1037C00070B504460825A901F84801F04EFD4021D6
:1037D000F74801F04CFD15E004F0800020B1802195
:1037E000F34801F042FD03E08021F14801F03FFD84
:1037F0004021EF4801F039FD4021ED4801F037FD4F
:103800006006040E2800A5F10101CDB2E4D170BD1F
:1038100070B504460825A901E44801F028FD4021BF
:10382000E34801F024FD15E004F0800020B1802180
:10383000DF4801F01AFD03E08021DD4801F017FDAB
:103840004021DB4801F011FD4021D94801F00FFD76
:103850006006040E2800A5F10101CDB2E4D170BDCF
:1038600070B504460D46B02101EBE501C8B2FFF783
:10387000CFFF102141EA1410FFF7CAFF04F00F0137
:1038800041F00100FFF7C4FF70BD70B504460D465E
:1038900005F1B001C8B2FFF7BBFF102141EA1410D7
:1038A000FFF7B6FF04F00F00FFF7B2FF70BD70B571
:1038B0000646002415E004F1B001C8B2FFF7A8FFE6
:1038C0000120FFF7A5FF1020FFF7A2FF002504E06D
:1038D0003046FFF775FF681CC5B2802DF8DB601C11
:1038E000C4B2082CE7DB70BD70B5002415E004F10C
:1038F000B001C8B2FFF78CFF0120FFF789FF10204D
:10390000FFF786FF002504E00020FFF759FF681C41
:10391000C5B2802DF8DB601CC4B2082CE7DB70BD9B
:1039200070B50446B02101EBE401C8B2FFF770FFA7
:103930000120FFF76DFF1020FFF76AFF002504E06C
:103940000020FFF73DFF681CC5B2802DF8DB70BD7D
:103950002DE9F04104460D461646B02101EBE50184
:10396000C8B2FFF755FF0120FFF752FF1020FFF705
:103970004FFF274604E00020FFF722FF781CC7B264
:10398000B742F8DBBDE8F08109E040F2375100BFF3
:103990000A00A1F1010399B2FAD1421E90B20028A7
:1039A000F3D1704710B54021814801F05EFC4FF41F
:1039B00080717E4801F05BFC3220FFF7E5FF4FF499
:1039C00080717A4801F051FCAE20FFF721FF002002
:1039D000FFF71EFF1020FFF71BFF4020FFF718FF27
:1039E0008120FFF715FFCF20FFF712FFA120FFF77F
:1039F0000FFFC820FFF70CFFA620FFF709FFA82044
:103A0000FFF706FF3F20FFF703FFD320FFF700FF7C
:103A10000020FFF7FDFED520FFF7FAFE8020FFF71C
:103A2000F7FED920FFF7F4FEF120FFF7F1FEDA20D0
:103A3000FFF7EEFE1220FFF7EBFEDB20FFF7E8FEBC
:103A40004020FFF7E5FE2020FFF7E2FE0220FFF70F
:103A5000DFFE8D20FFF7DCFE1420FFF7D9FEA42047
:103A6000FFF7D6FEA620FFF7D3FEAF20FFF7D0FE6C
:103A70000020FFF71CFF00210846FFF7F1FE10BDF4
:103A800070B505460C462046E11704EB5171C9108C
:103A9000A4EBC10201219140CEB2B02101EBE401BF
:103AA000C8B2FFF7B5FE102141EA1510FFF7B0FECE
:103AB00005F00F00FFF7ACFE3046FFF781FE70BD4A
:103AC00070B504460D461646B02101EBE501C8B2BB
:103AD000FFF79EFE102141EA1410FFF799FE04F053
:103AE0000F00FFF795FE3046FFF76AFE70BD2DE927
:103AF000F04707460C4690461D46DDF820A0E11031
:103B00003846FFF7ADFE3E4613E0A146E11704EB51
:103B10005171C910A4EBC10201219140C8B2FFF755
:103B20004FFEBAF1010F02D13220FFF72DFF701CBA
:103B3000C6B24645E9DDE9103846FFF791FE3E463C
:103B400013E0A946E91705EB5171C910A5EBC102B5
:103B500001219140C8B2FFF733FEBAF1010F02D143
:103B60000520FFF711FF701CC6B24645E9DDBDE830
:103B7000F0872DE9F04704468846154699464FF0F0
:103B8000000A0026002724E0E85D203800F0FF0A44
:103B90007E2C04DD002408F1010000F0FF084146FE
:103BA0002046FFF75DFE00260DE0000000100140FA
:103BB000000C01400AEB4A0109EB4101885DFFF767
:103BC000FFFD701CC6B2062EF4DBA01DC4B2781C2B
:103BD000C7B2E85D0028D7D1BDE8F0872DE9F047EE
:103BE00006460F469046994600250024A24630E03E
:103BF00018F80A002038C5B2782E02DD0026781C9D
:103C0000C7B239463046FFF72BFE002406E009EB29
:103C10000511085DFFF7D4FD601CC4B2082CF6DB6B
:103C200007F10800C1B23046FFF71AFE002407E092
:103C300009EB05112144087AFFF7C2FD601CC4B2EC
:103C4000082CF5DB06F10800C6B20AF1010000F00D
:103C5000FF0A18F80A000028CAD1BDE8F0872DE94C
:103C6000F05F82460F4690469946DDF828B0002462
:103C7000002601256DE00024012513E019F8040059
:103C800018F8061088420BD109EB04004178701C2B
:103C900018F80000814203D1C4EBC400450005E0E0
:103CA000A01CC4B219F804007F28E7DC00BFBAF1F9
:103CB000760F03DD4FF0000A781CC7B23946504634
:103CC000FFF7CEFD012D21D039465046FFF7C8FD44
:103CD000002407E01BF80500FFF772FD681C85B2A1
:103CE000601CC4B20E2CF5DB781CC1B25046FFF745
:103CF000B7FD002407E01BF80500FFF761FD681C15
:103D000085B2601CC4B20E2CF5DB1CE0701CC6B280
:103D100039465046FFF7A4FD002404E00020FFF7D9
:103D20004FFD601CC4B2102CF8DB781CC1B25046A9
:103D3000FFF796FD002404E00020FFF741FD601C22
:103D4000C4B2102CF8DB0AF10E0000F0FF0AB01C20
:103D5000C6B218F8060000288DD1BDE8F09F2DE905
:103D6000F05F82460F4690469946DDF828B0002461
:103D7000002501266CE00024012611E019F804005A
:103D800018F80510884209D109EB0400407808EBC7
:103D900005014978884201D1260105E0A01CC4B282
:103DA00019F804007F28E9DC00BFBAF1760F03DDC3
:103DB0004FF0000A781CC7B239465046FFF750FD55
:103DC000012E22D039465046FFF74AFD002407E075
:103DD0001BF80600FFF7F4FC701C86B2601CC4B22E
:103DE000102CF5DB07F10800C1B25046FFF738FD93
:103DF000002407E01BF80600FFF7E2FC701C86B207
:103E0000601CC4B2102CF5DB1CE0681CC5B239463E
:103E10005046FFF725FD002404E00020FFF7D0FC0A
:103E2000601CC4B2102CF8DB781CC1B25046FFF7FE
:103E300017FD002404E00020FFF7C2FC601CC4B2A0
:103E4000102CF8DB0AF1100000F0FF0AA81CC5B224
:103E500018F8050000288ED1BDE8F09F2DE9FC4739
:103E600006468846154699460A9F002438E0285D94
:103E70007F2817DD285D8DF80400281940788DF81B
:103E8000050000208DF806005C485D4B01AA414604
:103E900000903046FFF763FF06F11000C6B2A01C89
:103EA000C4B21DE0285D8DF8040000208DF80500E7
:103EB000012F09D1534B01AA41463046FFF78EFE30
:103EC00006F10800C6B209E0032F07D14E4B01AA44
:103ED00041463046FFF74DFEB01DC6B2601CC4B26D
:103EE000285D0028C3D1BDE8FC872DE9F04180465C
:103EF0000F4616460024002539464046FFF7B0FC21
:103F000000BF06E0705DFFF75BFC681CC5B2601C7B
:103F1000C4B2102CF6DB07F10800C1B24046FFF72F
:103F20009FFC002406E0705DFFF74AFC681CC5B2E8
:103F3000601CC4B2102CF6DBBDE8F0812DE9FC5FFB
:103F400082460C469146E01001902046E11704EBB2
:103F50005171C910A4EBC10189B20091002624E07F
:103F6000F1B20020FFF791FC4FEAC60B002718E0E2
:103F70000025A8460DE06D100BEB080000FB09A022
:103F8000C05D012801D145F0800508F101001FFA4C
:103F900080F8B8F1080FEEDB2846FFF711FC781C1B
:103FA00087B24F45E4DB701C86B201988642D7DBAE
:103FB000F1B20020FFF769FC4FEAC60B002719E0B9
:103FC0000025A8460DE06D100BEB080000FB09A0D2
:103FD000C05D012801D145F0800508F101001FFAFC
:103FE00080F800988045EEDB0098C0F1080005419C
:103FF000781C87B24F45E3DBBDE8FC9FA98B000826
:10400000288B0008A99300080089000808B500F073
:1040100037F900F031F800F073F84821092000F07A
:1040200055F900F00AF900F07CFA4FF4E130FCF7A2
:104030003EFA4F200E490860FCF7BAF9FCF722FA65
:1040400000BFFFF78BF80028FBD1FCF777FE0020BC
:10405000084908600120F0234FF4A0723C21009031
:104060001420FFF734F900F082FBFFF79BFC08BD3A
:104070005C0000208481214208B50121382001F034
:1040800069FB4FF40060ADF8000010208DF80300CC
:1040900003208DF802006946874801F039F84FF493
:1040A0000061854801F0E1F84FF48050ADF8000060
:1040B0006946814801F02CF84FF480517E4801F0A8
:1040C000D4F80420ADF8000069467C4801F020F8DF
:1040D00004217A4801F0C9F80121092001F03AFBD6
:1040E0000121774801F0E5F80820ADF800006946A5
:1040F000744801F00DF80821724801F0B6F808BDC7
:1041000008B50121082001F025FB1020ADF80000C2
:104110008DF8030003208DF802006946694800F01D
:10412000F7FF08BD08B50121082001F013FB0220AC
:10413000ADF8000010208DF8030003208DF8020078
:104140006946604800F0E4FF0121082001F002FB0D
:104150000120ADF8000010208DF8030003208DF839
:1041600002006946574800F0D3FF0121042001F006
:10417000F1FA8020ADF8000010208DF80300032034
:104180008DF802006946504800F0C2FF08BD08B52E
:10419000012001F016F9002001F049FA002000F09A
:1041A0006CFB002001F00DF90121112001F0D2FA81
:1041B0004FF48040ADF8000004208DF80300022089
:1041C0008DF8020069463C4800F0A2FF0121112051
:1041D00001F0C0FA4FF40050ADF8000004208DF853
:1041E000030002208DF802006946334800F090FF7A
:1041F0000121112001F0AEFA4FF40040ADF80000AB
:1042000004208DF8030002208DF8020069462A4838
:1042100000F07EFF0121082001F09CFA4FF480504D
:10422000ADF8000004208DF8030003208DF8020093
:104230006946244800F06CFF08BD08B50121042040
:1042400001F088FA1020ADF800008DF8030003207B
:104250008DF8020069461C4800F05AFF0121042035
:1042600001F078FA2020ADF8000004208DF803005A
:1042700003208DF802006946134800F049FF08BD8D
:1042800008B50121102001F065FA4FF40050ADF897
:10429000000048208DF8030003208DF802006946D5
:1042A000054800F035FF00BF4FF40051024800F010
:1042B000C2FF0028F8D108BD0010014000140140E1
:1042C00000023000000C0140000801407FB50446A8
:1042D0000D460121C80201F03DFAADF80840681E04
:1042E00080B2ADF804000020ADF80A00ADF8060079
:1042F0008DF80C0001A9504801F064FB0122114621
:104300004D4801F0D6FE19208DF8000000208DF8F0
:10431000010003208DF8020001208DF8030068469B
:1043200000F037FA0121444801F0A8FE7FBD10B526
:104330004248006840004249086001213E4802F0BE
:1043400066F9002877D001213B4802F071F93D4819
:104350000068401C3B4908603B480068401C3A49E3
:1043600008603A480068401C3849086038480068CE
:1043700000EB400101EBC00000F5FA700A2190FB50
:10438000F1F030490968884204DB1021314800F01F
:104390006CFF03E010212F4800F069FF2E480068F1
:1043A00001281ED1274800682549096888420DDC8C
:1043B00000202A49086001202949C1F888012949BB
:1043C000086000202849C1F8AC010AE00020234918
:1043D00008602349C1F88801224908602249C1F8D0
:1043E000AC011D480068F0B9164800681449096816
:1043F00088420DDC01201949086000201849C1F8E5
:1044000088011849086001201749C1F8AC010AE089
:104410000020124908601249C1F88801114908605A
:104420001149C1F8AC0107480068B0F5FA6F02D134
:1044300000200449086010BD002C01403400002019
:1044400080000020740000207C0000207800002004
:104450005C000020000C0140380000208C812142CB
:1044600000802242B0012242000022422DE9F05F8A
:104470000024A146A34649E01021A24800F0F5FE21
:104480001420FBF7AEFF10219E4800F0F0FE00BFA5
:1044900020219C4800F0CFFE0028F9D00121880798
:1044A00001F0ECFD0BF1010B00BF2021954800F05D
:1044B000C2FE0128F9D000214FF0804001F0DEFD5E
:1044C0004FF0804002F091F882468F49096801EB75
:1044D0004102C2EBC1110AEBC10002F0A1FE074686
:1044E00000228A4B02F044FD054602F067FC0446B8
:1044F0004946204603F0BCF8814600204FF0804139
:104500008884814908600120FBF78FFFBBF1050F0C
:10451000B2D17F49484603F019F904462046BDE868
:10452000F09F1FB50121084601F021F94FF08040AE
:1045300001F074F940F2E730ADF808004720ADF81B
:1045400004000020ADF80A00ADF8060001A94FF004
:10455000804001F037FA01221146900701F0A9FDD1
:104560004FF4A06000F010F900208DF801008DF8E4
:1045700002001C208DF8000001208DF80300684621
:1045800000F007F900214FF0804001F077FD1FBDDA
:1045900010B50121880702F03AF840B101218807DF
:1045A00002F046F858480068401C5749086010BDA2
:1045B0002DE9F04700BF1021524800F056FE1420AC
:1045C000FBF70FFF10214F4800F051FE00BF2021E4
:1045D0004C4800F030FE0028F9D00121880701F096
:1045E0004DFD00BF2021474800F025FE0128F9D0ED
:1045F00000214FF0804001F041FD4FF0804001F07C
:10460000F4FF04464049096801EB4102C2EBC111C5
:1046100004EBC10002F004FE074600223B4B02F00F
:10462000A7FC054602F0CAFB814600204FF08041FE
:104630008884354908600120FBF7F7FE4846BDE84D
:10464000F08770B50B46002113E04A1C0EE050F8CD
:10465000215050F82260B54207D950F8214050F857
:10466000225040F8215040F82240521C9A42EEDB82
:10467000491C5D1E8D42E8DC70BD70B586B014210A
:1046800001A802F0B3FA002426E0FFF791FF0546E7
:1046900002E0FFF78DFF0546284603F019F9B0F553
:1046A000FA7FF6DA284603F013F90028F1D000214A
:1046B000284603F0F4F905D3284603F009F9B0F5CC
:1046C000FA7F09DA284603F01FF901A941F824000E
:1046D000641C0A20FBF7A9FE052CD6DB002405216B
:1046E00001A8FFF7AEFFDDE9020108440499084480
:1046F0000321B0FBF1F6304603F03EF905462846AB
:1047000006B070BD000801408400002000004D404C
:104710000000A04008B50121192001F01BF801217B
:10472000154800F0C6FD0121144800F0C2FDC0206C
:10473000ADF8000010208DF8030003208DF8020072
:1047400069460F4800F0E4FC40F20130ADF800008B
:1047500010208DF8030003208DF8020069460948F7
:1047600000F0D6FC0121074800F081FD08BD10B51E
:10477000FFF7D0FF10BD0000000430000002300041
:10478000000C01400010014031490143314A1160E1
:10479000704770B5002100230F22C47804B32D4C5C
:1047A000246804F4E064C4F5E064210AC1F1040360
:1047B000CA40447804FA03F1847814402143090183
:1047C000254C0678A155047804F01F050124AC405F
:1047D00005786D11AD0005F1E025C5F8004109E04F
:1047E000047804F01F050124AC401C4D06787611B6
:1047F00045F8264070BD1A4A0A400243154B1B1F5C
:104800001A60704739B1134A121D12680243114BE6
:104810001B1D1A6006E00F4A121D126882430D4BE1
:104820001B1D1A607047042808D14FF0E021096968
:1048300041F004014FF0E022116107E04FF0E02168
:10484000096921F004014FF0E02211617047000076
:104850000000FA050CED00E000E400E080E100E07B
:1048600080FFFF1F10B5012000F0A8FF002000F01E
:10487000A5FF10BD2A49086070472949091F086033
:104880007047274984310860704701460020254A57
:1048900010884FF67F4210400843224A108070472C
:1048A000014600201F4A10884FF6807210400843CE
:1048B0001C4A1080704708B500220092194A2C3A11
:1048C0000092009A02440092009A116008BD08B557
:1048D00001460020009013482C38009000980844AE
:1048E00000900098008808BD0D489C300068C0B258
:1048F00070470C480830008840F001000949083131
:10490000088070470648A0300068C0B2704705486C
:104910000830008840F002000249083108807047E2
:1049200004860D422C6C0040002044490860091D9B
:104930000860091D0860091D086041483F4914319D
:104940000860704700213D498279002A3AD00A4622
:10495000126803689A430B461A600A1D12680368BE
:104960009A430B1D1A60027911440A6803681A43BE
:104970000A60324A0832126803689A432F4B0833A0
:104980001A601A1D126803689A432C4B0C331A6084
:104990004279102A0ED11A1F126803681A43274B56
:1049A00008331A601A1D126803681A43234B0C332C
:1049B0001A600DE02149427911440A6803681A43DC
:1049C0000A6005E0027911440A6803689A430A60A4
:1049D00070470021016001710C214171002181713A
:1049E00070471649103109680143144A10321160AA
:1049F000704701460020114A143212680A400AB179
:104A0000012000E0002070470C4914310860704715
:104A1000014600200022094B1B6803EA0102074BF4
:104A200014331B680B4013B10AB1012000E00020D1
:104A300070470249143108607047000000040140CB
:104A4000FFFF0F0030B943F2DB028100A1F1C0414A
:104A50000A6005E043F2D2028100A1F1C0410A6080
:104A60006FF07042411C8900A1F1C0410A608100D1
:104A7000A1F1C041C1F80421704710280AD11821C2
:104A80004FF020421166402151664FF0FC31916693
:104A9000D16610E01821F74A116040214FF0204202
:104AA000C2F884104FF0FC31F24A083211604FF026
:104AB0002042C2F88C1070471820EE49203108605F
:104AC00000200906C1F8A4004FF0FC30E949283164
:104AD0000860091D0860091D08607047D0E90112CF
:104AE0001143C2681143026911434269114382694B
:104AF0001143C2691143026A1143426A1143826A37
:104B00001143C26A1143026B114302689200A2F181
:104B1000C0421160816808290BD101688900A1F1A8
:104B2000C041096841F0400201688900A1F1C0411B
:104B30000A60416B0968426B526841EA0211426B9C
:104B4000926841EA0221426B928941EA0241426B3A
:104B5000128A41EA0251426B127D41EA0261426BC4
:104B6000926911430268521C9200A2F1C042116086
:104B7000C16AB1F5804F1BD1816B0968826B5268A5
:104B800041EA0211826B926841EA0221826B128A29
:104B900041EA0251826B127D41EA0261826B9269A5
:104BA000114302689200A2F1C042C2F8041107E06A
:104BB0006FF0704201688900A1F1C041C1F8042181
:104BC000704730B5002100220023446844F00804F7
:104BD00085682C43C5682C4305692C43456944EA24
:104BE0004524856944EA4531C4692468C5696D680E
:104BF00044EA0524C5692D8944EA0544C5692D7B2D
:104C000044EA0562046A2468056A6D6844EA05247A
:104C1000056A2D8944EA0544056A2D7B44EA05634B
:104C20000468102C05D14FF020442166A266E3668B
:104C300008E0904C21604FF02044C4F888208D4C4F
:104C40000C34236030BD016841F01001426841EA34
:104C50004221826841EA4231864A20321160C168AD
:104C60000968C268526841EA0221C268128941EAB1
:104C70000241C268127B41EA02617E4A2832116019
:104C8000016909680269526841EA022102691289D0
:104C900041EA02410269127B41EA0261754A2C3203
:104CA0001160416909684269526841EA022142691A
:104CB000128941EA02414269127B41EA02614FF0E6
:104CC0002042C2F8B010704700210160022141600B
:104CD00000218160C160016141618161C161016246
:104CE0004FF480514162490081620021C162016339
:104CF0000F21426B1160426B5160FF21426B91604A
:104D00000F21426BD160426B1161426B51610021F6
:104D1000426B91610F21826B1160826B5160FF21A8
:104D2000826B91600F21826BD160826B1161826B0B
:104D300051610021826B9161704710210160002157
:104D400041608160C160016141618161FC21C26992
:104D50001160C2695160C2699160C269D160026A22
:104D60001160026A5160026A9160026AD160704704
:104D70000021016041608160FC21C2681160C2684D
:104D80005160C2689160C268D160026911600269B5
:104D90005160026991600269D160426911604269A3
:104DA0005160426991604269D160704751B182009F
:104DB000A2F1C042126842F001038200A2F1C04297
:104DC000136009E08200A2F1C04212682A4B1A4027
:104DD0008300A3F1C0431A60704799B1102808D12D
:104DE0004FF02042126E42F004024FF020431A6648
:104DF0001DE0204A126842F004024FF02043C3F83D
:104E0000802014E0102809D14FF02042126E1A4B76
:104E1000DB1E1A404FF020431A6608E0154A12685C
:104E2000154BDB1E1A404FF02043C3F8802070471B
:104E300048B110492031096841F004014FF0204287
:104E4000C2F8A01009E00B49203109680A4AD21EB5
:104E500011404FF02042C2F8A0107047B9B110289D
:104E60000CD14FF02042126E42F040024FF020432E
:104E70001A661FE0800000A0FEFF0F00724A126851
:104E800042F040024FF02043C3F8802012E0102887
:104E900008D14FF02042126E6C4B1A404FF0204365
:104EA0001A6607E0684A1268684B1A404FF02043C0
:104EB000C3F88020704701460020102903D14FF02D
:104EC0002042506F02E0604A14321068704710B5FB
:104ED000F2B1102807D14FF020435B6E0B434FF027
:104EE0002044636632E0B0F5807F08D1564B1B1D2D
:104EF0001B680B434FF02044C4F8843026E0524B2B
:104F000024331B680B434FF02044C4F8A4301DE049
:104F1000102807D14FF020435B6E8B434FF02044A5
:104F2000636613E0B0F5807F08D1474B1B1D1B68FB
:104F30008B434FF02044C4F8843007E0424B2433C5
:104F40001B688B434FF02044C4F8A43010BD10B54B
:104F5000024600200023102A03D14FF02044636E44
:104F600009E0B2F5807F03D1374C241D236802E0AD
:104F7000354C2434236803EA01040CB1012000E01D
:104F8000002010BD102807D14FF02042526E8A43F6
:104F90004FF020435A6613E0B0F5807F08D12A4ACB
:104FA000121D12688A434FF02043C3F8842007E0A3
:104FB000254A243212688A434FF02043C3F8A420C4
:104FC000704770B502460020002300240025102AF7
:104FD00003D14FF02046736E09E0B2F5807F03D114
:104FE000194E361D336802E0174E2436336803EA43
:104FF000010403EAD10514B10DB1012000E0002045
:1050000070BD102808D14FF02042526E22EAD10222
:105010004FF020435A6615E0B0F5807F09D10A4A67
:10502000121D126822EAD1024FF02043C3F88420F7
:1050300008E0054A2432126822EAD1024FF02043E8
:10504000C3F8A42070470000800000A0BFFF0F003D
:1050500010B50446CC48844208D10121042000F058
:1050600093FB0021042000F08FFB46E0C7488442F8
:1050700008D10121082000F087FB0021082000F062
:1050800083FB3AE0C248844208D10121102000F09D
:105090007BFB0021102000F077FB2EE0BD4884420E
:1050A00008D10121202000F06FFB0021202000F01A
:1050B0006BFB22E0B848844208D10121402000F077
:1050C00063FB0021402000F05FFB16E0B348844200
:1050D00008D10121802000F057FB0021802000F042
:1050E00053FB0AE0AE48844207D10121801500F04D
:1050F0004BFB0021A01500F047FB10BD10B50121AE
:10510000084600F041FB0021012000F03DFB10BDEE
:105110002DE9F0410246002500260020002300244E
:10512000002791F803C00CF00F0591F803C00CF0B4
:10513000100CBCF1000F03D091F802C04CEA050539
:1051400091F800C0BCF1000F31D0146800202BE0B2
:105150004FF0010C0CFA00F3B1F800C00CEA0306A2
:105160009E4220D183004FF00F0C0CFA03F7BC4392
:1051700005FA03FC4CEA040491F803C0BCF1280FC3
:1051800006D14FF0010C0CFA00FCC2F814C00AE082
:1051900091F803C0BCF1480F05D14FF0010C0CFA97
:1051A00000FCC2F810C0401C0828D1D31460B1F82C
:1051B00000C0BCF1FF0F34DD546800202EE000F188
:1051C000080C4FF0010808FA0CF3B1F800C00CEA23
:1051D00003069E4221D183004FF00F0C0CFA03F717
:1051E000BC4305FA03FC4CEA040491F803C0BCF18B
:1051F000280F05D100F1080C08FA0CF8C2F8148049
:1052000091F803C0BCF1480F07D100F1080C4FF032
:10521000010808FA0CF8C2F81080401C0828CED308
:105220005460BDE8F0814FF6FF710180022181706A
:105230000421C17070470246002093680B400BB1F7
:10524000012000E0002070470146886880B2704766
:1052500002460020D3680B400BB1012000E0002083
:1052600070470146C86880B270470161704741616C
:1052700070470AB1016100E041617047C160704749
:105280004FF480320A43826181618261826982695E
:10529000704702460020434B18684FF68073184051
:1052A00040EA021008433F4B186070473E49C8610E
:1052B0007047F0B50A46002300240021002500F0C5
:1052C0000046B6F1004F02D1364EF16901E0354E8D
:1052D0007168C0F3034583B200F44016B6F5401F71
:1052E00008D121F070612F4E766826F070662D4F40
:1052F0007E6012E000F48016B6F5801F06D103260A
:1053000006FA05F4A14341F0706106E0460D36014E
:1053100003FA06F6B14341F0706122B1460D360141
:1053200003FA06F6314300F00046B6F1004F02D111
:105330001C4EF16101E01B4E7160F0BD30B50022E2
:105340008B071C0F0F2303FA04F2164B08338C1043
:1053500053F824309343134C08348D1044F825300F
:1053600023468C1053F824308C07240F00FA04F4E1
:1053700023430C4C08348D1044F8253030BD0A49C5
:10538000DC3108607047000000080140000C01405B
:10539000001001400014014000180140001C0140B1
:1053A00000200140000001400000204210B5012112
:1053B000080700F0F6F900214FF0805000F0F1F9F5
:1053C00010BD2A49086270472849086170470146A4
:1053D0000020274A106820F0E00008431060704762
:1053E0002249A0310860704710B502460020204BCA
:1053F000186820F00300104318601E4B1B6843F030
:1054000004031C4C2360012901D130BF00E020BF00
:10541000184B1B6823F00403164C236010BD14487E
:10542000006840F00400124908600846006840F037
:10543000020008600F48006840F004000D49086051
:1054400000BF00BF30BF704701460020084A5268C5
:105450000A400AB1012000E00020704704490968B1
:1054600041EA8001024A11607047000000000E42CC
:105470000070004010ED00E0DF48006840F00100DF
:10548000DD49086008464068DC490840DA49486060
:1054900008460068DA490840D749086008460068AD
:1054A00020F4802008600846406820F4FE00486030
:1054B0004FF41F0088607047CF49096821F480319C
:1054C000CD4A11601146096821F480211160B0F5C0
:1054D000803F03D0B0F5802F0ED106E0C6490968A1
:1054E00041F48031C44A116007E0C349096841F4BE
:1054F000A021C14A116000E000BF00BF704710B595
:1055000001460022002300204A11012A02D1BA4C90
:10551000236806E0022A02D1B74C236A01E0B64CA8
:10552000636A01F01F02012494401C400CB1012069
:1055300000E0002010BD38B50020009000240025B8
:1055400000BF3120FFF7DBFF05460098401C0090AC
:105550000098B0F5A06F01D0002DF2D03120FFF7F8
:10556000CEFF08B1012400E00024204638BD0146EA
:105570000020A14A106820F0F80040EAC100106045
:105580007047A04908607047024600209A4B58684F
:1055900020F47C1042EA01031843974B586070478F
:1055A00098490866704701460020934A506820F0E9
:1055B00003000843506070478F48406800F00C00BB
:1055C0007047014600208C4A506820F0F0000843E4
:1055D0005060704701460020874A506820F4E06020
:1055E00008435060704701460020834A506820F409
:1055F000605040EAC1005060704729B17E4A527A3B
:1056000002437D4B5A7204E07B4A527A82437A4BC2
:105610005A7270477B49D8310860704701460020B4
:10562000754A506820F4404008435060704700219C
:10563000714A20321170704A82F82010012802D07D
:1056400004280AD104E001216B4A2032117005E0E0
:105650000521694A2032117000E000BF00BF704789
:105660006949086070476449096A0143624A1162E6
:105670007047654944390860704730B50021002201
:10568000002400235C4D6D6805F00C0121B1042954
:1056900005D0082923D105E05C4D056022E05B4D73
:1056A00005601FE0544D6D6805F47012524D6D6831
:1056B00005F48034022505EB92421CB9544D554344
:1056C00005600BE04C4D6D6805F400351DB1504D83
:1056D0005543056002E04D4D5543056002E04B4DDA
:1056E000056000BF00BF444D6D6805F0F001090979
:1056F000484D6B5C0568DD4045603F4D6D6805F4C5
:10570000E061090A434D6B5C4568DD4085603A4DB8
:105710006D6805F46051C90A3E4D6B5C4568DD401B
:10572000C560354D6D6805F44041890B3A4D6B5CA1
:10573000C568B5FBF3F5056130BD29B12E4A526944
:1057400002432D4B5A6104E02B4A526982432A4B93
:105750005A61704729B1284A92690243264B9A61DF
:1057600004E0254A92698243234B9A61704729B12C
:10577000214AD2690243204BDA6104E01E4AD26911
:1057800082431D4BDA61704729B11B4AD26802433C
:10579000194BDA6004E0184AD2688243164BDA608B
:1057A000704729B1144A12690243134B1A6104E08D
:1057B000114A12698243104B1A61704712494039ED
:1057C000086070470F49C86470470B49C87170473B
:1057D0000948406A40F080700749486270470146B6
:1057E0000020054A92680A400AB1012000E000202A
:1057F0007047014988727047001002400000FFF8AE
:10580000FFFFF6FE000042428004424200127A008E
:1058100000093D00880000209800002010B50446D3
:10582000FE48844208D10121C014FFF7ADFF0021DA
:10583000E014FFF7A9FFC4E0B4F1804F08D10121C3
:105840000846FFF7AEFF00210120FFF7AAFFB8E0EE
:10585000F348844208D101210220FFF7A2FF002172
:105860000220FFF79EFFACE0EE48844208D1012100
:105870000420FFF796FF00210420FFF792FFA0E02D
:10588000E948844208D101210820FFF78AFF00215E
:105890000820FFF786FF94E0E448844208D1012104
:1058A0001020FFF77EFF00211020FFF77AFF88E02D
:1058B000DF48844208D101212020FFF772FF002138
:1058C0002020FFF76EFF7CE0DA48844208D10121F6
:1058D0004014FFF759FF00216014FFF755FF70E0F7
:1058E000D548844209D10121C804FFF74DFF0021AA
:1058F0004FF40020FFF748FF63E0D048844209D10D
:1059000001210805FFF740FF00214FF48010FFF749
:105910003BFF56E0CA48844209D101214805FFF700
:1059200033FF00214FF40010FFF72EFF49E0C54878
:10593000844208D101214020FFF733FF002140209D
:10594000FFF72FFF3DE0C048844208D101218020AD
:10595000FFF727FF00218020FFF723FF31E0BB483E
:10596000844208D101218015FFF71BFF0021A015FB
:10597000FFF717FF25E0B648844209D1012108044A
:10598000FFF702FF00214FF48030FFF7FDFE18E023
:10599000B048844209D101214804FFF7F5FE0021F7
:1059A0004FF40030FFF7F0FE0BE0AB48844208D123
:1059B00001218804FFF7E8FE00214FF48020FFF763
:1059C000E3FE10BD00220288944B98420ED0994B02
:1059D00098420BD0B0F1804F08D0914B984205D03F
:1059E000904B984202D0904B984204D14FF68F735F
:1059F0001A404B881A438D4B984207D08C4B9842E3
:105A000004D04FF6FF431A40CB881A4302808B889C
:105A100083850B880385814B98420BD0854B984238
:105A200008D08B4B984205D08A4B984202D08A4BC3
:105A3000984201D10B7A038601238382704770B5A7
:105A4000002400220023058C4FF6FE7635400584A5
:105A5000028C8388048B4FF68F752C40B51E2C402A
:105A60000D882C43751E2A400D892A434D882A43F0
:105A70006A4DA8420BD06F4DA84208D0744DA84281
:105A800005D0744DA84202D0734DA84213D14FF6F1
:105A9000F7752A404D892A434FF6FB752A408D88B9
:105AA0002A434FF6FF652B404FF6FF552B408D895B
:105AB0002B43CD892B4383800483CD888586028444
:105AC00070BD70B5002400220023058C4FF6EF76E0
:105AD00035400584028C8388048B48F6FF752C4082
